:1000000000000320D1010000392500000525000073
:100010000525000005250000052500000525000038
:1000200005250000052500000525000039250000F4
:10003000392500000525000031420000354200004E
:100040003925000039250000392500003925000038
:100050003925000039250000392500003925000028
:100060003925000039250000392500003925000018
:100070003925000039250000392500003925000008
:1000800039250000392500003925000039250000F8
:1000900039250000392500003925000039250000E8
:1000A00099710000A5710000392500003925000074
:1000B0003925000039250000392500002D290000D0
:1000C000392500008D2A000039250000ED2B0000A5
:1000D00039250000FD2C00003925000039250000DD
:1000E000392500003925000039250000C95E0000CF
:1000F000856B0000455F00003925000039250000B0
:100100000944000025440000414400005D44000013
:10011000FD69000039320000392500003925000052
:100120003925000039250000E15C00003925000078
:100130003925000039250000392500003925000047
:10014000613F0000392500000D2E00003925000018
:100150003925000039250000392500003925000027
:100160003925000039250000B17100003925000053
:100170003925000039250000392500003925000007
:10018000392500000D7C00003925000039250000CC
:1001900039250000392500001D2F000039250000F9
:1001A000392500003925000039250000BD71000007
:1001B00039250000392500003925000039250000C7
:1001C00039250000392500003925000039250000B7
:1001D0005F4B4CF2205210B5DA814DF62812DA81CD
:1001E00000BF00BF02F0ACF95A4B5B484FF03062E1
:1001F0001A635A4A9A635A4ADA634FF0E0234FF47B
:100200007002C3F8882D03F5E823564A1A60564B4E
:100210009A78110742BF9A7842F008029A70534BBD
:10022000AA221A70524BDA1C121AC11E22F00302C3
:10023000994288BF00224F490AF094F94E4B4F482B
:10024000DA1C121AC11E22F00302994288BF002252
:1002500000210AF042F94A494A484FF4E8720AF08C
:1002600081F9494B494A802103F8011B9342FBD194
:100270004FF0E023434AC3F8082D454B8A221A70F9
:10028000A3F5805324225A70A0221A709A799207FB
:10029000FCD59A79D406FCD43E4A937903F00C033A
:1002A000082BFAD1314B60225A70DA78802AFCD1BF
:1002B000384B01221A715D225A719A799006FCD549
:1002C0009A795106FCD5234A33495164002191643F
:1002D000202119702F498B7903F00C030C2BFAD1D4
:1002E0002E4B53602E4A136913F4807302BF53617F
:1002F0004FF4A85313614FF0E0232A4A5A610022B9
:100300009A6107221A61284AC3F8202D62B602F0CA
:10031000C7F9234B5B69DA0705D5244802F0B4F925
:10032000234B244ADA61244B1B785B0609D5204C09
:10033000204BE2699A4204D11C4802F0A5F900233F
:10034000E36102F003F90AF0E7F804F06AFAFEE765
:1003500000200540008004404012FF1F823F04003F
:100360000100002B0300008500D0074000E007409B
:10037000D03EFF1F98B40000D05BFF1FD03EFF1F90
:1003800000000000000CFF1F00E400E064E400E057
:10039000005006400040064000000602C010070062
:1003A00000D003401FBF020000002020000000001A
:1003B00000E00340A5C3945A00F00740FFFFFFFF91
:1003C000FFFFFFFFFFFFFFFFFFFFFFFFFFFFFFFF3D
:1003D000FFFFFFFFFFFFFFFFFFFFFFFFFFFFFFFF2D
:1003E000FFFFFFFFFFFFFFFFFFFFFFFFFFFFFFFF1D
:1003F000FFFFFFFFFFFFFFFFFFFFFFFFFFFFFFFF0D
:10040000FFFFFFFFFFFFFFFFFFFFFFFFDEF9FFFF23
:100410000548064B1B1AD90F01EBA301491002D066
:10042000034B03B118477047D03EFF1FD03EFF1F5C
:100430000000000008B5054B1BB105490548AFF3A6
:100440000080BDE80840FFF7E3BF00BF00000000E8
:10045000D03EFF1F98B40000002070477047FFFF98
:1004600010F040021ABFC343DBB2034610B503F0DD
:100470000F0102B101310A4CC3F3011304EB430233
:1004800014F81330527812FB01F203EB2213DBB2A3
:10049000020644BF5B42DBB283F0800010BD00BFA8
:1004A000A8A800004069704713B500230A460168F8
:1004B000ADF800308DF80230ADF804308DF806301C
:1004C0000C68019B6946A04702B010BD0020704730
:1004D000704770477047FFFF2DE9F8430368DFF866
:1004E0004C909B68DFF848800546984700244B46AF
:1004F000D3ED000A2B682146DB68B0EE600A28467F
:10050000984704EB440708EB0706C0F307230134C0
:1005100008F80700B4F5007F7370C0F3074309F1D2
:100520000809B370E3D1BDE8F88300BF4417FF1F8B
:100530000446FF1F024A00231380024A13707047CB
:10054000EC45FF1FBF36FF1F014B00221A7070479A
:10055000BF36FF1F7047FFFFD0ED017A30EE670A0C
:10056000DFB5F0EEC07A044617EE900A09F036FBCC
:1005700023A3D3E9002306460F4609F0F9FD98B3FB
:10058000237A8DF8043032463B461DA1D1E90001A3
:1005900009F0C4F9184B002209F078FB02460B461B
:1005A0000020164909F0BAF909F048FEC8238DF871
:1005B000050002A901A88DF8063007F006F8029B95
:1005C000ADF80C301B0C8DF80E309DF80C3000206F
:1005D00063F307009DF80D3063F30F209DF80E3094
:1005E00063F3174004B0D0BDADF80C008DF80E00D9
:1005F000EBE700BFAFF3008000C08240000069401D
:100600009A9999999999C93F2DE9F04F1E4B1F4F1F
:100610001B6885B000260393039D07234FF0360A1D
:10062000B5FBF3F5C5F38D0905EB0613DBB2BB464D
:1006300000244FF0FF083BF8021B0191B1F57A7FCF
:1006400016D018460093FFF70BFF0199104B8DF859
:1006500009800AFB049C6044401001EB41018DF8C5
:100660000800194402A88DF80A8006F0AEFF009B2E
:1006700001345A2CDFD10136162E07F1B407D3D13D
:1006800005B0BDE8F08F00BFE84CFF1F4627FF1FF5
:100690000446FF1F0A4A138830B40A4C03EB430098
:1006A0002118FF2525540020487088700133C3F3BA
:1006B000080330BC4FF4FA70138002F021B900BF78
:1006C000843FFF1F0446FF1F2DE9F04F2E4BDFF83C
:1006D000C0B01B6887B003220593059DB5FBF2F5FA
:1006E000ADB205F5A85A05F16E060AF1180AB6B2C0
:1006F0004FF000091FFA8AFAB5FBF2F25FFA89F4AB
:10070000C4F101035BB2013C14EA230438BF1C4668
:1007100064B21823C4EB042494FBF3F41B4BB42100
:1007200001FB09332F4633F8028BB8F57A7F1DD0D1
:1007300031463846CDE9022307F0F6F9001B20EADE
:10074000E07008EB4801C0B20BEB0108019106F024
:1007500019FF0199DDE902230BF80100C0F307211D
:10076000C0F3074088F8011088F802003C37BFB298
:100770005745D8D109F10109053EB9F1160FB6B2B6
:10078000BCD107B0BDE8F08FE84CFF1F4627FF1F24
:100790000446FF1F73B51A4A1A4C1378013300251B
:1007A000137020464FF4004301AA8021ADF80430B5
:1007B000FF268DF8065006F0D7FE01AA04F5C0709A
:1007C0008021ADF804608DF8065006F0CDFE01AA38
:1007D00004F540707F21ADF804508DF8066006F0F6
:1007E000C3FE4FF6FF7301AA812104F27D40ADF8EC
:1007F00004308DF8065006F0B7FE02B070BD00BFA1
:10080000863FFF1FC03FFF1F10B5044B044640F852
:10081000143B05F03BF8204610BD00BF3CA700008C
:1008200013B5114B1B680193044601984FF4AF13A5
:100830005843000EFFF714FE40F3170009F0BCF90F
:1008400007A3D3E9002309F04BFB09F017FD237A36
:1008500060600133237202B010BD00BFAFF30080AF
:100860000000000000E06F40E84CFF1F08B504F0F6
:1008700023F80A4B1B7803F0FF006BB1084B187884
:1008800010F0010008D0074B1868074B1B68C01A0E
:100890000E2894BF0020012008BD00BF1051FF1F8B
:1008A0003051FF1FE84CFF1F3451FF1F00230A2265
:1008B00003F07DBE10B50446006818B1A168091A9E
:1008C00003F0B9FF204610BD13B50446084659B1E0
:1008D000019109F055FE236801995B6802462046A4
:1008E00002B0BDE81040184702B010BD10B5044674
:1008F000FFF7EAFF2046BDE8104003F04BBE08B505
:10090000FFF7E2FF08BDFFFFF7B52C4942680B680F
:100910000093009B9B1A182B4ED972B6284A137F5E
:1009200003F0FF040BB10023137762B6002C43D011
:100930000B680193019B436072B647F6FF70B2F9F2
:100940001E30D0834FF40040B2F92010108462B6FC
:10095000002B81EAE172B8BF5B42A2EBE1729BB26D
:1009600092B29342B8BF134607EE903A9FED157AC4
:10097000154E164FF8EEE77A0025C7EE877A17EE88
:10098000900A09F02BF9124B002209F07FF909F0C7
:100990002DFC104904460D48FFF7B1FFA54205DBC9
:1009A0000A4803B0BDE8F04003F0F4BD31463846D4
:1009B000FFF7A5FF0135F1E703B0F0BDE84CFF1FDD
:1009C000A04CFF1F00FEFF4652A600006839FF1F23
:1009D00000003E4050A60000034B82B01B6801930C
:1009E000019B036002B07047E84CFF1F2DE9F04304
:1009F000274C2368BFF35B8FDB0785B009D4204603
:100A000001F0BDFD28B12348FFF7E6FF204601F0C5
:100A1000BBFD21491F4A0B680293029B10681B1AF9
:100A2000132B31D90B681D4F0393039B13603B7845
:100A30001B4D02333B7000242E464FF0F0094FF05F
:100A400096083B788DF8059004EB84021344294600
:100A500001A801348DF804308DF8068006F0B5FD4C
:100A6000B4F5007F05F10305EBD10324FF254FF416
:100A70000071002003F0CBFE00EB40003318013C76
:100A800035545D709D70F2D105B0BDE8F08300BFB4
:100A90007C3FFF1F803FFF1FE84CFF1F783FFF1F79
:100AA0000446FF1F10B504460D4B2360002310467B
:100AB0006172226123728A00E360194609F00DFD1C
:100AC000084A136833B91460002363616360A3723A
:100AD000204610BD1A465B69002BFBD15461F3E739
:100AE00030A700006C51FF1F034B82B01B680193BD
:100AF000019B036002B07047E84CFF1F13B5084A22
:100B0000016812680192019A4368521A934294BF95
:100B10000124002401D8FFF7E7FF204602B010BDF2
:100B2000E84CFF1F2DE9F7435D4A5E4913680093C7
:100B3000009B0988044680681B1A994253D81368A1
:100B40000193019BA3601A2204F12801564804F086
:100B50001BFB282204F14C01534804F015FB08222A
:100B600004F17001504804F00FFB206E09F036F8D4
:100B70004E4BD3E9006732463B468046894609F032
:100B800085F802460B46D4E9040108F0C9FEC4E921
:100B90000401606E09F022F832463B4609F076F80F
:100BA00002460B46D4E9060108F0BAFEC4E9060184
:100BB000E06B09F013F83E4BD3E9002309F066F827
:100BC00041EC100B07F0F0FC3A4B57EC106BD3E9FB
:100BD00000234046494609F059F832463B4609F0A1
:100BE0007FF9C4E90801344D2B68BFF35B8FDB0745
:100BF0000CD4284601F0C3FC40B1304E3046FFF71C
:100C000073FFFA237360284601F0BEFC2B48FFF700
:100C100075FF002840D02A492A48FFF770FEE06B94
:100C200008F0DCFF41EC100B0221264803F0CCFC5D
:100C3000244803F0AFFC24492248FFF760FE234913
:100C40002048FFF75CFE206E08F0C8FF41EC100B57
:100C500002211C4803F0B8FC1D491A48FFF74FFE5B
:100C6000606E08F0BBFF41EC100B0221154803F049
:100C7000ABFC18491348FFF742FEA06E08F0AEFF28
:100C800041EC100B02210F4803F09EFC0D4803B00D
:100C9000BDE8F04303F07EBC03B0BDE8F08300BFC5
:100CA000E84CFF1F3413FF1FDC45FF1F883FFF1F69
:100CB0003813FF1F903FFF1F6C3FFF1F703FFF1F48
:100CC00054A600006839FF1F5EA600006AA6000057
:100CD0006EA6000072A6000002484FF4C062002118
:100CE00009F0FBBB0446FF1F10B5054C0D20217811
:100CF00001F048FD2378013B18BF0123237010BD8C
:100D00004013FF1F70B51A491A4D04461A48FFF7E1
:100D1000F6FD21461848FFF7C9FD174803F03AFCD5
:100D200064B2164B2A781A70002C2C70144C05DA19
:100D3000D4E900239B1A9B10013B2B70114A01231D
:100D40001370114A00211180104A1370104A137059
:100D5000FFF7C2FF0F48017806F0A6FB236895F95C
:100D6000002053F822000368BDE870401B68184754
:100D700076A60000EE45FF1F6839FF1FC44CFF1F19
:100D8000F045FF1FBE36FF1FEC45FF1FBF36FF1F9C
:100D9000C036FF1F3458FF1F094B0A4A1B781844FE
:100DA000D2E9002340B29B1A00284FEAA30302DADB
:100DB000013B58B27047984228BF0020704700BFDF
:100DC000EE45FF1FF045FF1F08B5FFF7E5FFBDE843
:100DD0000840C0B2FFF796BFF0B50A490A4D0B4C68
:100DE000002335F8022B03EB430002EB42022718E5
:100DF0008E18205A88520133BA78B270B3F5007F4A
:100E0000EFD1F0BDC03FFF1F4213FF1F0446FF1F7D
:100E100010B502F0FBFD00281FDD02F0B5FDC0B2E9
:100E20006E2804D10120BDE81040FFF7CDBF622835
:100E300002D14FF0FF30F6E7084C09492368094812
:100E400001332360FFF75BFD2168064803F09AFB3E
:100E5000BDE81040034803F09DBB10BDA43FFF1F39
:100E600085A600006839FF1F10B5094C94F90000F1
:100E7000431C04D0C0B2FFF745FFFF232370054C8D
:100E800094F9000018B1FFF79FFF0023237010BDF5
:100E90004427FF1F044CFF1F38B5064C064D218820
:100EA000284603F06FFB284603F074FB00232380E1
:100EB00038BD00BFFC45FF1F6839FF1F1FB5002369
:100EC00003930DF10F0300931C480DF10E030DF178
:100ED0000D0203A904F09CF89DF80C301BB91849C9
:100EE0001848FFF70CFD18491648FFF708FD9DF854
:100EF0000C101448FFF7DAFC14491248FFF7FFFC06
:100F00009DF80D100F48FFF7D1FC11490D48FFF770
:100F1000F6FC9DF80E100B48FFF7C8FC0D49094878
:100F2000FFF7EDFC9DF80F100648FFF7BFFC0548E2
:100F300003F030FB05B05DF804FB00BFDC45FF1F8C
:100F40008AA600006839FF1FA7A60000ACA6000013
:100F5000B0A60000B4A6000038B5FFF785FF384BF7
:100F60001B780BB1FFF7B8FE364B93F90020364BD8
:100F70001B6853F8220003685B689847334B1B7863
:100F80002BB1FFF729FF3248017806F08DFA314A7C
:100F9000314C1388013313802368BFF35B8FD9076B
:100FA0000DD4204601F0EBFA48B12C4D2846FFF74E
:100FB0009BFD4FF47A736B60204601F0E5FA2748F9
:100FC000FFF79CFD08B1FFF78FFE254C2368BFF3A8
:100FD0005B8FDA070CD4204601F0D1FA40B1214DE5
:100FE0002846FFF781FD64236B60204601F0CCFAB0
:100FF0001C48FFF783FD08B1FFF70AFF1A4C23686E
:10100000BFF35B8FDB070DD4204601F0B8FA48B17F
:10101000164D2846FFF768FD4FF47A736B60204643
:1010200001F0B2FA1148FFF769FD08B1FFF734FF8C
:101030000F4B188818B1BDE8384001F061BC38BDCD
:10104000BF36FF1FEE45FF1FF045FF1FC036FF1FD5
:101050003458FF1FFC45FF1F983FFF1FA83FFF1F8D
:101060009C3FFF1FB03FFF1FA03FFF1FB83FFF1F68
:10107000EC45FF1F0023C0E9013343614FF0FF330C
:10108000C360038201238374054B1A6802B9186098
:10109000044B1A6802B190601860034B03607047FC
:1010A0004858FF1F4C58FF1FFCA70000814210B595
:1010B0001346A1EB000405D001462246184609F06C
:1010C000F2F90346181910BD2DE9F041042088B04B
:1010D00003F0AFFBA34B03600090042003F0A9FBD7
:1010E000A14B036001900C2003F0A3FB002343609D
:1010F00000259E4B036005720290042003F099FBCB
:101100009B4B03600390042003F093FB994B036017
:101110000490082003F08DFB974B4560044640F88F
:10112000043BFFF759FC9820059403F082FB9822BA
:101130000446294609F0D1F92046904B40F8083B77
:10114000FFF74AFC8E4B23600420069403F071FBEA
:101150008C4C8D4B22680360A36807909B1A1F2B51
:1011600000F2DA80202003F064FB08A9024605465D
:101170006846FFF79BFF206818B1A168091A03F0C1
:101180005AFB25602035C4E90155804DFFF76EFB01
:1011900028B92B680093009BB3F5FA6FF6D92E6837
:1011A0007B4F40F2EE28FFF761FB002800F0CD8076
:1011B00078497948794EFFF799FB79497648FFF7E6
:1011C00095FB3568BFF35B8F15F001050DD13046F7
:1011D00001F0D5F948B1734F3846FFF74BFF724B1A
:1011E0003B60BD61304601F0CFF9704E70496D48EB
:1011F0000023802206F00CF93568BFF35B8F15F0F1
:1012000001050DD1304601F0BAF948B1694F3846B1
:10121000FFF730FF684B3B60BD61304601F0B4F929
:101220008023664E624963481A4606F0F1F8356835
:10123000BFF35B8F15F001050DD1304601F09FF92A
:1012400048B15F4F3846FFF715FF5E4B3B60BD610D
:10125000304601F099F95C4E554959487F234FF4C7
:10126000807206F0D5F83568BFF35B8F15F0010585
:101270000DD1304601F083F948B1544F3846FFF79D
:10128000F9FE534B3B60BD61304601F07DF94849A2
:101290004E48812340F27F1206F0BAF84D4B4E4A79
:1012A000DA6046F2A8129A604C493B4819221A703B
:1012B000FFF71CFB0021182001F092FA4848182182
:1012C00005F0BEFF47493448FFF710FB4649324856
:1012D000FFF70CFB45480C2103F040FE002840F0CE
:1012E0008B8043492C48FFF70AFB4248082102F053
:1012F0007BFE01210D2001F073FA0021242001F072
:101300006FFA0A2001F0FCFA2368186803681B686A
:1013100008B0BDE8F04118476568AD1A1F2D09D91E
:1013200008A96846FFF7C2FE636898423FF42DAFF4
:1013300060602AE76D4429466846FFF7B7FE626899
:1013400008A92846FFF7B2FEF2E72B683A789B1B04
:1013500032B1B3F5FA6F3FF62BAF03F0ADFA22E7E7
:101360004345F8E79CA70000BCA7000074A7000055
:10137000ACA700008CA70000ECA7000064A7000049
:10138000DCA70000F045FF1FCCA70000E84CFF1FC2
:101390001051FF1FB8A600006839FF1F4C3FFF1F08
:1013A000C3A60000503FFF1F20A800002C3FFF1FD6
:1013B000C03FFF1F303FFF1F44A800000C3FFF1F2E
:1013C000103FFF1F68A80000EC3EFF1FF03EFF1F0C
:1013D0008CA800003458FF1F817B0000CCA60000C1
:1013E000C84CFF1FD7A60000E5A60000DC45FF1F84
:1013F000F1A600000002FF1F0E490F48FFF776FA22
:10140000C82001F07DFA0D4803F01AFE0C4905468C
:101410000948FFF774FA2946074803F0B3F8094969
:101420000548FFF763FA0548012103F063FDFFF764
:1014300045FD5AE705A700006839FF1FDC45FF1F7F
:1014400016A7000024A7000010B51021044603F0E1
:10145000F2F9204610BD006810B103685B681847B8
:101460007047FFFF684B10F0800F4FF480414FF042
:10147000020214BF59609960C3F8C42000BF00BFC6
:1014800000BF00BF00BF00BF00BF00BFC3F8C8203F
:1014900000BF00BF00BF00BF5B4B10F0400F4FF418
:1014A00080414FF0020214BF59609960C3F8C42014
:1014B00000BF00BF00BF00BF00BF00BF00BF00BF34
:1014C000C3F8C82000BF00BF00BF00BF4E4B10F0E4
:1014D000200F4FF480414FF0020214BF5960996011
:1014E000C3F8C42000BF00BF00BF00BF00BF00BFE3
:1014F00000BF00BFC3F8C82000BF00BF00BF00BFCF
:10150000414B10F0100F4FF480414FF0020214BF16
:1015100059609960C3F8C42000BF00BF00BF00BF7E
:1015200000BF00BF00BF00BFC3F8C82000BF00BF9E
:1015300000BF00BF344B10F0080F4FF480414FF054
:10154000020214BF59609960C3F8C42000BF00BFF5
:1015500000BF00BF00BF00BF00BF00BFC3F8C8206E
:1015600000BF00BF00BF00BF274B10F0040F4FF4B7
:1015700080414FF0020214BF59609960C3F8C42043
:1015800000BF00BF00BF00BF00BF00BF00BF00BF63
:10159000C3F8C82000BF00BF00BF00BF1A4B10F047
:1015A000020F4FF480414FF0020214BF596099605E
:1015B000C3F8C42000BF00BF00BF00BF00BF00BF12
:1015C00000BF00BFC3F8C82000BF00BF00BF00BFFE
:1015D0000D4B10F0010F4FF480414FF0020214BF89
:1015E00059609960C3F8C42000BF00BF00BF00BFAE
:1015F00000BF00BF00BF00BFC3F8C82000BF00BFCE
:1016000000BF00BF704700BF00F00F402DE9F84F4A
:1016100000F1180680690C4610B103681B689847F2
:10162000002094F814A094F8138094F81290FFF717
:1016300019FF0020FFF716FF0020FFF713FF00201F
:10164000FFF710FF08F1010809F101090AF1010A89
:10165000A368002B17DC6468002CB8BF1F3464112A
:10166000FF20FFF7FFFE0020FFF7FCFE0020FFF742
:10167000F9FE0020FFF7F6FE013CF1D23046FFF7FD
:10168000EAFEBDE8F88FA26921688B1811F802B054
:101690005D789F7808FB05F52D120AFB07F709FB1B
:1016A0000BFB3F122D02FF204FEA2B2B67F0FF07A9
:1016B000ADB2FFF7D7FE45EA0B05F8B2FFF7D2FE51
:1016C000280AFFF7CFFEE8B2FFF7CCFE227BE37BD0
:1016D0009B1A2373627B237C9B1A6373A27B637CBC
:1016E0009B1AA37394F91520236813442360A368FD
:1016F000013BA360ACE7006810B103685B68184762
:101700007047FFFF704B10F0800F4FF040014FF01B
:10171000020214BFC3F8C410C3F8C810C3F8C42031
:1017200000BF00BF00BF00BF00BF00BF00BF00BFC1
:10173000C3F8C82000BF00BF00BF00BF624B10F05D
:10174000400F4FF040014FF0020214BFC3F8C41025
:10175000C3F8C810C3F8C42000BF00BF00BF00BF5B
:1017600000BF00BF00BF00BFC3F8C82000BF00BF5C
:1017700000BF00BF544B10F0200F4FF040014FF05E
:10178000020214BFC3F8C410C3F8C810C3F8C420C1
:1017900000BF00BF00BF00BF00BF00BF00BF00BF51
:1017A000C3F8C82000BF00BF00BF00BF464B10F009
:1017B000100F4FF040014FF0020214BFC3F8C410E5
:1017C000C3F8C810C3F8C42000BF00BF00BF00BFEB
:1017D00000BF00BF00BF00BFC3F8C82000BF00BFEC
:1017E00000BF00BF384B10F0080F4FF040014FF022
:1017F000020214BFC3F8C410C3F8C810C3F8C42051
:1018000000BF00BF00BF00BF00BF00BF00BF00BFE0
:10181000C3F8C82000BF00BF00BF00BF2A4B10F0B4
:10182000040F4FF040014FF0020214BFC3F8C41080
:10183000C3F8C810C3F8C42000BF00BF00BF00BF7A
:1018400000BF00BF00BF00BFC3F8C82000BF00BF7B
:1018500000BF00BF1C4B10F0020F4FF040014FF0D3
:10186000020214BFC3F8C410C3F8C810C3F8C420E0
:1018700000BF00BF00BF00BF00BF00BF00BF00BF70
:10188000C3F8C82000BF00BF00BF00BF0E4B10F060
:10189000010F4FF040014FF0020214BFC3F8C41013
:1018A000C3F8C810C3F8C42000BF00BF00BF00BF0A
:1018B00000BF00BF00BF00BFC3F8C82000BF00BF0B
:1018C00000BF00BF704700BF00F00F402DE9F84F88
:1018D00000F1180680690C4610B103681B68984730
:1018E000002094F814A094F8138094F81290FFF755
:1018F00009FF0020FFF706FF0020FFF703FF00208D
:10190000FFF700FF08F1010809F101090AF1010AD6
:10191000A368002B17DC6468002CB8BF1F34641167
:10192000FF20FFF7EFFE0020FFF7ECFE0020FFF79F
:10193000E9FE0020FFF7E6FE013CF1D23046FFF75A
:10194000DAFEBDE8F88FA26921688B1811F802B0A1
:101950005D789F7808FB05F52D120AFB07F709FB58
:101960000BFB3F122D02FF204FEA2B2B67F0FF07E6
:10197000ADB2FFF7C7FE45EA0B05F8B2FFF7C2FEAE
:10198000280AFFF7BFFEE8B2FFF7BCFE227BE37B2D
:101990009B1A2373627B237C9B1A6373A27B637CF9
:1019A0009B1AA37394F91520236813442360A3683A
:1019B000013BA360ACE7006810B103685B6818479F
:1019C0007047FFFF704B10F0800F4FF020014FF079
:1019D000020214BFC3F8C410C3F8C810C3F8C4206F
:1019E00000BF00BF00BF00BF00BF00BF00BF00BFFF
:1019F000C3F8C82000BF00BF00BF00BF624B10F09B
:101A0000400F4FF020014FF0020214BFC3F8C41082
:101A1000C3F8C810C3F8C42000BF00BF00BF00BF98
:101A200000BF00BF00BF00BFC3F8C82000BF00BF99
:101A300000BF00BF544B10F0200F4FF020014FF0BB
:101A4000020214BFC3F8C410C3F8C810C3F8C420FE
:101A500000BF00BF00BF00BF00BF00BF00BF00BF8E
:101A6000C3F8C82000BF00BF00BF00BF464B10F046
:101A7000100F4FF020014FF0020214BFC3F8C41042
:101A8000C3F8C810C3F8C42000BF00BF00BF00BF28
:101A900000BF00BF00BF00BFC3F8C82000BF00BF29
:101AA00000BF00BF384B10F0080F4FF020014FF07F
:101AB000020214BFC3F8C410C3F8C810C3F8C4208E
:101AC00000BF00BF00BF00BF00BF00BF00BF00BF1E
:101AD000C3F8C82000BF00BF00BF00BF2A4B10F0F2
:101AE000040F4FF020014FF0020214BFC3F8C410DE
:101AF000C3F8C810C3F8C42000BF00BF00BF00BFB8
:101B000000BF00BF00BF00BFC3F8C82000BF00BFB8
:101B100000BF00BF1C4B10F0020F4FF020014FF030
:101B2000020214BFC3F8C410C3F8C810C3F8C4201D
:101B300000BF00BF00BF00BF00BF00BF00BF00BFAD
:101B4000C3F8C82000BF00BF00BF00BF0E4B10F09D
:101B5000010F4FF020014FF0020214BFC3F8C41070
:101B6000C3F8C810C3F8C42000BF00BF00BF00BF47
:101B700000BF00BF00BF00BFC3F8C82000BF00BF48
:101B800000BF00BF704700BF00F00F402DE9F84FC5
:101B900000F1180680690C4610B103681B6898476D
:101BA000002094F814A094F8138094F81290FFF792
:101BB00009FF0020FFF706FF0020FFF703FF0020CA
:101BC000FFF700FF08F1010809F101090AF1010A14
:101BD000A368002B17DC6468002CB8BF1F346411A5
:101BE000FF20FFF7EFFE0020FFF7ECFE0020FFF7DD
:101BF000E9FE0020FFF7E6FE013CF1D23046FFF798
:101C0000DAFEBDE8F88FA26921688B1811F802B0DE
:101C10005D789F7808FB05F52D120AFB07F709FB95
:101C20000BFB3F122D02FF204FEA2B2B67F0FF0723
:101C3000ADB2FFF7C7FE45EA0B05F8B2FFF7C2FEEB
:101C4000280AFFF7BFFEE8B2FFF7BCFE227BE37B6A
:101C50009B1A2373627B237C9B1A6373A27B637C36
:101C60009B1AA37394F91520236813442360A36877
:101C7000013BA360ACE7006810B103685B681847DC
:101C80007047FFFF704B10F0800F4FF001014FF0D5
:101C9000020214BFC3F8C410C3F8C810C3F8C420AC
:101CA00000BF00BF00BF00BF00BF00BF00BF00BF3C
:101CB000C3F8C82000BF00BF00BF00BF624B10F0D8
:101CC000400F4FF001014FF0020214BFC3F8C410DF
:101CD000C3F8C810C3F8C42000BF00BF00BF00BFD6
:101CE00000BF00BF00BF00BFC3F8C82000BF00BFD7
:101CF00000BF00BF544B10F0200F4FF001014FF018
:101D0000020214BFC3F8C410C3F8C810C3F8C4203B
:101D100000BF00BF00BF00BF00BF00BF00BF00BFCB
:101D2000C3F8C82000BF00BF00BF00BF464B10F083
:101D3000100F4FF001014FF0020214BFC3F8C4109E
:101D4000C3F8C810C3F8C42000BF00BF00BF00BF65
:101D500000BF00BF00BF00BFC3F8C82000BF00BF66
:101D600000BF00BF384B10F0080F4FF001014FF0DB
:101D7000020214BFC3F8C410C3F8C810C3F8C420CB
:101D800000BF00BF00BF00BF00BF00BF00BF00BF5B
:101D9000C3F8C82000BF00BF00BF00BF2A4B10F02F
:101DA000040F4FF001014FF0020214BFC3F8C4103A
:101DB000C3F8C810C3F8C42000BF00BF00BF00BFF5
:101DC00000BF00BF00BF00BFC3F8C82000BF00BFF6
:101DD00000BF00BF1C4B10F0020F4FF001014FF08D
:101DE000020214BFC3F8C410C3F8C810C3F8C4205B
:101DF00000BF00BF00BF00BF00BF00BF00BF00BFEB
:101E0000C3F8C82000BF00BF00BF00BF0E4B10F0DA
:101E1000010F4FF001014FF0020214BFC3F8C410CC
:101E2000C3F8C810C3F8C42000BF00BF00BF00BF84
:101E300000BF00BF00BF00BFC3F8C82000BF00BF85
:101E400000BF00BF704700BF00F00F402DE9F84F02
:101E500000F1180680690C4610B103681B689847AA
:101E6000002094F814A094F8138094F81290FFF7CF
:101E700009FF0020FFF706FF0020FFF703FF002007
:101E8000FFF700FF08F1010809F101090AF1010A51
:101E9000A368002B17DC6468002CB8BF1F346411E2
:101EA000FF20FFF7EFFE0020FFF7ECFE0020FFF71A
:101EB000E9FE0020FFF7E6FE013CF1D23046FFF7D5
:101EC000DAFEBDE8F88FA26921688B1811F802B01C
:101ED0005D789F7808FB05F52D120AFB07F709FBD3
:101EE0000BFB3F122D02FF204FEA2B2B67F0FF0761
:101EF000ADB2FFF7C7FE45EA0B05F8B2FFF7C2FE29
:101F0000280AFFF7BFFEE8B2FFF7BCFE227BE37BA7
:101F10009B1A2373627B237C9B1A6373A27B637C73
:101F20009B1AA37394F91520236813442360A368B4
:101F3000013BA360ACE701210E2000F051BC10B5BD
:101F4000012104461A2000F04BFCFFF7F4FF04F1D6
:101F50001800FFF780FA10BD10B5012104461520C6
:101F600000F03EFCFFF7E7FF04F11800FFF7C3FBAA
:101F700010BD10B501210446142000F031FCFFF71C
:101F8000DAFF04F11800FFF716FD10BD10B50121AE
:101F90000446022000F024FCFFF7CDFF04F11800F6
:101FA000FFF769FE10BDFFFF70B5174B1A780132BD
:101FB00002F007021A70D3019107DBB248BF43F069
:101FC0004003520748BF43F02003103300F10C01D7
:101FD000DAB20F304FF480768B791BB1B6FBF3F396
:101FE0000133DBB203FB0224C4F30725241218BF1C
:101FF00005F1FF34CB700C700BB1013BCB7001319C
:102000008842E9D170BD00BFE83EFF1F10B58AB01D
:10201000CDE903120193837CBDF804100592012BD6
:102020009DF80620ADF81E1004468DF820200ED134
:1020300003A8FFF7B9FF03238DF82130002309938C
:10204000236803A99B69204698470AB010BD002366
:102050000693ADF81C30EEE730B58BB0CDE9031236
:102060000193837CBDF804100592012B9DF8062096
:10207000ADF81E1004468DF820204FF000050CD15D
:1020800003A8FFF791FF23688DF821509B690995FC
:1020900003A9204698470BB030BD0695ADF81C50FB
:1020A000F1E7FFFF2DE9F3418C2002F0C2FB04466B
:1020B00002F046FC384B39481C60394C394EDFF889
:1020C0003081394F05F092F8384B29224FF0FF311B
:1020D000204602F0DBFE2046354C3649324608F0F9
:1020E00057FA354A2E21204603F024FA3246334966
:1020F000204608F04DFA0022314C11464046FEF7CA
:10210000D1FC304BC8F80030102003F075FC04F10E
:10211000180201212046FEF7C5FC2B4B236047F631
:10212000FF73E3834FF4004300252384384601F016
:102130002FFE234600952A464146384601F08EFE82
:1021400032462249384608F023FA2148FEF744FC7B
:102150002048214985603246C0E9005508F018FA48
:102160001E4B188807F018FD1D4B002207F0B8FE23
:102170001C4B04460D46C3E9004500221A4B07F0EC
:1021800085FD2B46224607F081FD184BC3E900016F
:1021900002B0BDE8F08100BFC045FF1FC84CFF1F63
:1021A000DC45FF1F3013FF1F8C4CFF1F003CFF1F3F
:1021B000084CFF1F55050000C43AFF1F0908000026
:1021C000A04CFF1FA4AC000098AC0000113F000021
:1021D0000046FF1FF045FF1FB50800003413FF1F26
:1021E00000408F40903FFF1F0000E03F883FFF1FEF
:1021F000C445FF1FF8B52D4D2D4C6B6A1B0651D4FD
:10220000626A12F080024DD172B62A490B78002B17
:1022100046D0AB6BD5F83CE0D5F840C06F6CAE6CE7
:10222000E86C734463443B4433440344C3F34E03B8
:1022300043F40043EB62AB6DD5F85CE0D5F860C0C9
:102240006F6EAE6EE86E734463443B4433440344A4
:10225000C3F34E0343F400432B63A36BD4F83CC099
:10226000276C666CA56CE06C63443B4433442B44A0
:102270000344C3F34E0343F40043E362A36DD4F875
:102280005CC0276E666EA56EE06E63443B443344CB
:102290002B440344C3F34E0343F4004323630A7007
:1022A00062B6F8BD02F008FBA7E700BF00B003402C
:1022B00000B00B40E44CFF1F1E4B60221A70E1225D
:1022C0005A701D4B1D4A19781D4B08291AD121201F
:1022D00090601321D1609860D9601A4B17491B7820
:1022E000174A03B101230B621362174B134A197883
:1022F000134B012911D8802151625962134B0122DD
:102300001A7070470A2901D13920E1E70C290CBF66
:1023100035205D2012219060DCE7042901D884215A
:10232000EAE7082901D88521E6E7102994BF86212C
:102330008721E1E700400740C136FF1F00B003409E
:1023400000B00B40E24CFF1FC236FF1FE44CFF1FE2
:102350000E4A137860B1BBB9012111700C4A127892
:1023600022B10C4A536202F500225362FFF7A4BF68
:1023700053B1074B10701B78002BF7D0054B5862F8
:1023800003F500235862F1E7704700BFE24CFF1FDE
:10239000E44CFF1F00B003400C2817D9102828BFB9
:1023A000102010230E4A181A10700E4A1078984206
:1023B000D9B214D00C4B11701B782BB10B4A0023EF
:1023C000536202F500225362FFF776BF0A2804D851
:1023D00008288CBF0A230823E4E70C23E2E77047B0
:1023E000E34CFF1FC136FF1FE44CFF1F00B003404A
:1023F00010B5144B1B7804460BB1FFF7FBFE012C04
:10240000114A04D800235362104A137010BD042CE3
:102410000F4903D8042353624B62F5E7082C04D814
:10242000052353624B620823EEE7102C95BF062369
:1024300007235362536295BF4B624B6210232023E4
:10244000E2E700BFE44CFF1F00B00340C236FF1FAD
:1024500000B00B404728F8B544D8234B1C5CFF2C38
:1024600040D0224B1B780BB1FFF7C4FE21061BD5D1
:1024700072B61F4D04F0400704F03F04EB68002FD4
:102480002DD023F010031B4EEB6001232C60337022
:1024900062B672B62B681B0612D43378002BEDD0CF
:1024A00062B602F009FAF4E772B6134D134E4FF01C
:1024B00001072C60377062B672B62B681A0607D512
:1024C00000232869337062B60D4B1B781841F8BDA4
:1024D0003378002BEDD062B602F0EEF9ECE743F072
:1024E0001003D0E70020F2E7B0A80000E44CFF1F83
:1024F00000B00B40E14CFF1F00B00340E04CFF1F59
:10250000E34CFF1F08B50B4C636B580301D500F07B
:1025100093FE636B590501D500F008FA636B1A0549
:1025200001D500F0B3FA636BDB04EDD500F05EFB80
:10253000EAE700BF0080044008B5FFF7E3FFFFFFB4
:10254000014B10221A807047002005407047FFFFA2
:10255000094908B5034608685BB16A460344A2F519
:102560000052934206D307F0D1FF0C2303604FF0D3
:10257000FF3008BD0B60FCE7C436FF1FFEE70078A4
:10258000B0FA80F040097047012303707047FFFFE5
:10259000074BDA78802A4FF0000007D1054A064938
:1025A00051645870DA78802AFCD00120704700BF4F
:1025B00000E007400080044000002822074BDA7842
:1025C000012A09D160225A70DA78802AFCD1044BA2
:1025D000044A5A64012070470020704700E0074019
:1025E000008004400000060270B50024B0FBF2F544
:1025F00002FB1506F3B2092E94BF30333733DBB23A
:1026000082420B5502D801342846EFE70B1900220D
:102610005A70481EA51AAA4201DB084670BD10F880
:10262000015F1E780670013203F80159F2E7704726
:1026300000F14040A0F592237C2B12D9A0F5942301
:102640007C2B10D9A0F596237C2B0ED9A0F59823CE
:102650007C2B0CD9A0F59A207C28064888BF002046
:10266000704705487047054870470548704705485A
:10267000704700BF1038FF1FC836FF1F4037FF1FCD
:10268000A037FF1FD037FF1F034B00225A615A604B
:10269000102218605A61704700D003407047FFFF56
:1026A0004FF0E02337B54FF00062C3F804214FF03C
:1026B0008052C3F804214FF00052C3F804214FF0B8
:1026C0008042C3F804214FF00042C3F804212A4994
:1026D0002A4A2823002009244EF6FF7548608D60A1
:1026E000CB604B61CB614B62CB624B63CB634B6482
:1026F000D3605361D3615362D3625363D363536432
:102700000C6001F5805148608D60CB604B610C60BE
:1027100001F5FE2148608D60CB604B610C6050601C
:102720009560D36053611460A2F5E222144CD16A23
:1027300041F40071D162516841F00071516002F5BD
:10274000012247F6FF7150609160D3605361082306
:102750001360FFF7B1FDFFF7A1FF23680093009B13
:10276000132BFAD901F07CF823680193019BB3F590
:10277000967FF9D303B030BD0080034000900B403A
:10278000E84CFF1F3F2810B509D80D4B53F83020F7
:1027900092F880423CB1012311B182F8803010BD23
:1027A00082F80031FBE703EBC0035B681A6819B1DC
:1027B00042F003021A60F2E722F00202FAE700BFD9
:1027C00000A900003F289FBF044B53F8303093F816
:1027D0000002C0B288BF0020704700BF00A90000FF
:1027E0003F2817D8144A02EBC00301295B6852F84E
:1027F000300001D004290ED1012280F880224FF44C
:10280000A2721A601A6804290CBF42F0200222F05A
:1028100020021A607047002280F8802211B94FF41C
:102820008072F6E7022902D140F20312F1E7032990
:1028300008BF4FF48172ECE700A900003F2870B593
:102840000E4630D8042A2ED817498C5C174A02EB62
:10285000C00324045D68296811F4E06101D1FFF729
:10286000BFFF134B134AC3F82C21134AC3F830217E
:10287000124AC3F83421124AC3F83821114AC3F866
:102880003C212846FFF7D4FE68B172B62B6823F4CA
:1028900070232B601C43C5F3840344F0807440F81C
:1028A00023602C6062B670BDF8A8000000A900008B
:1028B000000CFF1F0113FF1FD112FF1FA112FF1FEA
:1028C0007112FF1F4112FF1F72B64FF0E0210B4A39
:1028D0008B691268D1F8041D62B6490102D5322B0A
:1028E00088BF0132C3F52F334FF47A70B42103F25D
:1028F0001F33B3FBF1F300FB02307047E84CFF1FBE
:1029000038B50446FFF7E0FF05466CB1FFF7DCFF82
:10291000401BB0F57A7F02D201F0CEFFF6E7013C12
:1029200002D005F57A75F1E738BDFFFFF0B5DFF8A5
:1029300020C19CF8043013F0300F0CD072B69CF814
:10294000163003F0FF07002B42D19CF807304023DC
:102950008CF8113062B63E48C3781D06DEB227D52A
:1029600003791C0624D53B4A3B4B3C4D17683C4A37
:102970001C782B78D2F800C0DFF808E1E4B2DBB2B3
:10298000A3420DD0591C8F4257D8037900211EF85D
:102990000120D2B2D2B2C271027D072A0B46EFD912
:1029A000DBB22B702A4B1A79100644BF7C22DA70F6
:1029B00071060CD5264B1A79520608D5294A0021F2
:1029C0001170294A126802B111703C22DA70F0BD10
:1029D00062B6264ADFF8B0E0254C9EF80030167843
:1029E000244A1568244A1068DBB2F6B29CF8071036
:1029F0005A1C9542C9B227D9964203D03F2A19D80A
:102A0000A1541346791E11F0FF07EFD1DAB28EF808
:102A100000201A4A116800299DD0B3423CBFAA1B6E
:102A20009B18174A126828BF9B1B934224BF01239F
:102A30000B7090E73F3BC154E3E73F290279A6D9E9
:102A40003F3B1CF80320A4E7002EDBD00022D7E791
:102A500000A006408438FF1F814DFF1F884DFF1FD7
:102A6000844DFF1F404DFF1F3C4DFF1F384DFF1F82
:102A7000F04CFF1F8038FF1F344DFF1FEC4CFF1F31
:102A80007C38FF1F414DFF1F304DFF1FF0B5DFF8B1
:102A900020C19CF8043013F0300F0CD072B69CF8B3
:102AA000163003F0FF07002B42D19CF8073040237B
:102AB0008CF8113062B63E48C3781D06DEB227D5C9
:102AC00003791C0624D53B4A3B4B3C4D17683C4AD6
:102AD0001C782B78D2F800C0DFF808E1E4B2DBB252
:102AE000A3420DD0591C8F4257D8037900211EF8FC
:102AF0000120D2B2D2B2C271027D072A0B46EFD9B1
:102B0000DBB22B702A4B1A79100644BF7C22DA7094
:102B100071060CD5264B1A79520608D5294A002190
:102B20001170294A126802B111703C22DA70F0BDAE
:102B300062B6264ADFF8B0E0254C9EF800301678E1
:102B4000244A1568244A1068DBB2F6B29CF80710D4
:102B50005A1C9542C9B227D9964203D03F2A19D8A8
:102B6000A1541346791E11F0FF07EFD1DAB28EF8A7
:102B700000201A4A116800299DD0B3423CBFAA1B0D
:102B80009B18174A126828BF9B1B934224BF01233E
:102B90000B7090E73F3BC154E3E727290279A6D9A0
:102BA000273B1CF80320A4E7002EDBD00022D7E748
:102BB00000B006409038FF1F094EFF1F104EFF1F48
:102BC0000C4EFF1FE04DFF1FDC4DFF1FD84DFF1FB8
:102BD000904DFF1F8C38FF1FD44DFF1F8C4DFF1FE2
:102BE0008838FF1FE14DFF1FD04DFF1F30B5344B1C
:102BF0001A7992062BD5334C334AD9793348237846
:102C00001268007801339A4298BF00239842C9B2F3
:102C10000BD03F2B8BBF2E4D2E482D68C15484BF47
:102C2000A3F140002954D9B221702B49096871B130
:102C30002A480478A342E0B23CBF121A9B18284AE3
:102C4000126828BF1B1A934224BF01230B701C4A31
:102C5000D3781D06DCB20BD51379180608D5214BA5
:102C60001E491D7808788542C3B211D16C23D370F8
:102C700061060CD5124B1A79520608D51A4A002162
:102C800011701A4A126802B111702C22DA7030BD2C
:102C9000174800685A1C90420AD9272A0AD8154BAF
:102CA0009B5C0748DBB2DBB2D2B2C3710A70DFE7CC
:102CB0000022F4E71048273B0068C35CF1E700BF3F
:102CC00000C00640584EFF1F9838FF1F604EFF1F80
:102CD0005C4EFF1F184EFF1F144EFF1F984EFF1F24
:102CE0009438FF1F914EFF1F684EFF1F644EFF1F59
:102CF0009C38FF1F694EFF1F944EFF1F30B5344BA9
:102D00001A7992062BD5334C334AD9793348237834
:102D10001268007801339A4298BF00239842C9B2E2
:102D20000BD03F2B8BBF2E4D2E482D68C15484BF36
:102D3000A3F140002954D9B221702B49096871B11F
:102D40002A480478A342E0B23CBF121A9B18284AD2
:102D5000126828BF1B1A934224BF01230B701C4A20
:102D6000D3781D06DCB20BD51379180608D5214B94
:102D70001E491D7808788542C3B211D16C23D370E7
:102D800061060CD5124B1A79520608D51A4A002151
:102D900011701A4A126802B111702C22DA7030BD1B
:102DA000174800685A1C90420AD9272A0AD8154B9E
:102DB0009B5C0748DBB2DBB2D2B2C3710A70DFE7BB
:102DC0000022F4E71048273B0068C35CF1E700BF2E
:102DD00000D00640E04EFF1FA438FF1FE84EFF1F43
:102DE000E44EFF1FA04EFF1F9C4EFF1F204FFF1FF2
:102DF000A038FF1F194FFF1FF04EFF1FEC4EFF1FA3
:102E0000A838FF1FF14EFF1F1C4FFF1F30B5344B7A
:102E10001A7992062BD5334C334AD9793348237823
:102E20001268007801339A4298BF00239842C9B2D1
:102E30000BD03F2B8BBF2E4D2E482D68C15484BF25
:102E4000A3F140002954D9B221702B49096871B10E
:102E50002A480478A342E0B23CBF121A9B18284AC1
:102E6000126828BF1B1A934224BF01230B701C4A0F
:102E7000D3781D06DCB20BD51379180608D5214B83
:102E80001E491D7808788542C3B211D16C23D370D6
:102E900061060CD5124B1A79520608D51A4A002140
:102EA00011701A4A126802B111702C22DA7030BD0A
:102EB000174800685A1C90420AD9272A0AD8154B8D
:102EC0009B5C0748DBB2DBB2D2B2C3710A70DFE7AA
:102ED0000022F4E71048273B0068C35CF1E700BF1D
:102EE00000A00E40684FFF1FB038FF1F704FFF1F3C
:102EF0006C4FFF1F284FFF1F244FFF1FA84FFF1FBE
:102F0000AC38FF1FA14FFF1F784FFF1F744FFF1FEB
:102F1000B438FF1F794FFF1FA44FFF1F354B5A686E
:102F2000920230B52BD5344C344AD96834482378D2
:102F30001268007801339A4298BF002398420CD05F
:102F40003F2B89BF2F4D30482D68A3F14000C9B2F7
:102F500094BFC1542954D9B221702C49096871B168
:102F60002B480478A342E0B23CBF121A9B18294AAE
:102F7000126828BF1B1A934224BF01230B701D4BFC
:102F800099680D020ED55B681C020BD5224B2048B8
:102F90001C7803789C42DAB215D1204B0122002024
:102FA000C3E956204A020DD5124B5B685B0209D576
:102FB0001B4A002313701B4A126802B11370174A90
:102FC000C2F8583130BD184C2468531C9C4209D9B2
:102FD000272B09D8154AD25C064CD2B2DBB2E2608C
:102FE0000370DFE70023F5E7114C273A2468A25C61
:102FF000F2E700BF00400C40F04FFF1FBC38FF1F3E
:10300000F84FFF1FF44FFF1FB04FFF1FAC4FFF1FC4
:103010003050FF1FB838FF1F2950FF1F00008843A2
:103020000050FF1FFC4FFF1FC038FF1F0150FF1F44
:103030002C50FF1F30B585B072B6FFF7A9FA154BBB
:1030400070221A70144A5A6080221A701A78120676
:10305000FCD5DC68FFF7B2FA62B6104B9C423CBF6D
:103060000A235C430A2201A92046FFF7BDFA0C4857
:1030700001AA0021054612F8014B0B46013124B18B
:103080000A2920F8024FF6D10B4601335B002B7062
:1030900005B030BD00000240000007418096980056
:1030A0004C39FF1FF0B50C4C0C4E23780C4D43F0FF
:1030B000020706EBC70283F0010350602A782370F1
:1030C000002A14BFC820882040EA014182F0010292
:1030D00046F837102A70F0BDB450FF1F0000FF1FE4
:1030E000B550FF1F431E032B10B510D872B6094A06
:1030F00052F8230048B1416842F823100649048879
:1031000031F81320121B21F8132062B610BD0020E5
:10311000FCE700BFC450FF1F1251FF1F01380328F6
:103120000AD872B6054B53F8203000200BB962B6AE
:1031300070475B680130F9E700207047EC50FF1FD3
:1031400030B472B6174C184A042314F8011B09074F
:103150001DD552F8331069B902EBC301083048603D
:10316000124942F83310124A1378013B137062B6C9
:1031700030BC704743F0010152F831503DB902EBC9
:10318000C103083058600B4B42F83130EBE7043391
:10319000142BDAD162B6064B00221A7030BC00F054
:1031A000CFBB00BF54AB00000000FF1F88004000F1
:1031B0001A51FF1FC8004000421E032A30B52CD808
:1031C000194B400140F01000034472B6174CA05C4C
:1031D000032818D8DFE800F026110214052013F0A8
:1031E000080FA05401F1080209885A6014BFC822D0
:1031F000882242EA01421A600EE008330220EEE71C
:1032000008330420EBE70A480A4B50F822402CB957
:1032100040F8221043F8221062B630BD53F8220065
:103220004160F7E70320DAE70000FF1F0C51FF1FA2
:10323000EC50FF1FFC50FF1F2DE9F74FAA4EAB4B80
:1032400093F880305907DCB21BD5A94B1B78A3B18A
:10325000A84A117801F0FF0321B1013BDBB21370E2
:1032600003B900BEA44A117801F0FF0329B1013B64
:10327000DBB213700BB900F0C1FC9C4B042283F845
:10328000802014F0080100F07782984B9B4C93F853
:1032900090703D09FBB24FEA970840F0F48154F872
:1032A000383004EBC802C3F38303092B526800F0E3
:1032B000C5810CD8013B012B40F2A1818B4B01222F
:1032C00083F89420894B082283F88020B7E70D2BE0
:1032D000F4D110688A4B8B49526844F83830012386
:1032E000894F25613560A5610B7040F2816581B21F
:1032F000A94238607A6021D8B1F5D06F80F05C8146
:10330000B1F5817F00F037810ED8802900F01C8153
:10331000822900F01F81754B0F2283F8C020734B68
:10332000012283F89420C9E740F20233994200F069
:103330003281B1F5A06FEED100233BE142F22105CD
:10334000A942ECD03ED8B1F5086F00F0A380B1F5EA
:10335000106FE0D1664AC0F307431370042554F898
:1033600035301A0605D504EBC5035868083800F057
:10337000E7FA0135142DF2D1644B654DDFF8A8B1A1
:10338000DFF8A881DFF8A8A1DFF8A891009355F82D
:10339000040B00BB49F8040B45F8040CD8F80000F6
:1033A00000BB009B9BF8001043F8040B023948F85F
:1033B000040B2AF8020B009303291ED8DFE801F062
:1033C0001957195742F22123994200F00B8142F21A
:1033D00021339942AFE74168019100F0B1FA0199B8
:1033E0000846D6E74168019100F0AAFA019908461B
:1033F000D6E74FF000038BF80030464B9D420BF1AF
:10340000010BC4D1DFF830B1DFF830A1DFF8308133
:10341000DFF8309100238BF8003018F8012B0AF800
:10342000042B3D4D1307554415D500F06BFA08B336
:1034300004EBC50208305060384A44F8352000F0EB
:1034400061FA45F00102E8B104EBC2012C4B0830EF
:10345000486044F8323045F0020145F0030500228F
:10346000CA4544F8312044F83520D6D164E74FF0FE
:103470000103C0E79BF8002044F8350001328BF8C7
:103480000020DCE744F832009BF8002001328BF882
:103490000020E0E7164A224C12782270FD889D42F7
:1034A00028BF1D46402DA84628BF4FF04008414682
:1034B0002046FFF7F7FDB5EB080702D13F2D7FF659
:1034C0002EAF402F3D46444428BF40252946204684
:1034D000FFF7E8FD2C447D1B02D13F2F7FF61FAF85
:1034E000104B34601D801AE7B850FF1F00200740C2
:1034F0001051FF1F1151FF1F3851FF1F0000FF1F08
:10350000C8004000B550FF1FE450FF1FFC50FF1FD4
:10351000C450FF1FD450FF1F3CDFF8BF880040009D
:10352000BC50FF1FB650FF1F0C51FF1FEC50FF1F78
:103530001251FF1FD450FF1F1A51FF1FC420074014
:1035400054AB0000D42007409F4C002323706370CD
:103550000223A3E702F07F02042A3FF6DCAE9A4C76
:10356000002323706370994B13F822309D07EFD529
:1035700001232370ECE702F07F02042A3FF6CBAE72
:10358000030C7FF4C8AE914911F8223023F00203F6
:1035900001F82230D0E602F07F02042A3FF6BBAEEB
:1035A000030C7FF4B8AE894810F8221041F00201F4
:1035B00000F822101C4671E78549C0F30F4392B210
:1035C0004C68002C3FF4A7AE0888984208D14D887B
:1035D000954205D1000A03280CBF23780B895DE7CB
:1035E0000C31EDE792B2002A7FF4A6AE794B1A684F
:1035F000794B1A60794AC0F3074313709CE6784B05
:10360000188842F22101884214D19B8873B9754B06
:10361000D01D194612F8015B03F8015B8242F9D113
:103620000B68862B02BF704B0F221A7000210846D0
:10363000FFF738FD6D4B44F838303FE63568ADB1E3
:10364000DFF8DC81B8F80070402F3C4628BF4024EA
:103650002146284625443C1BA4B2FFF723FDA8F8C9
:10366000004014B93F2F98BF002535605C4B1A8885
:10367000B2F5A06F7FF422AE00225A709A785C4BAC
:1036800083F898201AE6474604EBC808013DD8F8AD
:10369000041013F00803A1F10800EDB239D000F0D6
:1036A0004FF9544B544953F8250000B3426843F88E
:1036B000252000F10803C8F804304B5D032B05D822
:1036C000DFE803F0020F111303234B5518F0080F26
:1036D000028814BFC823882343EA024344F83730E2
:1036E000F0E50223F1E70523EFE70423EDE74B5D67
:1036F000022B09D07FF6E6AD032B07D018F0080F98
:1037000014BF0323022302E04855DBE501234B5598
:10371000D8E554F837204FEA124C120C21F808CCA7
:1037200018D021F8063C41F8043C3449344B51F898
:103730002520B2B941F82500324A43F8250032F875
:103740001530634422F8153000F0DCF868B1083019
:10375000C8F804002C4A254B18F0080F08BF134680
:10376000BCE753F825205060E6E7284A44F83700C4
:10377000137801331370A5E5E00753D51C4B22489D
:10378000234C022283F89420224A1170224A1060AE
:10379000546090602148D060116191610D2283F8DE
:1037A000C020FF2283F8882083F8802083F89810B7
:1037B00083F88C209F2283F88420012283F89420B0
:1037C00003B0BDE8F08F00BFBC50FF1FC020074012
:1037D00000AB0000E84CFF1F3451FF1F3051FF1FAA
:1037E000E450FF1F2851FF1F1151FF1FC800400068
:1037F00000200740EC50FF1F0C51FF1FC450FF1F5B
:10380000D450FF1F1251FF1F880040001A51FF1FA4
:103810003450FF1FB450FF1F0000FF1F7450FF1FE4
:10382000B650FF1F210606D50C4B0D2283F8C02091
:10383000802283F88020A20708D5084B93F88820BF
:10384000D2B283F88820022283F88020E30642BFA8
:10385000024B102283F88020B2E700BF002007400F
:1038600010B5FFF7E7FB0023224A184642F8330061
:1038700002EBC3010133142B4860F7D11E494B6B97
:1038800043F480234B63A1F56C31C2F30724D1F8D4
:10389000003843F04073C1F8003801F5CA2101F542
:1038A0008071032381F84430A02381F84030134B0A
:1038B00083F89C40C2F30744120E83F8B04083F8AB
:1038C000B420FF2283F8802083F888201A74012214
:1038D00083F89420087083F88420094B702283F8C1
:1038E00035204FF0E0234FF40012C3F804211023D9
:1038F0000B7210BD0000FF1F008004400020074035
:1039000000E400E072B60C480268B2FA82F30B2BB6
:1039100002DD62B6002070474FF00041D94022EA34
:103920000102026062B6054948225343C8180022CA
:10393000CA504260704700BF6439FF1FE00EFF1F8E
:103940000D4BC31AB3F5587F14D20C4A127822B12A
:103950000B4A12780AB1FFF7F3BB72B60949482245
:10396000B3FBF2F34FF0004222FA03F30A68134369
:103970000B6062B6704700BFE00EFF1F1A51FF1FB9
:103980001051FF1F6439FF1F38B5104C236863B115
:1039900020684388C2180133157A02889A4212D8E7
:1039A000FFF7CEFF0023236004E0094B1B781BB90F
:1039B0004FF0FF35284638BD0320FFF793FB20600A
:1039C0000028E5D1F4E74380F4E700BF1C51FF1F56
:1039D0001051FF1F10B50B4C236823B123686BB93E
:1039E0004FF0FF3010BD084B1B78002BF8D00320A0
:1039F000FFF778FB20600028F0D1F1E75A881344E4
:103A0000187AEFE71C51FF1F1051FF1F074B10B52D
:103A10009C88074B1A681AB1138852889B1A1C4459
:103A20000CB900F049FF204610BD00BF1251FF1F26
:103A30001C51FF1F10B5094B1B786BB1084C206857
:103A400018B1FFF77DFF002323600320FFF74AFB37
:103A500010B1FFF775FFF8E710BD00BF1051FF1F51
:103A60001C51FF1F2DE9F84F2E4D2F4FDFF8C4805A
:103A7000012381460C462B700E4616B92E70204647
:103A80000DE03B6833BBDFF8B0A0DFF8A0B098F8DA
:103A9000003003F0FF0223B92A704FF0FF30BDE879
:103AA000F88F0420FFF73AFB072806D801232B7074
:103AB000FFF728FF386068B92870BAF1010A02D010
:103AC0009BF800301BB101238BF80030E5E700F0D4
:103AD000F3FEDCE73968154B00221A704B88C3F1FE
:103AE0004002B24228BF324698180B444880B61AAA
:103AF000073309EB020AD1450ED14B883F2B06D97B
:103B000040230B800420FFF757FB00233B60084B4A
:103B100005221A70D146B0E719F8012B03F8012FDE
:103B2000E9E700BF2151FF1F2451FF1F2051FF1F54
:103B30003851FF1F1051FF1F2148010007B5012117
:103B40008DF807000DF10700FFF78CFF03B05DF85B
:103B500004FBFFFF38B50E4C0E4D012323702B687C
:103B60007BB90D4B1B7813B90020207038BD0420A1
:103B7000FFF7D4FA0728F7D8FFF7C4FE286000281B
:103B8000F2D02B6858880023C0F140002370EDE785
:103B90002151FF1F2451FF1F1051FF1F2DE9F0413C
:103BA000124B1B78A3B1DFF85080114ED8F80040BB
:103BB000104D012737706CB1638800272F702146A4
:103BC00023800420FFF7F8FAC8F800700023337050
:103BD000BDE8F081FFF796FE014620B104202C706D
:103BE000FFF7EAFAF2E72F70F0E700BF1051FF1F6E
:103BF0002151FF1F3851FF1F2451FF1F38B50E4BB5
:103C00001B7803F0FF0543B90C4C216831B14B8898
:103C10000B800420FFF7D0FA256038BDFFF772FE55
:103C2000014620B1BDE838400420FFF7C5BA044B77
:103C300001221A70F1E700BF2151FF1F2451FF1F1D
:103C40003851FF1F4FF0E0230122C3F808227047CC
:103C50000B68036070470B680360704770477047DC
:103C600070477047704703681847FFFF70B572B61A
:103C70001C4D1D4C2A8804F1700604EB8200B042F2
:103C8000034602D362B6002070BD50F8041B09B988
:103C90000132F4E7B1FA81F64FF00040F04021EA3A
:103CA0000001196001B901322A80104A11880131DE
:103CB0008DB2158062B61B1B9A104FF4025041F66C
:103CC0007C7300FB02330A4A02FB0633094A12687E
:103CD0000124D454D018084B1A888A4238BF1D805A
:103CE000D2E700BF7851FF1F7C51FF1F6851FF1FB3
:103CF000FCFEFFFF6451FF1F7051FF1F438872B627
:103D00000278012A03D9013A027062B67047590954
:103D10000B48DB434FF0004203F01F0322FA03F38A
:103D200050F82120134340F82130064B1A888A426C
:103D3000054A88BF19801388013B1380E5E700BF5F
:103D40007C51FF1F7851FF1F6851FF1F30B5C368BA
:103D500003B930BD187A90420AD158685C7A00697C
:103D600050F8245025B940F8241008780130087024
:103D7000DB68EDE7437A8B4288BF02694FF00003AE
:103D800086BF52F8210042F8213018467047FFFFE5
:103D90000022C0E9002202810274024A1168C16057
:103DA00010607047EC51FF1F037C10B5002B49D108
:103DB0000368002B48D04368002B45D0427A5B7AD9
:103DC0009A4243D272B6234B1A68DAB9224B1A6868
:103DD000002A3DD0824226D10268D16861BBD06002
:103DE000C16819600023C360917A01319172012189
:103DF00011724268947A11720C44947201741846DC
:103E000062B60DE0D3680BB95269DEE75C684168C1
:103E10008C4206D15C7A417A8C4202D162B604208F
:103E200010BDDB68EFE702F10C03D268D0E78442F3
:103E300002D162B60620F3E70C46C9680029F6D124
:103E4000E060CDE70120DBE70320D9E70220D7E7D8
:103E50000520D5E76C51FF1FEC51FF1F70B4067CA5
:103E60009DF80C5036B90272457270BCC0E900135F
:103E7000FFF79ABF012070BC7047FFFF037C10B5AD
:103E80000446002B3DD04368427A5B7A9A423AD28C
:103E900072B60268D36813B962B6032010BD9842A7
:103EA000D96827D1D1606368627A1B6953F8220010
:103EB00040B1FFF723FF72B66368627A1B69002185
:103EC00043F822102268937A013BDBB2937203B964
:103ED00013726268937A013BDBB2937203B9137277
:103EE0000A4B00201A682074E2601C6062B6D5E7B5
:103EF000002BD8D01A46DB689C42F9D1E368D36026
:103F0000D1E70120CAE70220C8E700BFEC51FF1F3C
:103F100010B50446FFF7B2FF064B1A681AB1A24269
:103F200003D1E2681A60204610BD02F10C03D2688A
:103F3000F4E700BFEC51FF1F074B1A7852B9074A4C
:103F4000D02182F840104FF0E0220120C2F8080191
:103F500018707047002070477451FF1F00E400E0A4
:103F60004FF0E022F8B5D2F8FC3D174D43F08073D6
:103F7000C2F8FC3D2B6843F001032B60134B6E68C5
:103F80001C686CB9104B124A5B689B1BC3F30F1182
:103F90001180104A1088B0EB131F38BF1180F8BD94
:103FA000237A73B123686F681B68204698476B6853
:103FB000E188DB1BC3F30F12B1EB131FA28038BFE4
:103FC000E2806469DDE700BF001000E06C51FF1F74
:103FD0007251FF1F7651FF1F10B5044650F8083B81
:103FE000DB689847204610BDF0B5B1F5607F28BF6B
:103FF0004FF460718DB005460E4672B62F4B00240B
:1040000018602F4B2F481C802146702206F065FA5D
:104010002C49234601249E423FD1002202354FF411
:104020008271934245D1284B1C78002C32D1082054
:1040300000F0FFFB254E0460802303713368244C9D
:10404000BFF35B8F13F0010F05460ED13046FEF72C
:1040500096FA50B11F4B23601F4B63601F4BA36048
:104060001F4BE3603046FEF78FFA1E4B029302A906
:104070006368009408A8069498471B4A06A9284636
:1040800000F006F906A8FFF7A7FF6846FFF7A4FFB0
:10409000FFF752FF62B60DB0F0BD580903F01F02E2
:1040A00051F8207004FA02F23A4341F8202001331B
:1040B000B1E701FB02F02A520132B2E76451FF1F5F
:1040C0007851FF1F7C51FF1F7451FF1F5051FF1F7C
:1040D0005451FF1F673C0000513C0000573C00005A
:1040E0005D3C0000453C0000FFA70200074B1A683A
:1040F000D2070AD401221A60054B064A1A60064A02
:104100005A60064A9A60064ADA6070473C51FF1FBF
:104110004051FF1F5F3C0000613C0000633C000019
:10412000653C000030B572B6254C89B9016879B19B
:1041300003790F2B0CD822881A41D20708D503F136
:10414000007303F59063B1EB431F01D162B630BD3C
:104150002188002341FA03F212F0010227D1012540
:104160009D402943218062B61649DCB204710D6C72
:1041700045F002050D64CD6B03F1007345F00205B7
:10418000CD6303F59063A1F580215B0140F2824588
:104190000D608C768C770C76CC770360C3E90022B7
:1041A000C3E90222C3E90422C3E90622CFE70133AF
:1041B000102BCFD162B6002202600371C7E700BFA7
:1041C000F051FF1F0080044003790F2B0FD8084ADD
:1041D000937672B60749037901229A400B8823EA45
:1041E00002030B8062B61023037100230360704743
:1041F00000800040F051FF1F70B50B4D0B4E0024A6
:10420000EFF3108272B6286858B143692B6033B15E
:104210009C6102B962B6836844779847F0E73360DF
:10422000F7E702B962B670BDFC51FF1FF851FF1FDE
:10423000FFF7E2BF024A136801331360704700BF03
:10424000E84CFF1F7047FFFF70B505460C4655F858
:10425000083B0646DB68284698472368044A2146FF
:10426000284641F8082B3360BDE870409B6818472A
:104270004051FF1F70B5054D0324182606FB04505E
:10428000FFF7AAFE013CF9D270BD00BF2852FF1F04
:1042900070B5036886B0054616465BB300229A6087
:1042A0000122DA602B68204C1C4451F8083B009333
:1042B00002A85B6898471D4B2411182000FB0430AE
:1042C0006946FFF7C1FF6846FFF786FE2B680322A9
:1042D0001E609A60164B2A79E2543034631103F160
:1042E000382340339B0004F01F04012000FA04F43B
:1042F0001C6016E00F4AD36B43F40003D36300BF86
:104300000D4B01221A6003F580730C4A03602B6881
:1043100098680028C6D0103393422B60F7D900204C
:10432000286006B070BD00BF008FFCBF2852FF1F81
:1043300030E400E000800440007003403F7103401F
:10434000F8B50E4F0E4D3B68BFF35B8F13F0010FB6
:1043500004460E460ED13846FEF711F950B1094B0E
:104360002B60094B6B60094BAB603846084BEB6028
:10437000FEF70AF92560A6602046F8BD5051FF1FE0
:104380005451FF1F673C0000513C0000573C0000A7
:104390005D3C00002DE9F041026886B0074632B36B
:1043A000144E15491644361106F13004631103F119
:1043B000382360339D004FF0010804F01F0408FA11
:1043C00004F42C606846FFF7BBFF0C4B182000FB81
:1043D00006306946FFF738FF6846FFF7FDFD3A688B
:1043E00000239360C2F80C80C5F800413B6006B022
:1043F000BDE8F081008FFCBF454200002852FF1F3E
:1044000050F8083B1B68184708B5044B04480122C4
:10441000C3F80C21FFF7F4FF08BD00BF0070034094
:104420002852FF1F08B5044B04480122C3F81C2181
:10443000FFF7E6FF08BD00BF007003404052FF1FBA
:1044400008B5044B04480122C3F82C21FFF7D8FF1C
:1044500008BD00BF007003405852FF1F08B5044B51
:1044600004480122C3F83C21FFF7CAFF08BD00BF82
:10447000007003407052FF1F08B512491248FFF741
:104480005FFF10491148FFF75BFF0E491048FFF727
:1044900057FF0C490F48FFF753FF0F4A0F49002001
:1044A00006F076F80E4B1A68D2070AD401221A6079
:1044B0000C4B0D4A1A600D4A5A600D4A9A600D4A1B
:1044C000DA6008BD454200002852FF1F4052FF1F1E
:1044D0005852FF1F7052FF1F3013FF1F754200001C
:1044E0003C51FF1F4051FF1F5F3C0000613C00003A
:1044F000633C0000653C0000F8B507460C4669B116
:104500008D180026AC4201D13046F8BD3B6814F846
:10451000011B1B68384698470644F3E70E46F3E74D
:10452000F0B5012A8BB008BF0A22A9B930228DF854
:10453000252021243BB1631E0AAADCB252FA83F380
:104540002D2203F8242C036801A95B68C4F1220220
:10455000214498470BB0F0BD2124B1FBF2F602FBD9
:104560001617FDB2092F04F1280794BF30353735EF
:104570006F44EDB28A4207F8245CDBD8013CE4B218
:104580003146EAE70029BABF49422D2300230A2217
:10459000FFF7C6BF07B540F60D23ADF8043003683A
:1045A00002225B6801A9984703B05DF804FB30B4B0
:1045B00022B9036830BC1B68C9B2184730BCFFF78A
:1045C000AFBFFFFFFFFFFFFF2DE9F04F55EC104B92
:1045D00085B007460E4610EE102A10EE100A2B4644
:1045E000294605F0EDFD40B151493846FCF76CF91C
:1045F0008046404605B0BDE8F08F25F000494D4BA0
:104600004FF0FF322046494605F0DAFD48B9494BE4
:104610004FF0FF322046494605F0B4FD08B946493F
:10462000E3E7464B4FF060422046294605F0BEFDC9
:1046300008B14349D9E7434B4FF060422046294631
:1046400005F096FD0028F4D10022002320462946DB
:1046500005F08EFD002846D005F100431D464FF0C1
:10466000010A0FF2C409D9E9008937494FF0000B5C
:1046700000205FFA8BF39E4237D802460B46204655
:10468000294605F04DF90D46044605F0D7FD534681
:10469000014681460A223846FFF742FF8046002E37
:1046A000A7D0484605F078FA0B4602462946204630
:1046B00005F034F90F2E4FF02E0328BF0F26EA46DF
:1046C0008DF80030B146D34609F1FF395FFA89F918
:1046D000B9F1FF0F10D13B6801365B68F2B2594661
:1046E0003846984785E78246BBE742464B4605F089
:1046F000CDFA0BF1010BBCE70022144B05F0C6FA12
:104700000D46044605F09AFDC0B200F130030AF8E8
:10471000013F05F051FA02460B462046294605F0B6
:10472000FDF8D1E7AFF300809A9999999999B93F2B
:1047300059AB0000FFFFEF7F5DAB0000FFFFEF41D3
:1047400061AB0000FFFFEFC10000E03F000024402C
:1047500010B50446FFF71EFE204610BD0C480D4A5A
:104760000D4908B5002303608023037105F010FF95
:104770000A4B1A68D2070AD401221A60084B094A68
:104780001A60094A5A60094A9A60094ADA6008BD03
:104790008852FF1F3013FF1F514700003C51FF1F7D
:1047A0004051FF1F5F3C0000613C0000633C000083
:1047B000653C00000C4A0D491368002B08BF0B46EE
:1047C0000B4993FBF1F001FB10330A49484344F2D3
:1047D000A71101FB03000028BCBF00F1004000F15D
:1047E000FF301060704700BF9052FF1F24D95B0755
:1047F0001DF30100ECF4FFFF10B5044628B1FFF7EC
:10480000D9FFB0FBF4F303FB1404204610BD88422B
:1048100010B5044603DA081AFFF7EEFF04442046F9
:1048200010BD08B5FCF750FCFCF796FB00F044F80F
:10483000FAE705F073BD05F079BD7047FFF7FAB8E8
:10484000FFF7C8B8FFF7A0B8FFF7E0B8FFF7A6B9C1
:10485000FFF780B908461146FFF704B90846FFF78D
:104860006DB9FFFF114938B50B684BB1EFF3058304
:1048700033B9EFF3108272B6086810B902B962B6A4
:1048800038BD0B4C2578002DF8D1012323704369E6
:104890000B6043B19D6102B962B60025836845771C
:1048A00098472570ECE703490B60F4E7F451FF1FCC
:1048B0000052FF1F0452FF1F2DE9F8431B4C2378C1
:1048C000E3B11B4D2A78CAB90122D9072A700BD54A
:1048D000FFF79CF808B1FFF7B0FF164A237812786B
:1048E00012B123F00103237023789A0718D4002310
:1048F0002B7023785B0701D5FFF7B4FFBDE8F88381
:1049000059F823703B6838461B69984708B13B69E2
:104910009847013698F80020F3B29A42F0D8E6E7BB
:10492000DFF81480DFF814900026F3E77839FF1FD2
:104930009452FF1F58AB00002052FF1F0852FF1F68
:1049400037B50E4B009304460D4B0E4A002100F084
:1049500061FA04F13C050C4B00930C4A0C4B01210D
:10496000284600F057FA02232046C4E91F45C4E94F
:10497000214584F8783003B030BD00BF00B003405B
:1049800090AB000094AB000000B00B40D8AB00002F
:1049900092AB000072B6036B5B0103F1844301220A
:1049A00000214276C3F89C14C3F89824C3F89C24D1
:1049B00062B6704790F821308B4218D0012911D18E
:1049C0000B4B60221A70E1225A700A4B83F8401098
:1049D000036B80F821105B0103F18443C3F80014DA
:1049E000FFF7D8BF0029FBD1014B5970EDE77047A5
:1049F000004007400000FA4290F822308B4230B469
:104A000000F0B380092900F2AB80DFE801F0050572
:104A10002B3947566573979D036B5A0102F1844207
:104A20005B01002403F18443C2F888410122C3F8EA
:104A30001C216122036B5C0104F184445B0103F1DE
:104A400084430025C4F88C5102F00304C3F80041EC
:104A5000C2F340149209C3F80451C3F81441C3F8D7
:104A6000182166E0036B5A015B0102F1844203F1F5
:104A700084430024C2F88841C3F81C416022D9E76E
:104A8000036B5A0102F184425B01012403F1844368
:104A9000C2F888410022C3F81C21EFE7036B5A01DA
:104AA00002F184425B01012403F18443C2F888418E
:104AB0000022C3F81C214022BCE7036B5A0102F11B
:104AC00084425B01012403F18443C2F8884100223F
:104AD000C3F81C212022ADE7036B5A0102F1844286
:104AE00000245B01C2F8884103F184430122C3F82A
:104AF0001C210BE0036B5A0102F1844201245B018B
:104B000003F18443C2F88841C3F81C41036B5A0186
:104B100002F184425B0103F184430124C2F88C4119
:104B20000022C3F80441C3F80041C3F81821C3F8B8
:104B3000142130BC80F82210FFF72CBF036B5A0100
:104B400002F184420024DAE7036B5A0102F1844245
:104B500001245B01C2F8884103F184430022C6E7C7
:104B6000C38A9BB243F00103C38230BC704738B59F
:104B7000437E05460C460BB100F029F82B6B5B0118
:104B800003F18443012C03F5906305D800229A6059
:104B9000134685F8203038BD0122042C9A6004D8D1
:104BA00000225A601A600423F3E7082C04D81A6024
:104BB00000225A600823ECE7102C9BBF00211960EB
:104BC0005A605A608ABF1A6010232023E1E7F8B5C3
:104BD0000446236B5B0103F1844303F59063DA69B8
:104BE000002A3CD19B6923B1E38A9BB243F00203C4
:104BF000E38272B6637E03B3226B936BD76B166C42
:104C0000556C906CD16C3B4433442B4403440B44AF
:104C1000C3F34E0343F40043D362936DD76D166E16
:104C2000556E906ED16E3B4433442B4403440B4489
:104C3000C3F34E0343F40043136362B6A37E00251F
:104C400065765BB120460221FFF7D6FE022100F017
:104C500009F804212046FFF78AFFA576F8BDFFF783
:104C60002BFEB6E738B5437E04460D460BB1FFF781
:104C7000AEFF042D13D8DFE805F0031525354400F9
:104C8000236B5A0102F184425B0103F18443012149
:104C9000C2F810110022C3F88421C3F8802184F8DF
:104CA000235038BD236B5A0102F184425B0101217C
:104CB00003F18443C2F810110022C3F88011C3F835
:104CC0008421ECE7236B5A0102F184425B0101214C
:104CD00003F18443C2F810110022C3F88021C3F805
:104CE0008411DCE7236B5A015B0103F1844302F179
:104CF00084420121C2F81011C3F88411C3F8801155
:104D0000CDE7236B5B0103F184430022C3F810213C
:104D1000C5E738B5C37E8B4204460D461CD0437EA2
:104D20000BB1FFF754FF092D17D90B2D17D90E2DF5
:104D300034BF0C221022236BA2F108015B01C9B21F
:104D400003F18443012903F580730AD80021D96057
:104D50009960FF23E361E27638BD0822EBE70A227F
:104D6000E9E7A2F10A01C9B2012906D80021996038
:104D70000121D96040F2FF33ECE7A2F10C01C9B286
:104D800001294FF001019BBF99600021D960D960D2
:104D90008ABF996040F6FF734FF6FF73DAE7FFFFB3
:104DA00038B5027E194B04465ABBDA6B42F00062FA
:104DB000DA63174B2362236B5B0103F18443002109
:104DC000012584F82810E176E1616176E182617560
:104DD0002046C3F89051FFF7EDFD0A21FFF799FF38
:104DE0002046A5762021FFF7C2FE20462946FFF780
:104DF00003FE2946FFF736FF2046BDE83840FFF79F
:104E0000C9BD1A6B42F000621A63D2E70080044009
:104E10000002040410B54262094AC3620029029BE1
:104E20000363084B017608BF1346436314BF49234D
:104E30002723044680F83830FFF7B2FF204610BD24
:104E400010600340386003407047FFFF38B50C46E0
:104E500005462022002104F1080005F03EFB074929
:104E60000B22204605F00CFB0123E360AB682361B5
:104E700003236361024B236238BD00BF1CAC0000FA
:104E80000AD7233C182205F00EBBFFFF73B5019330
:104E9000094B03600023C0E9013104461020164687
:104EA000FFF7C7FC019A3146054600F0E7F92046B6
:104EB000656002B070BD00BF2CAC00001FB50023C0
:104EC000CDE900338DF80C108DF80D20012302225E
:104ED00003A9406800F003FA05B05DF804FB08B5CB
:104EE0000A4601733D21FFF7E9FFBDE808401E2097
:104EF000FDF706BD70B50D4600210446067BFFF7A1
:104F0000EEFF1920FDF7FCFC002207212046FFF7E9
:104F1000D5FF85B180223F212046FFF7CFFF0A2031
:104F2000FDF7EEFC20463146FFF7D9FFBDE87040A3
:104F30001420FDF7E5BC2A46EDE71FB5012200234A
:104F4000CDE9002303AB8DF80C104068194600F042
:104F500037FA9DF80C0005B05DF804FBF8B504467F
:104F60000E464068002100F0ABF95527606801212A
:104F700000F0A6F9054648B90A20FDF7C1FC013F3B
:104F8000F4D100252846F8BD0A2019E0002120466A
:104F9000FFF7D3FFA02809D04FF47A70FDF7B0FCDB
:104FA00000212046FFF7C9FFA028EAD100212046B2
:104FB000FFF795FF20223F212046FFF77FFF1E20AD
:104FC000FDF79EFC00212046FFF7B7FFA028DBD1AC
:104FD0003220FDF795FC00223E212046FFF76EFFB0
:104FE0000A20FDF78DFC002207212046FFF766FF0F
:104FF00000223F212046FFF761FF0A20FDF780FCD9
:1050000020463146FFF76BFF1420FDF779FCB9E726
:10501000F8B50E463521069F15461C46FFF78DFF55
:105020000EB18309337015B1C0F301132B7014B1A5
:10503000C0F38103237017B100F003003870F8BD8E
:1050400008B53421FFF779FF40B208BD1FB58DF8D0
:105050000C100021CDE90031134603A9012240685C
:1050600000F0AEF905B05DF804FBFFFFF7B50E46A2
:10507000154600211822044605F02FFA002300935C
:10508000ADF80430304606236A462946FFF7DEFFB6
:105090001A2DBDF90000BDF90270BDF904600DD0F4
:1050A00008D80E2D0AD0142D08D0082D21D0204666
:1050B00003B0F0BD282D1CD02E2DF7E704F07CFDA9
:1050C000184B002204F0E2FDC4E90001384604F068
:1050D00073FD144B002204F0D9FDC4E902013046EF
:1050E00004F06AFD0F4B002204F0D0FDC4E9040176
:1050F000DDE704F061FD0C4B002204F0F1FEC4E991
:105100000001384604F058FD074B002204F0E8FE89
:10511000C4E90201304604F04FFD034B002204F0C5
:10512000DFFEE3E70000B03F0000594030B50C4619
:1051300089B0054620220021201D05F0CEF9242348
:105140002360AB6863600323A3600E4B1B6801936D
:10515000019B23611A22294602A8FFF787FFDDE998
:10516000020105F08BF86061DDE9040105F086F8C5
:10517000A061DDE9060105F081F8E061012009B0D8
:1051800030BD00BFE84CFF1F70B50C468EB0064620
:10519000154600212022201D05F09FF924232360BD
:1051A000B3686360344B1B680193019B2361182231
:1051B000002102A805F091F9282D17D10A23A36038
:1051C0002A46314608A8FFF751FF08A902A8FFF7B1
:1051D00059FEDDE9020105F051F86061DDE90401E5
:1051E00005F04CF8A061DDE9060139E0142D11D07D
:1051F00006D8082D0AD00E2D36D001200EB070BD75
:105200001A2D05D02E2DF8D10923D8E70123D6E792
:105210000323D4E70423A3602A46314608A8FFF7F6
:1052200025FF08A902A8FFF72DFE11A3D3E900234B
:10523000DDE9020104F02AFD05F020F80CA3D3E912
:1052400000236061DDE9040104F020FD05F016F89B
:1052500007A3D3E90023A061DDE9060104F016FDF0
:1052600005F00CF8E061C8E70223A8E7AFF300807F
:10527000000000A046DF913FE84CFF1F4260002283
:10528000027220220170C2607047037A10B5044692
:1052900083B1227863680121520083F8A32083F848
:1052A0002E1183F82D11606801F034FEB0FA80F001
:1052B000400910BD012100F003F80028E9D1F8E70A
:1052C00038B5044640680D4601F0F2FC012020721A
:1052D00025B12046BDE83840FFF7D7BF38BD2DE9DE
:1052E000F0418846DDE906161F46C368154632447C
:1052F0009A42044602D90020BDE8F0810278436852
:10530000520083F8A320012283F82E2183F82D2157
:105310007EB9606803682A465B68414698478542C3
:10532000E9D16068394601F0F5FDB0FA80F0400936
:10533000E2E7406803685B680029EAD03246984794
:105340008642D8D1E5E72DE9F041144605460F46DF
:10535000D2B20178406801F04FFE84420ED100269F
:10536000B44206F1010802D80120BDE8F081686866
:1053700003685B699847B8554646F1E70020F4E7B3
:105380002DE9F84307468846164699460025B5425A
:1053900002D30120BDE8F883FB68741B9C4228BF40
:1053A0001C46331BAB4294BF4B460023224608EBFE
:1053B00005013846FFF7C7FF0028EBD02544E6E794
:1053C00073B51D460023CDE900339DF81C30069EC1
:1053D0000446FFF784FF40B10123324629462046A8
:1053E00002B0BDE87040FFF7CBBF02B070BDFFFF59
:1053F000F0B5002A134E144F14BF4FF060544FF015
:105400006454002236F8025BB7FBF5F5A94211D3CC
:10541000190714D40D495B0751F8222007D522F44F
:105420007043120902F4706244F000741A4322437C
:105430000260F0BD0132172AE4D11622E8E744F0F9
:105440008064E7E798AD000000879303C8AD0000D3
:1054500010B50446FFF7CCFF204610BDC37A30B527
:1054600073B372B6C37ADD0708D54FF0E024C56880
:10547000D4F880212A40C261C4F880219C0708D555
:105480004FF0E0240569D4F884212A400262C4F870
:1054900084215A0708D54FF0E0244569D4F88821C3
:1054A0002A404262C4F888211B0708D54FF0E02249
:1054B0008469D2F88C3123408362C2F88C3162B6A1
:1054C0000368DA688A4207D0044A1A60D960044A3D
:1054D00041F0804119611A6030BD00BF01403F00BA
:1054E00000003F80C37ADBB1DA0742BF4FF0E02211
:1054F000C169C2F80011990742BF4FF0E022016A6A
:10550000C2F804115A0742BF4FF0E022416AC2F8C4
:1055100008111B0742BF4FF0E023826AC3F80C2139
:105520007047FFFF014B024A1A6070479852FF1FF5
:105530000320003873B504460E461146154600F0A8
:1055400069F82046094B40F8143B0322522300958A
:10555000102100F085F94022002104F1440004F0FC
:10556000BCFF204684F8406002B070BD3CA700003C
:10557000F0B5194B19491B78194F012202FA03F3B0
:105580000B6018490E78184902FA06F60E601749A2
:105590000D78174902FA05F50D6016490C78164981
:1055A00002FA04F40C6015490878154902FA00F073
:1055B00008601449097802FA01F13960124F334347
:1055C0003F782B432343BA400343104F0B4313430D
:1055D0003A600F4A1360F0BD7F39FF1FB852FF1FBA
:1055E0009C52FF1F7B39FF1FA852FF1F7C39FF1FF2
:1055F000AC52FF1F7D39FF1FB052FF1F7E39FF1FC6
:10560000B452FF1F7939FF1F7A39FF1FA452FF1FC1
:10561000A052FF1F10B500224260C2604274044ACB
:10562000044C0460002918BF0A46826010BD00BF08
:105630008839FF1F48AC00002DE9FF47BDF83460F2
:105640009DF830808DF80C101F464FF0000A3C2367
:1056500004468DF80D205E43D146C24501D301209A
:1056600013E0A8EB0A0294F91030202AA8BF2022E8
:105670000133D5B20ED1CDE90099E06801230222B1
:1056800003A9FFF72CFE58B9002004B0BDE8F0874D
:10569000FFF712F9207CFDF795F80028F8D0EAE72B
:1056A00016B13346013BFDD194F9103001330FD1CF
:1056B000E06801232A4607EB0A01FFF761FE002894
:1056C000E2D00AEB05025FFA82FAC6E7FFF7F4F8C8
:1056D000207CFDF777F80028F8D0E9E71FB5437C78
:1056E000552B18D10239C9B2032918D80731022322
:1056F0004FF4FA72CDE90032CAB203AB0921FFF7C9
:105700009BFFBDF80C40012064BAA4B2FDF7F8F885
:10571000204604B010BD7C33DBB2052BE5E7002446
:10572000F6E730B51D4690F9103085B001330446D8
:105730008DF80C108DF80D200ED10223019303ABD0
:1057400000939DF82020E06801232946FFF7C7FD5C
:1057500005B030BDFFF7B0F8207CFDF733F8002826
:10576000F8D0EAE71FB5437C552B13D10439C9B2F1
:10577000032916D849B2130A8DF80D3003238DF88A
:105780000C108DF80E200093022203AB0821FFF7C6
:10579000C8FF06E07C33DBB2052B02D849B20029F2
:1057A000E9DA05B05DF804FB1FB58DF80F30012371
:1057B00000930DF10F03FFF7B4FF05B05DF804FB94
:1057C00008B505220B460221FFF7EEFF0120FDF789
:1057D00097F8012008BD10B500238AB00139DCB26A
:1057E0000133CA5C42B9009402AB05220221FFF7E3
:1057F00098FF20460AB010BD28346C4404F8202CD1
:10580000EDE71FB5447C552C25D10439C9B20329D5
:105810001FD8102B1DBFC2EB02427F32FF23130A99
:1058200018BFB2FBF3F249B218BFC2F30723C9B2E3
:105830008DF80D304FF003030CBF8DF80C108DF870
:105840000C108DF80E200093012203AB0821FFF706
:1058500068FF04B010BD7C34E4B2052CD8E7FFFF2C
:10586000F8B504460F4606991D461646FFF7D2FEC8
:105870000020054B2075E076E06160622360E782DE
:10588000A67625852046F8BD70AC000010B504460C
:10589000C06908B104F04AFD204610BD70B5002172
:1058A0000446FEF767FAC0B1B4F91E20B4F92030FF
:1058B000011D00F5827631F9025BAA42A8BF2A4693
:1058C000AB42B8BF2B46B142F5D123840123E2831A
:1058D0002377BDE87040FEF711BA70BD30B5154BA7
:1058E0001A681979144B1269D977144B9A420AD263
:1058F000134A127822B14FF0E0220121C2F80812B7
:1059000003F1800101E01946803B0E4A126882B122
:105910000D4C2088402828BF402000F1400502EBB4
:1059200040022580023233F8020B22F8020F99421E
:10593000F9D830BDC452FF1F00800040600EFF1F29
:10594000C252FF1FBC52FF1FC052FF1F2DE9F04182
:105950000546FEF78BF972B61F4A11887F290DD8CC
:1059600020B11E4C216821B92060118062B6BDE8CB
:10597000F08162B6BDE8F041FEF7C0B917490023D7
:105980000C681380086062B6154F164E3B6830688D
:10599000DFF854C0211D04F5827E0A888046A3EBFF
:1059A0000803900303EB823282FB0C384FEA88082D
:1059B00048EA937323F38F3212B221F8022B714518
:1059C000EBD13060A4F802212846002221463B603A
:1059D000FEF7BCF92046CDE7C052FF1FBC52FF1FA7
:1059E000D052FF1FCC52FF1F00B0FB3F10B5044642
:1059F000FEF7EAFB204610BD10B504461020FCF768
:105A0000CBFC0220FCF7A4FC0420FCF7F1FC2046B0
:105A1000FCF720FD384B03EA8030384B1860384BD8
:105A200000221A60374BDB6B5B0212D5364B1968CC
:105A300048F6A2728A430CD1596840F24F52914203
:105A400007D1DA68012A04D11A6940F201139A4297
:105A500012D02C4AD36B43F48003D3632A4B012228
:105A6000DA6040F24F525A6048F6A3721A60274A31
:105A70001A6040F201121A61254A264C136A43F05B
:105A80004403136201212046FEF74CFB2368224A9F
:105A90001A60224A224818610221C3E90121998231
:105AA0008021D9820022D9836FF0FF0006219983DB
:105AB000DA609861237903F1804303F504331A70A7
:105AC000A8221A70FEF738FA164B22791870164B76
:105AD0001648DA7602F11001154B43F821005311F4
