:1000000000000320D1010000D9240000A524000035
:10001000A5240000A5240000A5240000A5240000BC
:10002000A5240000A5240000A5240000D924000078
:10003000D9240000A5240000B5410000B94100000A
:10004000D9240000D9240000D9240000D9240000BC
:10005000D9240000D9240000D9240000D9240000AC
:10006000D9240000D9240000D9240000D92400009C
:10007000D9240000D9240000D9240000D92400008C
:10008000D9240000D9240000D9240000D92400007C
:10009000D9240000D9240000D9240000D92400006C
:1000A0005D6E0000696E0000D9240000D9240000B4
:1000B000D9240000D9240000D9240000B128000070
:1000C000D9240000112A0000D9240000712B00005F
:1000D000D9240000812C0000D9240000D92400007C
:1000E000D9240000D9240000D92400008D5B000031
:1000F00049680000095C0000D9240000D9240000F0
:100100008D430000A9430000C5430000E143000007
:10011000C1660000BD310000D9240000D9240000D0
:10012000D9240000D9240000A5590000D9240000DA
:10013000D9240000D9240000D9240000D9240000CB
:10014000E53E0000D9240000912D0000D9240000D4
:10015000D9240000D9240000D9240000D9240000AB
:10016000D9240000D9240000756E0000D9240000B5
:10017000D9240000D9240000D9240000D92400008B
:10018000D9240000D1780000D9240000D92400002F
:10019000D9240000D9240000A12E0000D924000099
:1001A000D9240000D9240000D9240000816E000069
:1001B000D9240000D9240000D9240000D92400004B
:1001C000D9240000D9240000D9240000D92400003B
:1001D0005F4B4CF2205210B5DA814DF62812DA81CD
:1001E00000BF00BF02F07CF95A4B5B484FF0306211
:1001F0001A635A4A9A635A4ADA634FF0E0234FF47B
:100200007002C3F8882D03F5E823564A1A60564B4E
:100210009A78110742BF9A7842F008029A70534BBD
:10022000AA221A70524BDA1C121AC11E22F00302C3
:10023000994288BF00224F4909F0F8FF4E4B4F48C2
:10024000DA1C121AC11E22F00302994288BF002252
:10025000002109F0A6FF4A494A484FF4E87209F024
:10026000E5FF494B494A802103F8011B9342FBD12A
:100270004FF0E023434AC3F8082D454B8A221A70F9
:10028000A3F5805324225A70A0221A709A799207FB
:10029000FCD59A79D406FCD43E4A937903F00C033A
:1002A000082BFAD1314B60225A70DA78802AFCD1BF
:1002B000384B01221A715D225A719A799006FCD549
:1002C0009A795106FCD5234A33495164002191643F
:1002D000202119702F498B7903F00C030C2BFAD1D4
:1002E0002E4B53602E4A136913F4807302BF53617F
:1002F0004FF4A85313614FF0E0232A4A5A610022B9
:100300009A6107221A61284AC3F8202D62B602F0CA
:1003100097F9234B5B69DA0705D5244802F084F985
:10032000234B244ADA61244B1B785B0609D5204C09
:10033000204BE2699A4204D11C4802F075F900236F
:10034000E36102F0D3F809F04BFF04F02EFAFEE768
:1003500000200540008004404012FF1F823F04003F
:100360000100002B0300008500D0074000E007409B
:10037000D03EFF1FE0B00000485BFF1FD03EFF1FD4
:1003800000000000000CFF1F00E400E064E400E057
:10039000005006400040064000000602C010070062
:1003A00000D003401FBF020000002020000000001A
:1003B00000E00340A5C3945A00F00740FFFFFFFF91
:1003C000FFFFFFFFFFFFFFFFFFFFFFFFFFFFFFFF3D
:1003D000FFFFFFFFFFFFFFFFFFFFFFFFFFFFFFFF2D
:1003E000FFFFFFFFFFFFFFFFFFFFFFFFFFFFFFFF1D
:1003F000FFFFFFFFFFFFFFFFFFFFFFFFFFFFFFFF0D
:10040000FFFFFFFFFFFFFFFFFFFFFFFFDEF9FFFF23
:100410000548064B1B1AD90F01EBA301491002D066
:10042000034B03B118477047D03EFF1FD03EFF1F5C
:100430000000000008B5054B1BB105490548AFF3A6
:100440000080BDE80840FFF7E3BF00BF00000000E8
:10045000D03EFF1FE0B0000010F040021ABFC343BF
:10046000DBB2034610B503F00F0102B101310A4CB3
:10047000C3F3011304EB430214F81330527812FB58
:1004800001F203EB2213DBB2020644BF5B42DBB294
:1004900083F0800010BD00BF3CA50000406970479C
:1004A00013B500230A460168ADF800308DF802301C
:1004B000ADF804308DF806300C68019B6946A04702
:1004C00002B010BD00207047704770477047FFFFB3
:1004D0002DE9F8430368DFF84C909B68DFF848800B
:1004E0000546984700244B46D3ED000A2B68214669
:1004F000DB68B0EE600A2846984704EB440708EB37
:100500000706C0F30723013408F80700B4F5007F9D
:100510007370C0F3074309F10809B370E3D1BDE874
:10052000F88300BF4417FF1F0446FF1F024A002341
:100530001380024A13707047EC45FF1FBE36FF1F41
:10054000014B00221A707047BE36FF1F7047FFFF35
:100550000A4A138830B40A4C03EB43002118FF25E4
:1005600025540020487088700133C3F3080330BC61
:100570004FF4FA70138002F085B900BF843FFF1F6B
:100580000446FF1F2DE9F04F2E4BDFF8C0B01B686B
:1005900087B003220593059DB5FBF2F5ADB205F5D5
:1005A000A85A05F16E060AF1180AB6B24FF0000912
:1005B0001FFA8AFAB5FBF2F25FFA89F4C4F101037B
:1005C0005BB2013C14EA230438BF1C4664B2182312
:1005D000C4EB042494FBF3F41B4BB42101FB09335B
:1005E0002F4633F8028BB8F57A7F1DD03146384656
:1005F000CDE9022307F0FAF8001B20EAE07008EBCF
:100600004801C0B20BEB0108019106F01DFE0199F3
:10061000DDE902230BF80100C0F30721C0F3074016
:1006200088F8011088F802003C37BFB25745D8D18E
:1006300009F10109053EB9F1160FB6B2BCD107B0F8
:10064000BDE8F08F644CFF1F4627FF1F0446FF1FC5
:10065000D0ED017A30EE670ADFB5F0EEC07A0446DD
:1006600017EE900A09F01EF923A3D3E900230646EA
:100670000F4609F0E1FB98B3237A8DF80430324637
:100680003B461DA1D1E9000108F0ACFF184B002248
:1006900009F060F902460B460020164908F0A2FF57
:1006A00009F030FCC8238DF8050002A901A88DF8D7
:1006B000063006F0ECFD029BADF80C301B0C8DF8FB
:1006C0000E309DF80C30002063F307009DF80D30CC
:1006D00063F30F209DF80E3063F3174004B0D0BDD4
:1006E000ADF80C008DF80E00EBE700BFAFF3008013
:1006F00000C08240000069409A9999999999C93F30
:100700002DE9F04F1E4B1F4F1B6885B00026039349
:10071000039D07234FF0360AB5FBF3F5C5F38D09AA
:1007200005EB0613DBB2BB4600244FF0FF083BF895
:10073000021B0191B1F57A7F16D018460093FFF79E
:100740008BFE0199104B8DF809800AFB049C6044D4
:10075000401001EB41018DF80800194402A88DF802
:100760000A8006F094FD009B01345A2CDFD101363B
:10077000162E07F1B407D3D105B0BDE8F08F00BF46
:10078000644CFF1F4627FF1F0446FF1F73B51A4A1C
:100790001A4C137801330025137020464FF40043A0
:1007A00001AA8021ADF80430FF268DF8065006F02E
:1007B0003DFD01AA04F5C0708021ADF804608DF8FC
:1007C000065006F033FD01AA04F540707F21ADF814
:1007D00004508DF8066006F029FD4FF6FF7301AA5C
:1007E000812104F27D40ADF804308DF8065006F00A
:1007F0001DFD02B070BD00BF863FFF1FC03FFF1F41
:1008000013B5114B1B680193044601984FF4AF13C5
:100810005843000EFFF720FE40F3170009F030F8B0
:1008200007A3D3E9002309F0BFF909F08BFB237A72
:1008300060600133237202B010BD00BFAFF30080CF
:100840000000000000E06F40644CFF1F08B503F09B
:10085000F7FF0A4B1B7803F0FF006BB1084B1878C9
:1008600010F0010008D0074B1868074B1B68C01A2E
:100870000E2894BF0020012008BD00BF8C50FF1F30
:10088000AC50FF1F644CFF1FB050FF1F00230A2213
:1008900003F052BE10B50446006818B1A168091AE9
:1008A00003F08DFF204610BD13B50446084659B12C
:1008B000019109F0C9FC236801995B680246204652
:1008C00002B0BDE81040184702B010BD10B5044694
:1008D000FFF7EAFF2046BDE8104003F020BE08B550
:1008E000FFF7E2FF08BDFFFFF7B52C4942680B6830
:1008F0000093009B9B1A182B4ED972B6284A137F7F
:1009000003F0FF040BB10023137762B6002C43D031
:100910000B680193019B436072B647F6FF70B2F912
:100920001E30D0834FF40040B2F92010108462B61C
:10093000002B81EAE172B8BF5B42A2EBE1729BB28D
:1009400092B29342B8BF134607EE903A9FED157AE4
:10095000154E164FF8EEE77A0025C7EE877A17EEA8
:10096000900A08F09FFF124B002208F0F3FF09F0F5
:10097000A1FA104904460D48FFF7B1FFA54205DB77
:100980000A4803B0BDE8F04003F0C9BD314638461F
:10099000FFF7A5FF0135F1E703B0F0BD644CFF1F81
:1009A0001C4CFF1F00FEFF461AA300006839FF1F02
:1009B00000003E4018A30000034B82B01B68019367
:1009C000019B036002B07047644CFF1F2DE9F043A8
:1009D000274C2368BFF35B8FDB0785B009D4204623
:1009E00001F09DFD28B12348FFF7E6FF204601F006
:1009F0009BFD21491F4A0B680293029B10681B1A3A
:100A0000132B31D90B681D4F0393039B13603B7865
:100A10001B4D02333B7000242E464FF0F0094FF07F
:100A200096083B788DF8059004EB84021344294620
:100A300001A801348DF804308DF8068006F027FCFB
:100A4000B4F5007F05F10305EBD10324FF254FF436
:100A50000071002003F09FFE00EB40003318013CC2
:100A600035545D709D70F2D105B0BDE8F08300BFD4
:100A70007C3FFF1F803FFF1F644CFF1F783FFF1F1D
:100A80000446FF1F10B504460D4B2360002310469B
:100A90006172226123728A00E360194609F081FBCA
:100AA000084A136833B91460002363616360A3725A
:100AB000204610BD1A465B69002BFBD15461F3E759
:100AC000ECA30000E850FF1F034B82B01B680193AA
:100AD000019B036002B07047644CFF1F13B5084AC6
:100AE000016812680192019A4368521A934294BFB6
:100AF0000124002401D8FFF7E7FF204602B010BD13
:100B0000644CFF1F2DE9F7435D4A5E49136800936B
:100B1000009B0988044680681B1A994253D81368C1
:100B20000193019BA3601A2204F12801564804F0A6
:100B3000EFFA282204F14C01534804F0E9FA0822A4
:100B400004F17001504804F0E3FA206E08F0AAFEA8
:100B50004E4BD3E9006732463B468046894608F053
:100B6000F9FE02460B46D4E9040108F03DFDC4E954
:100B70000401606E08F096FE32463B4608F0EAFE3D
:100B800002460B46D4E9060108F02EFDC4E9060131
:100B9000E06B08F087FE3E4BD3E9002308F0DAFE55
:100BA00041EC100B07F064FB3A4B57EC106BD3E9A8
:100BB00000234046494608F0CDFE32463B4608F049
:100BC000F3FFC4E90801344D2B68BFF35B8FDB07EB
:100BD0000CD4284601F0A3FC40B1304E3046FFF75C
:100BE00073FFFA237360284601F09EFC2B48FFF741
:100BF00075FF002840D02A492A48FFF770FEE06BB5
:100C000008F050FE41EC100B0221264803F0A0FC36
:100C1000244803F084FC24492248FFF760FE23495E
:100C20002048FFF75CFE206E08F03CFE41EC100B04
:100C300002211C4803F08CFC1D491A48FFF74FFEA7
:100C4000606E08F02FFE41EC100B0221154803F0F6
:100C50007FFC18491348FFF742FEA06E08F022FE01
:100C600041EC100B02210F4803F072FC0D4803B059
:100C7000BDE8F04303F053BC03B0BDE8F08300BF10
:100C8000644CFF1F3413FF1FDC45FF1F883FFF1F0D
:100C90003813FF1F903FFF1F6C3FFF1F703FFF1F68
:100CA0001CA300006839FF1F26A3000032A3000028
:100CB00036A300003AA3000002484FF4C0620021AE
:100CC00009F06FBA0446FF1F10B5054C0D202178BE
:100CD00001F028FD2378013B18BF0123237010BDCC
:100CE0004013FF1F70B51949194D04461948FFF705
:100CF000F6FD21461748FFF7C9FD164803F00FFC23
:100D000064B2154B2A781A70002C2C70134C05DA3B
:100D1000D4E900239B1A9B10013B2B70104B00223F
:100D20001A80104A012313700F4A1370FFF7C4FF93
:100D30000E48017806F01AFA236895F9002053F856
:100D400022000368BDE870401B6818473EA30000FE
:100D5000EE45FF1F6839FF1F404CFF1FF045FF1F86
:100D6000EC45FF1FBE36FF1FBF36FF1FAC57FF1FEE
:100D7000094B0A4A1B781844D2E9002340B29B1A57
:100D800000284FEAA30302DA013B58B270479842A9
:100D900028BF0020704700BFEE45FF1FF045FF1F32
:100DA00008B5FFF7E5FFBDE80840C0B2FFF79ABFFE
:100DB000F0B50A490A4D0B4C002335F8022B03EB22
:100DC000430002EB420227188E18205A8852013342
:100DD000BA78B270B3F5007FEFD1F0BDC03FFF1F0E
:100DE0004213FF1F0446FF1F10B502F0D1FD00287B
:100DF0001FDD02F08BFDC0B26E2804D10120BDE8DA
:100E00001040FFF7CDBF622802D14FF0FF30F6E768
:100E1000084C09492368094801332360FFF75FFD47
:100E20002168064803F073FBBDE81040034803F057
:100E300076BB10BDA43FFF1F4DA300006839FF1F04
:100E400010B5094C94F90000431C04D0C0B2FFF760
:100E500049FFFF232370054C94F9000018B1FFF7F8
:100E60009FFF0023237010BD4427FF1F044CFF1F6A
:100E700038B5064C064D2188284603F048FB284625
:100E800003F04DFB0023238038BD00BFFC45FF1F4E
:100E90006839FF1F1FB5002303930DF10F03009363
:100EA0001C480DF10E030DF10D0203A904F074F8B6
:100EB0009DF80C301BB918491848FFF710FD184968
:100EC0001648FFF70CFD9DF80C101448FFF7DEFCE8
:100ED00014491248FFF703FD9DF80D100F48FFF766
:100EE000D5FC11490D48FFF7FAFC9DF80E100B4890
:100EF000FFF7CCFC0D490948FFF7F1FC9DF80F10F6
:100F00000648FFF7C3FC054803F009FB05B05DF890
:100F100004FB00BFDC45FF1F52A300006839FF1F20
:100F20006FA3000074A3000078A300007CA300005E
:100F300038B5FFF785FF384B1B780BB1FFF7BCFEC8
:100F4000364B93F90020364B1B6853F82200036898
:100F50005B689847334B1B782BB1FFF729FF32486A
:100F6000017806F003F9314A314C138801331380BC
:100F70002368BFF35B8FD9070DD4204601F0CFFA69
:100F800048B12C4D2846FFF79FFD4FF47A736B60F4
:100F9000204601F0C9FA2748FFF7A0FD08B1FFF786
:100FA00093FE254C2368BFF35B8FDA070CD42046F1
:100FB00001F0B5FA40B1214D2846FFF785FD6423C5
:100FC0006B60204601F0B0FA1C48FFF787FD08B1BE
:100FD000FFF70AFF1A4C2368BFF35B8FDB070DD4C2
:100FE000204601F09CFA48B1164D2846FFF76CFDEB
:100FF0004FF47A736B60204601F096FA1148FFF7C0
:101000006DFD08B1FFF734FF0F4B188818B1BDE82C
:10101000384001F037BC38BDBE36FF1FEE45FF1F1C
:10102000F045FF1FBF36FF1FAC57FF1FFC45FF1FDA
:10103000983FFF1FA83FFF1F9C3FFF1FB03FFF1FB0
:10104000A03FFF1FB83FFF1FEC45FF1F0023C0E973
:10105000013343614FF0FF33C36003820123837484
:10106000054B1A6802B91860044B1A6802B1906007
:101070001860034B03607047C057FF1FC457FF1F22
:1010800090A40000814210B51346A1EB000405D0E6
:1010900001462246184609F06AF80346181910BDA1
:1010A0002DE9F041042088B003F087FBB04B0360CA
:1010B0000090042003F081FBAE4B036001900C20F4
:1010C00003F07BFB002343600025AB4B03600572FC
:1010D0000290042003F071FBA84B036003900420EE
:1010E00003F06BFBA64B03600490082003F065FB44
:1010F000A44B4560044640F8043BFFF75DFC982094
:10110000059403F05AFB98220446294609F049F851
:1011100020469D4B40F8083BFFF74EFC9B4B23605D
:101120000420069403F049FB994C9A4B2268036013
:10113000A36807909B1A1F2B00F2D580202003F094
:101140003CFB08A9024605466846FFF79BFF20685E
:1011500018B1A168091A03F032FB25602035C4E9F3
:1011600001558D4DFFF772FB28B92B680093009B4A
:10117000B3F5FA6FF6D92E68884F40F2EE28FFF7E4
:1011800065FB002800F0C88085498648864EFFF739
:101190009DFB86498348FFF799FB3568BFF35B8F5A
:1011A00015F001050DD1304601F0B9F948B1804F75
:1011B0003846FFF74BFF7F4B3B60BD61304601F087
:1011C000B3F97D4E7D497A480023802205F082FFE5
:1011D0003568BFF35B8F15F001050DD1304601F086
:1011E0009EF948B1764F3846FFF730FF754B3B60AC
:1011F000BD61304601F098F98023734E6F49704805
:101200001A4605F067FF3568BFF35B8F15F00105DF
:101210000DD1304601F083F948B16C4F3846FFF7E5
:1012200015FF6B4B3B60BD61304601F07DF9694EA7
:10123000624966487F234FF4807205F04BFF3568A2
:10124000BFF35B8F15F001050DD1304601F067F952
:1012500048B1614F3846FFF7F9FE604B3B60BD6116
:10126000304601F061F955495B48812340F27F1215
:1012700005F030FF5A4B5B4ADA6046F2A8129A60DA
:101280005949484819221A70FFF720FB00211820FD
:1012900001F068FA5548182105F034FE54494148D8
:1012A000FFF714FB53480C2103F01CFE002840D12B
:1012B00051493C48FFF713FB5048082102F056FE05
:1012C00001210D2001F04EFA0021242001F04AFAFC
:1012D0000A2001F0D7FA2368186803681B6808B071
:1012E000BDE8F04118476568AD1A1F2D09D908A956
:1012F0006846FFF7C7FE636898423FF432AF60600C
:101300002FE76D4429466846FFF7BCFE626808A9CE
:101310002846FFF7B7FEF2E72B683A789B1B32B1FD
:10132000B3F5FA6F3FF630AF03F08AFA27E743458B
:10133000F8E733491B48FFF7C9FAC82001F0A2FAC1
:101340002C4803F041FE2F4905461648FFF7C7FA1F
:101350002946144803F0DBF82B491248FFF7B6FA88
:101360002448012103F08AFDFFF794FDA4E700BFA4
:1013700030A4000050A4000008A4000040A4000015
:1013800020A4000080A40000F8A3000070A40000C6
:10139000F045FF1F60A40000644CFF1F8C50FF1F2E
:1013A00080A300006839FF1F4C3FFF1F8BA3000084
:1013B000503FFF1FB4A400002C3FFF1FC03FFF1F82
:1013C000303FFF1FD8A400000C3FFF1F103FFF1F3E
:1013D000FCA40000EC3EFF1FF03EFF1F20A5000014
:1013E000AC57FF1F4578000094A30000444CFF1F3A
:1013F0009FA30000DC45FF1FABA300000002FF1FFE
:10140000BFA30000D0A30000DEA3000010B5102190
:10141000044603F0D4F9204610BD006810B10368FB
:101420005B6818477047FFFF684B10F0800F4FF460
:1014300080414FF0020214BF59609960C3F8C42084
:1014400000BF00BF00BF00BF00BF00BF00BF00BFA4
:10145000C3F8C82000BF00BF00BF00BF5B4B10F047
:10146000400F4FF480414FF0020214BF5960996061
:10147000C3F8C42000BF00BF00BF00BF00BF00BF53
:1014800000BF00BFC3F8C82000BF00BF00BF00BF3F
:101490004E4B10F0200F4FF480414FF0020214BF6A
:1014A00059609960C3F8C42000BF00BF00BF00BFEF
:1014B00000BF00BF00BF00BFC3F8C82000BF00BF0F
:1014C00000BF00BF414B10F0100F4FF480414FF0B0
:1014D000020214BF59609960C3F8C42000BF00BF66
:1014E00000BF00BF00BF00BF00BF00BFC3F8C820DF
:1014F00000BF00BF00BF00BF344B10F0080F4FF417
:1015000080414FF0020214BF59609960C3F8C420B3
:1015100000BF00BF00BF00BF00BF00BF00BF00BFD3
:10152000C3F8C82000BF00BF00BF00BF274B10F0AA
:10153000040F4FF480414FF0020214BF59609960CC
:10154000C3F8C42000BF00BF00BF00BF00BF00BF82
:1015500000BF00BFC3F8C82000BF00BF00BF00BF6E
:101560001A4B10F0020F4FF480414FF0020214BFEB
:1015700059609960C3F8C42000BF00BF00BF00BF1E
:1015800000BF00BF00BF00BFC3F8C82000BF00BF3E
:1015900000BF00BF0D4B10F0010F4FF480414FF022
:1015A000020214BF59609960C3F8C42000BF00BF95
:1015B00000BF00BF00BF00BF00BF00BFC3F8C8200E
:1015C00000BF00BF00BF00BF704700BF00F00F406A
:1015D0002DE9F84F00F1180680690C4610B1036838
:1015E0001B689847002094F814A094F8138094F88E
:1015F0001290FFF719FF0020FFF716FF0020FFF7FA
:1016000013FF0020FFF710FF08F1010809F101099D
:101610000AF1010AA368002B17DC6468002CB8BF2C
:101620001F346411FF20FFF7FFFE0020FFF7FCFED0
:101630000020FFF7F9FE0020FFF7F6FE013CF1D293
:101640003046FFF7EAFEBDE8F88FA26921688B18E3
:1016500011F802B05D789F7808FB05F52D120AFBA2
:1016600007F709FB0BFB3F122D02FF204FEA2B2B44
:1016700067F0FF07ADB2FFF7D7FE45EA0B05F8B2FA
:10168000FFF7D2FE280AFFF7CFFEE8B2FFF7CCFE45
:10169000227BE37B9B1A2373627B237C9B1A6373FD
:1016A000A27B637C9B1AA37394F9152023681344CF
:1016B0002360A368013BA360ACE7006810B1036836
:1016C0005B6818477047FFFF704B10F0800F4FF0BA
:1016D00040014FF0020214BFC3F8C410C3F8C81091
:1016E000C3F8C42000BF00BF00BF00BF00BF00BFE1
:1016F00000BF00BFC3F8C82000BF00BF00BF00BFCD
:10170000624B10F0400F4FF040014FF0020214BF47
:10171000C3F8C410C3F8C810C3F8C42000BF00BF8A
:1017200000BF00BF00BF00BF00BF00BFC3F8C8209C
:1017300000BF00BF00BF00BF544B10F0200F4FF0A0
:1017400040014FF0020214BFC3F8C410C3F8C81020
:10175000C3F8C42000BF00BF00BF00BF00BF00BF70
:1017600000BF00BFC3F8C82000BF00BF00BF00BF5C
:10177000464B10F0100F4FF040014FF0020214BF23
:10178000C3F8C410C3F8C810C3F8C42000BF00BF1A
:1017900000BF00BF00BF00BF00BF00BFC3F8C8202C
:1017A00000BF00BF00BF00BF384B10F0080F4FF064
:1017B00040014FF0020214BFC3F8C410C3F8C810B0
:1017C000C3F8C42000BF00BF00BF00BF00BF00BF00
:1017D00000BF00BFC3F8C82000BF00BF00BF00BFEC
:1017E0002A4B10F0040F4FF040014FF0020214BFDB
:1017F000C3F8C410C3F8C810C3F8C42000BF00BFAA
:1018000000BF00BF00BF00BF00BF00BFC3F8C820BB
:1018100000BF00BF00BF00BF1C4B10F0020F4FF015
:1018200040014FF0020214BFC3F8C410C3F8C8103F
:10183000C3F8C42000BF00BF00BF00BF00BF00BF8F
:1018400000BF00BFC3F8C82000BF00BF00BF00BF7B
:101850000E4B10F0010F4FF040014FF0020214BF89
:10186000C3F8C410C3F8C810C3F8C42000BF00BF39
:1018700000BF00BF00BF00BF00BF00BFC3F8C8204B
:1018800000BF00BF00BF00BF704700BF00F00F40A7
:101890002DE9F84F00F1180680690C4610B1036875
:1018A0001B689847002094F814A094F8138094F8CB
:1018B0001290FFF709FF0020FFF706FF0020FFF757
:1018C00003FF0020FFF700FF08F1010809F10109FB
:1018D0000AF1010AA368002B17DC6468002CB8BF6A
:1018E0001F346411FF20FFF7EFFE0020FFF7ECFE2E
:1018F0000020FFF7E9FE0020FFF7E6FE013CF1D2F1
:101900003046FFF7DAFEBDE8F88FA26921688B1830
:1019100011F802B05D789F7808FB05F52D120AFBDF
:1019200007F709FB0BFB3F122D02FF204FEA2B2B81
:1019300067F0FF07ADB2FFF7C7FE45EA0B05F8B247
:10194000FFF7C2FE280AFFF7BFFEE8B2FFF7BCFEB2
:10195000227BE37B9B1A2373627B237C9B1A63733A
:10196000A27B637C9B1AA37394F91520236813440C
:101970002360A368013BA360ACE7006810B1036873
:101980005B6818477047FFFF704B10F0800F4FF0F7
:1019900020014FF0020214BFC3F8C410C3F8C810EE
:1019A000C3F8C42000BF00BF00BF00BF00BF00BF1E
:1019B00000BF00BFC3F8C82000BF00BF00BF00BF0A
:1019C000624B10F0400F4FF020014FF0020214BFA5
:1019D000C3F8C410C3F8C810C3F8C42000BF00BFC8
:1019E00000BF00BF00BF00BF00BF00BFC3F8C820DA
:1019F00000BF00BF00BF00BF544B10F0200F4FF0DE
:101A000020014FF0020214BFC3F8C410C3F8C8107D
:101A1000C3F8C42000BF00BF00BF00BF00BF00BFAD
:101A200000BF00BFC3F8C82000BF00BF00BF00BF99
:101A3000464B10F0100F4FF020014FF0020214BF80
:101A4000C3F8C410C3F8C810C3F8C42000BF00BF57
:101A500000BF00BF00BF00BF00BF00BFC3F8C82069
:101A600000BF00BF00BF00BF384B10F0080F4FF0A1
:101A700020014FF0020214BFC3F8C410C3F8C8100D
:101A8000C3F8C42000BF00BF00BF00BF00BF00BF3D
:101A900000BF00BFC3F8C82000BF00BF00BF00BF29
:101AA0002A4B10F0040F4FF020014FF0020214BF38
:101AB000C3F8C410C3F8C810C3F8C42000BF00BFE7
:101AC00000BF00BF00BF00BF00BF00BFC3F8C820F9
:101AD00000BF00BF00BF00BF1C4B10F0020F4FF053
:101AE00020014FF0020214BFC3F8C410C3F8C8109D
:101AF000C3F8C42000BF00BF00BF00BF00BF00BFCD
:101B000000BF00BFC3F8C82000BF00BF00BF00BFB8
:101B10000E4B10F0010F4FF020014FF0020214BFE6
:101B2000C3F8C410C3F8C810C3F8C42000BF00BF76
:101B300000BF00BF00BF00BF00BF00BFC3F8C82088
:101B400000BF00BF00BF00BF704700BF00F00F40E4
:101B50002DE9F84F00F1180680690C4610B10368B2
:101B60001B689847002094F814A094F8138094F808
:101B70001290FFF709FF0020FFF706FF0020FFF794
:101B800003FF0020FFF700FF08F1010809F1010938
:101B90000AF1010AA368002B17DC6468002CB8BFA7
:101BA0001F346411FF20FFF7EFFE0020FFF7ECFE6B
:101BB0000020FFF7E9FE0020FFF7E6FE013CF1D22E
:101BC0003046FFF7DAFEBDE8F88FA26921688B186E
:101BD00011F802B05D789F7808FB05F52D120AFB1D
:101BE00007F709FB0BFB3F122D02FF204FEA2B2BBF
:101BF00067F0FF07ADB2FFF7C7FE45EA0B05F8B285
:101C0000FFF7C2FE280AFFF7BFFEE8B2FFF7BCFEEF
:101C1000227BE37B9B1A2373627B237C9B1A637377
:101C2000A27B637C9B1AA37394F915202368134449
:101C30002360A368013BA360ACE7006810B10368B0
:101C40005B6818477047FFFF704B10F0800F4FF034
:101C500001014FF0020214BFC3F8C410C3F8C8104A
:101C6000C3F8C42000BF00BF00BF00BF00BF00BF5B
:101C700000BF00BFC3F8C82000BF00BF00BF00BF47
:101C8000624B10F0400F4FF001014FF0020214BF01
:101C9000C3F8C410C3F8C810C3F8C42000BF00BF05
:101CA00000BF00BF00BF00BF00BF00BFC3F8C82017
:101CB00000BF00BF00BF00BF544B10F0200F4FF01B
:101CC00001014FF0020214BFC3F8C410C3F8C810DA
:101CD000C3F8C42000BF00BF00BF00BF00BF00BFEB
:101CE00000BF00BFC3F8C82000BF00BF00BF00BFD7
:101CF000464B10F0100F4FF001014FF0020214BFDD
:101D0000C3F8C410C3F8C810C3F8C42000BF00BF94
:101D100000BF00BF00BF00BF00BF00BFC3F8C820A6
:101D200000BF00BF00BF00BF384B10F0080F4FF0DE
:101D300001014FF0020214BFC3F8C410C3F8C81069
:101D4000C3F8C42000BF00BF00BF00BF00BF00BF7A
:101D500000BF00BFC3F8C82000BF00BF00BF00BF66
:101D60002A4B10F0040F4FF001014FF0020214BF94
:101D7000C3F8C410C3F8C810C3F8C42000BF00BF24
:101D800000BF00BF00BF00BF00BF00BFC3F8C82036
:101D900000BF00BF00BF00BF1C4B10F0020F4FF090
:101DA00001014FF0020214BFC3F8C410C3F8C810F9
:101DB000C3F8C42000BF00BF00BF00BF00BF00BF0A
:101DC00000BF00BFC3F8C82000BF00BF00BF00BFF6
:101DD0000E4B10F0010F4FF001014FF0020214BF43
:101DE000C3F8C410C3F8C810C3F8C42000BF00BFB4
:101DF00000BF00BF00BF00BF00BF00BFC3F8C820C6
:101E000000BF00BF00BF00BF704700BF00F00F4021
:101E10002DE9F84F00F1180680690C4610B10368EF
:101E20001B689847002094F814A094F8138094F845
:101E30001290FFF709FF0020FFF706FF0020FFF7D1
:101E400003FF0020FFF700FF08F1010809F1010975
:101E50000AF1010AA368002B17DC6468002CB8BFE4
:101E60001F346411FF20FFF7EFFE0020FFF7ECFEA8
:101E70000020FFF7E9FE0020FFF7E6FE013CF1D26B
:101E80003046FFF7DAFEBDE8F88FA26921688B18AB
:101E900011F802B05D789F7808FB05F52D120AFB5A
:101EA00007F709FB0BFB3F122D02FF204FEA2B2BFC
:101EB00067F0FF07ADB2FFF7C7FE45EA0B05F8B2C2
:101EC000FFF7C2FE280AFFF7BFFEE8B2FFF7BCFE2D
:101ED000227BE37B9B1A2373627B237C9B1A6373B5
:101EE000A27B637C9B1AA37394F915202368134487
:101EF0002360A368013BA360ACE701210E2000F042
:101F000031BC10B5012104461A2000F02BFCFFF76C
:101F1000F4FF04F11800FFF780FA10BD10B501219D
:101F20000446152000F01EFCFFF7E7FF04F118003F
:101F3000FFF7C3FB10BD10B501210446142000F0CB
:101F400011FCFFF7DAFF04F11800FFF716FD10BDD2
:101F500010B501210446022000F004FCFFF7CDFF7C
:101F600004F11800FFF769FE10BDFFFF70B5174BB5
:101F70001A78013202F007021A70D3019107DBB21E
:101F800048BF43F04003520748BF43F020031033DB
:101F900000F10C01DAB20F304FF480768B791BB16F
:101FA000B6FBF3F30133DBB203FB0224C4F30725D2
:101FB000241218BF05F1FF34CB700C700BB1013B3C
:101FC000CB7001318842E9D170BD00BFE83EFF1FF0
:101FD00010B58AB0CDE903120193837CBDF80410DB
:101FE0000592012B9DF80620ADF81E1004468DF8D1
:101FF00020200ED103A8FFF7B9FF03238DF821306D
:1020000000230993236803A99B69204698470AB0D7
:1020100010BD00230693ADF81C30EEE730B58BB051
:10202000CDE903120193837CBDF804100592012BC6
:102030009DF80620ADF81E1004468DF820204FF0C4
:1020400000050CD103A8FFF791FF23688DF82150FC
:102050009B69099503A9204698470BB030BD0695AA
:10206000ADF81C50F1E7FFFF2DE9F3418C2002F0A1
:10207000A4FB044602F028FC324B334E1C60334C68
:102080003348DFF80C81334F04F012FF324B292222
:102090004FF0FF31204602F0BDFE32462F49204668
:1020A00008F0DAF800222E4C11464046FEF7EAFC12
:1020B0002C4BC8F80030102003F000FB04F118028C
:1020C00001212046FEF7DEFC274B236047F6FF7315
:1020D000E3834FF4004300252384384601F01AFEC1
:1020E000234600952A464146384601F079FE32469D
:1020F0001E49384608F0B0F81D48FEF75DFC1D4843
:102100001D4985603246C0E9005508F0A5F81B4B13
:10211000188807F0A5FB1A4B002207F045FD194B64
:1021200004460D46C3E900450022174B07F012FC98
:102130002B46224607F00EFC144BC3E9000102B007
:10214000BDE8F081C045FF1F3013FF1FDC45FF1FB6
:10215000444CFF1F084CFF1F003CFF1F4D050000B3
:102160001C4CFF1FE8A80000DCA80000953E000002
:102170000046FF1FF045FF1F950800003413FF1FA6
:1021800000408F40903FFF1F0000E03F883FFF1F4F
:10219000C445FF1FF8B52D4D2D4C6B6A1B0651D45D
:1021A000626A12F080024DD172B62A490B78002B78
:1021B00046D0AB6BD5F83CE0D5F840C06F6CAE6C48
:1021C000E86C734463443B4433440344C3F34E0319
:1021D00043F40043EB62AB6DD5F85CE0D5F860C02A
:1021E0006F6EAE6EE86E734463443B443344034405
:1021F000C3F34E0343F400432B63A36BD4F83CC0FA
:10220000276C666CA56CE06C63443B4433442B4400
:102210000344C3F34E0343F40043E362A36DD4F8D5
:102220005CC0276E666EA56EE06E63443B4433442B
:102230002B440344C3F34E0343F4004323630A7067
:1022400062B6F8BD02F0FCFAA7E700BF00B0034099
:1022500000B00B40604CFF1F1E4B60221A70E12241
:102260005A701D4B1D4A19781D4B08291AD121207F
:1022700090601321D1609860D9601A4B17491B7880
:10228000174A03B101230B621362174B134A1978E3
:10229000134B012911D8802151625962134B01223D
:1022A0001A7070470A2901D13920E1E70C290CBFC7
:1022B00035205D2012219060DCE7042901D88421BB
:1022C000EAE7082901D88521E6E7102994BF86218D
:1022D0008721E1E700400740C036FF1F00B0034000
:1022E00000B00B405E4CFF1FC136FF1F604CFF1F4C
:1022F0000E4A137860B1BBB9012111700C4A1278F3
:1023000022B10C4A536202F500225362FFF7A4BFC8
:1023100053B1074B10701B78002BF7D0054B586258
:1023200003F500235862F1E7704700BF5E4CFF1FC2
:10233000604CFF1F00B003400C2817D9102828BF9D
:10234000102010230E4A181A10700E4A1078984266
:10235000D9B214D00C4B11701B782BB10B4A00234F
:10236000536202F500225362FFF776BF0A2804D8B1
:1023700008288CBF0A230823E4E70C23E2E7704710
:102380005F4CFF1FC036FF1F604CFF1F00B00340B3
:1023900010B5144B1B7804460BB1FFF7FBFE012C64
:1023A000114A04D800235362104A137010BD042C44
:1023B0000F4903D8042353624B62F5E7082C04D875
:1023C000052353624B620823EEE7102C95BF0623CA
:1023D00007235362536295BF4B624B621023202345
:1023E000E2E700BF604CFF1F00B00340C136FF1F93
:1023F00000B00B404728F8B544D8234B1C5CFF2C99
:1024000040D0224B1B780BB1FFF7C4FE21061BD531
:1024100072B61F4D04F0400704F03F04EB68002F34
:102420002DD023F010031B4EEB6001232C60337082
:1024300062B672B62B681B0612D43378002BEDD02F
:1024400062B602F0FDF9F4E772B6134D134E4FF089
:1024500001072C60377062B672B62B681A0607D572
:1024600000232869337062B60D4B1B781841F8BD04
:102470003378002BEDD062B602F0E2F9ECE743F0DE
:102480001003D0E70020F2E744A50000604CFF1FD6
:1024900000B00B405D4CFF1F00B003405C4CFF1FC1
:1024A0005F4CFF1F08B50B4C636B580301D500F060
:1024B00085FE636B590501D500F0FAF9636B1A05C7
:1024C00001D500F0A5FA636BDB04EDD500F050FBFD
:1024D000EAE700BF0080044008B5FFF7E3FFFFFF15
:1024E000014B10221A807047002005407047FFFF03
:1024F000094908B5034608685BB16A460344A2F57A
:102500000052934206D307F065FE0C2303604FF0A0
:10251000FF3008BD0B60FCE7C436FF1FFEE7007804
:10252000B0FA80F040097047012303707047FFFF45
:10253000074BDA78802A4FF0000007D1054A064998
:1025400051645870DA78802AFCD00120704700BFAF
:1025500000E007400080044000002822074BDA78A2
:10256000012A09D160225A70DA78802AFCD1044B02
:10257000044A5A64012070470020704700E0074079
:10258000008004400000060270B50024B0FBF2F5A4
:1025900002FB1506F3B2092E94BF30333733DBB29A
:1025A00082420B5502D801342846EFE70B1900226E
:1025B0005A70481EA51AAA4201DB084670BD10F8E1
:1025C000015F1E780670013203F80159F2E7704787
:1025D00000F14040A0F592237C2B12D9A0F5942362
:1025E0007C2B10D9A0F596237C2B0ED9A0F598232F
:1025F0007C2B0CD9A0F59A207C28064888BF0020A7
:1026000070470548704705487047054870470548BA
:10261000704700BF1038FF1FC836FF1F4037FF1F2D
:10262000A037FF1FD037FF1F034B00225A615A60AB
:10263000102218605A61704700D003407047FFFFB6
:102640004FF0E02337B54FF00062C3F804214FF09C
:102650008052C3F804214FF00052C3F804214FF018
:102660008042C3F804214FF00042C3F804212A49F4
:102670002A4A2823002009244EF6FF7548608D6001
:10268000CB604B61CB614B62CB624B63CB634B64E2
:10269000D3605361D3615362D3625363D363536492
:1026A0000C6001F5805148608D60CB604B610C601F
:1026B00001F5FE2148608D60CB604B610C6050607D
:1026C0009560D36053611460A2F5E222144CD16A84
:1026D00041F40071D162516841F00071516002F51E
:1026E000012247F6FF7150609160D3605361082367
:1026F0001360FFF7B1FDFFF7A1FF23680093009B74
:10270000132BFAD901F06EF823680193019BB3F5FE
:10271000967FF9D303B030BD0080034000900B409A
:10272000644CFF1F3F2810B509D80D4B53F83020DB
:1027300092F880423CB1012311B182F8803010BD83
:1027400082F80031FBE703EBC0035B681A6819B13C
:1027500042F003021A60F2E722F00202FAE700BF39
:1027600094A500003F2817D8144A02EBC0030129A2
:102770005B6852F8300001D004290ED1012280F8A4
:1027800080224FF4A2721A601A6804290CBF42F02A
:10279000200222F020021A607047002280F8802276
:1027A00011B94FF48072F6E7022902D140F2031208
:1027B000F1E7032908BF4FF48172ECE794A500000C
:1027C0003F2870B50E4630D8042A2ED817498C5CA5
:1027D000174A02EBC00324045D68296811F4E06124
:1027E00001D1FFF7BFFF134B134AC3F82C21134A43
:1027F000C3F83021124AC3F83421124AC3F83821F1
:10280000114AC3F83C212846FFF7E2FE68B172B6D0
:102810002B6823F470232B601C43C5F3840344F01E
:10282000807440F823602C6062B670BD8CA50000F7
:1028300094A50000000CFF1F0113FF1FD112FF1F02
:10284000A112FF1F7112FF1F4112FF1F72B64FF03E
:10285000E0210B4A8B691268D1F8041D62B6490168
:1028600002D5322B88BF0132C3F52F334FF47A7073
:10287000B42103F21F33B3FBF1F300FB02307047C6
:10288000644CFF1F38B50446FFF7E0FF05466CB106
:10289000FFF7DCFF401BB0F57A7F02D201F0D0FFDA
:1028A000F6E7013C02D005F57A75F1E738BDFFFF88
:1028B000F0B5DFF820C19CF8043013F0300F0CD0D5
:1028C00072B69CF8163003F0FF07002B42D19CF83B
:1028D000073040238CF8113062B63E48C3781D069D
:1028E000DEB227D503791C0624D53B4A3B4B3C4D31
:1028F00017683C4A1C782B78D2F800C0DFF808E152
:10290000E4B2DBB2A3420DD0591C8F4257D80379F1
:1029100000211EF80120D2B2D2B2C271027D072A74
:102920000B46EFD9DBB22B702A4B1A79100644BF45
:102930007C22DA7071060CD5264B1A79520608D51E
:10294000294A00211170294A126802B111703C22F3
:10295000DA70F0BD62B6264ADFF8B0E0254C9EF88A
:1029600000301678244A1568244A1068DBB2F6B2A3
:102970009CF807105A1C9542C9B227D9964203D039
:102980003F2A19D8A1541346791E11F0FF07EFD141
:10299000DAB28EF800201A4A116800299DD0B3429D
:1029A0003CBFAA1B9B18174A126828BF9B1B934267
:1029B00024BF01230B7090E73F3BC154E3E73F295D
:1029C0000279A6D93F3B1CF80320A4E7002EDBD0F8
:1029D0000022D7E700A006408438FF1FFD4CFF1FF0
:1029E000044DFF1F004DFF1FBC4CFF1FB84CFF1FC5
:1029F000B44CFF1F6C4CFF1F8038FF1FB04CFF1FF3
:102A0000684CFF1F7C38FF1FBD4CFF1FAC4CFF1FE5
:102A1000F0B5DFF820C19CF8043013F0300F0CD073
:102A200072B69CF8163003F0FF07002B42D19CF8D9
:102A3000073040238CF8113062B63E48C3781D063B
:102A4000DEB227D503791C0624D53B4A3B4B3C4DCF
:102A500017683C4A1C782B78D2F800C0DFF808E1F0
:102A6000E4B2DBB2A3420DD0591C8F4257D8037990
:102A700000211EF80120D2B2D2B2C271027D072A13
:102A80000B46EFD9DBB22B702A4B1A79100644BFE4
:102A90007C22DA7071060CD5264B1A79520608D5BD
:102AA000294A00211170294A126802B111703C2292
:102AB000DA70F0BD62B6264ADFF8B0E0254C9EF829
:102AC00000301678244A1568244A1068DBB2F6B242
:102AD0009CF807105A1C9542C9B227D9964203D0D8
:102AE0003F2A19D8A1541346791E11F0FF07EFD1E0
:102AF000DAB28EF800201A4A116800299DD0B3423C
:102B00003CBFAA1B9B18174A126828BF9B1B934205
:102B100024BF01230B7090E73F3BC154E3E7272913
:102B20000279A6D9273B1CF80320A4E7002EDBD0AE
:102B30000022D7E700B006409038FF1F854DFF1FE9
:102B40008C4DFF1F884DFF1F5C4DFF1F584DFF1F11
:102B5000544DFF1F0C4DFF1F8C38FF1F504DFF1FA2
:102B6000084DFF1F8838FF1F5D4DFF1F4C4DFF1F95
:102B700030B5344B1A7992062BD5334C334AD97978
:102B8000334823781268007801339A4298BF0023B3
:102B90009842C9B20BD03F2B8BBF2E4D2E482D68CB
:102BA000C15484BFA3F140002954D9B221702B49EC
:102BB000096871B12A480478A342E0B23CBF121AF6
:102BC0009B18284A126828BF1B1A934224BF01236E
:102BD0000B701C4AD3781D06DCB20BD5137918068E
:102BE00008D5214B1E491D7808788542C3B211D102
:102BF0006C23D37061060CD5124B1A79520608D596
:102C00001A4A002111701A4A126802B111702C225E
:102C1000DA7030BD174800685A1C90420AD9272A3A
:102C20000AD8154B9B5C0748DBB2DBB2D2B2C3714A
:102C30000A70DFE70022F4E71048273B0068C35C16
:102C4000F1E700BF00C00640D44DFF1F9838FF1FBA
:102C5000DC4DFF1FD84DFF1F944DFF1F904DFF1FF0
:102C6000144EFF1F9438FF1F0D4EFF1FE44DFF1F32
:102C7000E04DFF1F9C38FF1FE54DFF1F104EFF1F4B
:102C800030B5344B1A7992062BD5334C334AD97967
:102C9000334823781268007801339A4298BF0023A2
:102CA0009842C9B20BD03F2B8BBF2E4D2E482D68BA
:102CB000C15484BFA3F140002954D9B221702B49DB
:102CC000096871B12A480478A342E0B23CBF121AE5
:102CD0009B18284A126828BF1B1A934224BF01235D
:102CE0000B701C4AD3781D06DCB20BD5137918067D
:102CF00008D5214B1E491D7808788542C3B211D1F1
:102D00006C23D37061060CD5124B1A79520608D584
:102D10001A4A002111701A4A126802B111702C224D
:102D2000DA7030BD174800685A1C90420AD9272A29
:102D30000AD8154B9B5C0748DBB2DBB2D2B2C37139
:102D40000A70DFE70022F4E71048273B0068C35C05
:102D5000F1E700BF00D006405C4EFF1FA438FF1F04
:102D6000644EFF1F604EFF1F1C4EFF1F184EFF1FBB
:102D70009C4EFF1FA038FF1F954EFF1F6C4EFF1F7C
:102D8000684EFF1FA838FF1F6D4EFF1F984EFF1F94
:102D900030B5344B1A7992062BD5334C334AD97956
:102DA000334823781268007801339A4298BF002391
:102DB0009842C9B20BD03F2B8BBF2E4D2E482D68A9
:102DC000C15484BFA3F140002954D9B221702B49CA
:102DD000096871B12A480478A342E0B23CBF121AD4
:102DE0009B18284A126828BF1B1A934224BF01234C
:102DF0000B701C4AD3781D06DCB20BD5137918066C
:102E000008D5214B1E491D7808788542C3B211D1DF
:102E10006C23D37061060CD5124B1A79520608D573
:102E20001A4A002111701A4A126802B111702C223C
:102E3000DA7030BD174800685A1C90420AD9272A18
:102E40000AD8154B9B5C0748DBB2DBB2D2B2C37128
:102E50000A70DFE70022F4E71048273B0068C35CF4
:102E6000F1E700BF00A00E40E44EFF1FB038FF1F87
:102E7000EC4EFF1FE84EFF1FA44EFF1FA04EFF1F8A
:102E8000244FFF1FAC38FF1F1D4FFF1FF44EFF1FC5
:102E9000F04EFF1FB438FF1FF54EFF1F204FFF1FDE
:102EA000354B5A68920230B52BD5344C344AD96828
:102EB000344823781268007801339A4298BF00237F
:102EC00098420CD03F2B89BF2F4D30482D68A3F17D
:102ED0004000C9B294BFC1542954D9B221702C49C1
:102EE000096871B12B480478A342E0B23CBF121AC2
:102EF0009B18294A126828BF1B1A934224BF01233A
:102F00000B701D4B99680D020ED55B681C020BD52A
:102F1000224B20481C7803789C42DAB215D1204B12
:102F200001220020C3E956204A020DD5124B5B68EE
:102F30005B0209D51B4A002313701B4A126802B1B9
:102F40001370174AC2F8583130BD184C2468531C0E
:102F50009C4209D9272B09D8154AD25C064CD2B21B
:102F6000DBB2E2600370DFE70023F5E7114C273A9C
:102F70002468A25CF2E700BF00400C406C4FFF1FCA
:102F8000BC38FF1F744FFF1F704FFF1F2C4FFF1FD8
:102F9000284FFF1FAC4FFF1FB838FF1FA54FFF1F63
:102FA000000088437C4FFF1F784FFF1FC038FF1F72
:102FB0007D4FFF1FA84FFF1F30B585B072B6FFF7DA
:102FC000B7FA154B70221A70144A5A6080221A7090
:102FD0001A781206FCD5DC68FFF7C0FA62B6104B0F
:102FE0009C423CBF0A235C430A2201A92046FFF70A
:102FF000CBFA0C4801AA0021054612F8014B0B46FA
:10300000013124B10A2920F8024FF6D10B460133D1
:103010005B002B7005B030BD00000240000007418E
:10302000809698004C39FF1FF0B50C4C0C4E23785D
:103030000C4D43F0020706EBC70283F0010350601A
:103040002A782370002A14BFC820882040EA014152
:1030500082F0010246F837102A70F0BD3050FF1F91
:103060000000FF1F3150FF1F431E032B10B510D867
:1030700072B6094A52F8230048B1416842F8231059
:103080000649048831F81320121B21F8132062B678
:1030900010BD0020FCE700BF4050FF1F8E50FF1FF7
:1030A000013803280AD872B6054B53F820300020A7
:1030B0000BB962B670475B680130F9E700207047D2
:1030C0006850FF1F30B472B6174C184A042314F826
:1030D000011B09071DD552F8331069B902EBC30172
:1030E00008304860124942F83310124A1378013B05
:1030F000137062B630BC704743F0010152F8315092
:103100003DB902EBC103083058600B4B42F8313037
:10311000EBE70433142BDAD162B6064B00221A70A7
:1031200030BC00F0CFBB00BFE8A700000000FF1FCD
:10313000880040009650FF1FC8004000421E032A2E
:1031400030B52CD8194B400140F01000034472B642
:10315000174CA05C032818D8DFE800F026110214F1
:10316000052013F0080FA05401F1080209885A60E5
:1031700014BFC822882242EA01421A600EE00833D6
:103180000220EEE708330420EBE70A480A4B50F828
:1031900022402CB940F8221043F8221062B630BD0C
:1031A00053F822004160F7E70320DAE70000FF1F31
:1031B0008850FF1F6850FF1F7850FF1F2DE9F74F01
:1031C000AA4EAB4B93F880305907DCB21BD5A94B04
:1031D0001B78A3B1A84A117801F0FF0321B1013B8C
:1031E000DBB2137003B900BEA44A117801F0FF03EB
:1031F00029B1013BDBB213700BB900F0C1FC9C4B51
:10320000042283F8802014F0080100F07782984BA4
:103210009B4C93F890703D09FBB24FEA970840F041
:10322000F48154F8383004EBC802C3F38303092B4C
:10323000526800F0C5810CD8013B012B40F2A181FE
:103240008B4B012283F89420894B082283F880203D
:10325000B7E70D2BF4D110688A4B8B49526844F8BC
:1032600038300123894F25613560A5610B7040F22C
:10327000816581B2A94238607A6021D8B1F5D06FFA
:1032800080F05C81B1F5817F00F037810ED8802914
:1032900000F01C81822900F01F81754B0F2283F8FA
:1032A000C020734B012283F89420C9E740F2023317
:1032B000994200F03281B1F5A06FEED100233BE1DD
:1032C00042F22105A942ECD03ED8B1F5086F00F0DA
:1032D000A380B1F5106FE0D1664AC0F307431370C5
:1032E000042554F835301A0605D504EBC503586893
:1032F000083800F0E7FA0135142DF2D1644B654D22
:10330000DFF8A8B1DFF8A881DFF8A8A1DFF8A8915D
:10331000009355F8040B00BB49F8040B45F8040C66
:10332000D8F8000000BB009B9BF8001043F8040B8A
:10333000023948F8040B2AF8020B009303291ED81F
:10334000DFE801F01957195742F22123994200F0A2
:103350000B8142F221339942AFE74168019100F0BD
:10336000B1FA01990846D6E74168019100F0AAFA3E
:1033700001990846D6E74FF000038BF80030464B22
:103380009D420BF1010BC4D1DFF830B1DFF830A161
:10339000DFF83081DFF8309100238BF8003018F827
:1033A000012B0AF8042B3D4D1307554415D500F0A9
:1033B0006BFA08B304EBC50208305060384A44F891
:1033C000352000F061FA45F00102E8B104EBC201DA
:1033D0002C4B0830486044F8323045F0020145F08B
:1033E00003050022CA4544F8312044F83520D6D1DF
:1033F00064E74FF00103C0E79BF8002044F8350074
:1034000001328BF80020DCE744F832009BF8002002
:1034100001328BF80020E0E7164A224C1278227025
:10342000FD889D4228BF1D46402DA84628BF4FF06D
:10343000400841462046FFF7F7FDB5EB080702D1EB
:103440003F2D7FF62EAF402F3D46444428BF4025F8
:1034500029462046FFF7E8FD2C447D1B02D13F2F73
:103460007FF61FAF104B34601D801AE73450FF1FEA
:10347000002007408C50FF1F8D50FF1FB450FF1FCE
:103480000000FF1FC80040003150FF1F6050FF1FA9
:103490007850FF1F4050FF1F5050FF1F3CDFF8BF08
:1034A000880040003850FF1F3250FF1F8850FF1F18
:1034B0006850FF1F8E50FF1F5050FF1F9650FF1F78
:1034C000C4200740E8A70000D42007409F4C0023F9
:1034D000237063700223A3E702F07F02042A3FF601
:1034E000DCAE9A4C002323706370994B13F82230A2
:1034F0009D07EFD501232370ECE702F07F02042A39
:103500003FF6CBAE030C7FF4C8AE914911F82230E0
:1035100023F0020301F82230D0E602F07F02042AF1
:103520003FF6BBAE030C7FF4B8AE894810F822100A
:1035300041F0020100F822101C4671E78549C0F3F2
:103540000F4392B24C68002C3FF4A7AE0888984213
:1035500008D14D88954205D1000A03280CBF237875
:103560000B895DE70C31EDE792B2002A7FF4A6AE3D
:10357000794B1A68794B1A60794AC0F30743137084
:103580009CE6784B188842F22101884214D19B882E
:1035900073B9754BD01D194612F8015B03F8015B36
:1035A0008242F9D10B68862B02BF704B0F221A7032
:1035B00000210846FFF738FD6D4B44F838303FE6F0
:1035C0003568ADB1DFF8DC81B8F80070402F3C46BB
:1035D00028BF40242146284625443C1BA4B2FFF7BF
:1035E00023FDA8F8004014B93F2F98BF002535608F
:1035F0005C4B1A88B2F5A06F7FF422AE00225A709D
:103600009A785C4B83F898201AE6474604EBC80882
:10361000013DD8F8041013F00803A1F10800EDB241
:1036200039D000F04FF9544B544953F8250000B3FA
:10363000426843F8252000F10803C8F804304B5DC8
:10364000032B05D8DFE803F0020F111303234B55BA
:1036500018F0080F028814BFC823882343EA0243E6
:1036600044F83730F0E50223F1E70523EFE70423C0
:10367000EDE74B5D022B09D07FF6E6AD032B07D0BB
:1036800018F0080F14BF0323022302E04855DBE5BE
:1036900001234B55D8E554F837204FEA124C120C51
:1036A00021F808CC18D021F8063C41F8043C3449F4
:1036B000344B51F82520B2B941F82500324A43F87D
:1036C000250032F81530634422F8153000F0DCF89C
:1036D00068B10830C8F804002C4A254B18F0080FD0
:1036E00008BF1346BCE753F825205060E6E7284A98
:1036F00044F83700137801331370A5E5E00753D57C
:103700001C4B2248234C022283F89420224A117039
:10371000224A1060546090602148D060116191612C
:103720000D2283F8C020FF2283F8882083F88020B0
:1037300083F8981083F88C209F2283F8842001223C
:1037400083F8942003B0BDE8F08F00BF3850FF1F0E
:10375000C020074094A70000644CFF1FB050FF1F1B
:10376000AC50FF1F6050FF1FA450FF1F8D50FF1F64
:10377000C8004000002007406850FF1F8850FF1F0E
:103780004050FF1F5050FF1F8E50FF1F8800400009
:103790009650FF1FB04FFF1F3050FF1F0000FF1F4C
:1037A000F04FFF1F3250FF1F210606D50C4B0D2294
:1037B00083F8C020802283F88020A20708D5084B18
:1037C00093F88820D2B283F88820022283F88020E0
:1037D000E30642BF024B102283F88020B2E700BF0D
:1037E0000020074010B5FFF7E7FB0023224A1846E8
:1037F00042F8330002EBC3010133142B4860F7D1C8
:103800001E494B6B43F480234B63A1F56C31C2F32B
:103810000724D1F8003843F04073C1F8003801F5AF
:10382000CA2101F58071032381F84430A02381F877
:103830004030134B83F89C40C2F30744120E83F8C8
:10384000B04083F8B420FF2283F8802083F88820DA
:103850001A74012283F89420087083F88420094B9D
:10386000702283F835204FF0E0234FF40012C3F8A4
:10387000042110230B7210BD0000FF1F00800440C4
:103880000020074000E400E072B60C480268B2FA7B
:1038900082F30B2B02DD62B6002070474FF000412F
:1038A000D94022EA0102026062B605494822534328
:1038B000C8180022CA504260704700BF6439FF1F19
:1038C000E00EFF1F0D4BC31AB3F5587F14D20C4AFC
:1038D000127822B10B4A12780AB1FFF7F3BB72B625
:1038E00009494822B3FBF2F34FF0004222FA03F3F6
:1038F0000A6813430B6062B6704700BFE00EFF1FFB
:103900009650FF1F8C50FF1F6439FF1F38B5104CB5
:10391000236863B120684388C2180133157A02888E
:103920009A4212D8FFF7CEFF0023236004E0094B30
:103930001B781BB94FF0FF35284638BD0320FFF731
:1039400093FB20600028E5D1F4E74380F4E700BF53
:103950009850FF1F8C50FF1F10B50B4C236823B1EC
:1039600023686BB94FF0FF3010BD084B1B78002B5C
:10397000F8D00320FFF778FB20600028F0D1F1E7B2
:103980005A881344187AEFE79850FF1F8C50FF1F96
:10399000074B10B59C88074B1A681AB113885288D8
:1039A0009B1A1C440CB900F04BFF204610BD00BF11
:1039B0008E50FF1F9850FF1F10B5094B1B786BB13D
:1039C000084C206818B1FFF77DFF00232360032017
:1039D000FFF74AFB10B1FFF775FFF8E710BD00BF16
:1039E0008C50FF1F9850FF1F2DE9F84F2E4D2F4F81
:1039F000DFF8C480012381460C462B700E4616B9B1
:103A00002E7020460DE03B6833BBDFF8B0A0DFF836
:103A1000A0B098F8003003F0FF0223B92A704FF0ED
:103A2000FF30BDE8F88F0420FFF73AFB072806D8DF
:103A300001232B70FFF728FF386068B92870BAF1AE
:103A4000010A02D09BF800301BB101238BF8003033
:103A5000E5E700F0F5FEDCE73968154B00221A7047
:103A60004B88C3F14002B24228BF324698180B443B
:103A70004880B61A073309EB020AD1450ED14B88AC
:103A80003F2B06D940230B800420FFF757FB002370
:103A90003B60084B05221A70D146B0E719F8012B9C
:103AA00003F8012FE9E700BF9D50FF1FA050FF1F43
:103AB0009C50FF1FB450FF1F8C50FF1F2148010076
:103AC00007B501218DF807000DF10700FFF78CFF06
:103AD00003B05DF804FBFFFF38B50E4C0E4D01231B
:103AE00023702B687BB90D4B1B7813B90020207015
:103AF00038BD0420FFF7D4FA0728F7D8FFF7C4FE33
:103B000028600028F2D02B6858880023C0F14000BC
:103B10002370EDE79D50FF1FA050FF1F8C50FF1F2B
:103B20002DE9F041124B1B78A3B1DFF85080114E04
:103B3000D8F80040104D012737706CB1638800271A
:103B40002F70214623800420FFF7F8FAC8F8007090
:103B500000233370BDE8F081FFF796FE014620B1E7
:103B600004202C70FFF7EAFAF2E72F70F0E700BFAD
:103B70008C50FF1F9D50FF1FB450FF1FA050FF1F10
:103B800038B50E4B1B7803F0FF0543B90C4C216888
:103B900031B14B880B800420FFF7D0FA256038BD87
:103BA000FFF772FE014620B1BDE838400420FFF760
:103BB000C5BA044B01221A70F1E700BF9D50FF1FE8
:103BC000A050FF1FB450FF1F4FF0E0230122C3F8A5
:103BD000082270470B68036070470B6803607047EA
:103BE0007047704770477047704703681847FFFF7A
:103BF00070B572B61C4D1D4C2A8804F1700604EB9A
:103C00008200B042034602D362B6002070BD50F875
:103C1000041B09B90132F4E7B1FA81F64FF0004014
:103C2000F04021EA0001196001B901322A80104AEE
:103C3000118801318DB2158062B61B1B9A104FF4AA
:103C4000025041F67C7300FB02330A4A02FB063342
:103C5000094A12680124D454D018084B1A888A42A1
:103C600038BF1D80D2E700BFF450FF1FF850FF1F80
:103C7000E450FF1FFCFEFFFFE050FF1FEC50FF1F52
:103C8000438872B60278012A03D9013A027062B6FB
:103C9000704759090B48DB434FF0004203F01F0304
:103CA00022FA03F350F82120134340F82130064B49
:103CB0001A888A42054A88BF19801388013B1380FD
:103CC000E5E700BFF850FF1FF450FF1FE450FF1F4F
:103CD00030B5C36803B930BD187A90420AD158682C
:103CE0005C7A006950F8245025B940F8241008780F
:103CF00001300870DB68EDE7437A8B4288BF0269C8
:103D00004FF0000386BF52F8210042F821301846D8
:103D10007047FFFF0022C0E9002202810274024ABC
:103D20001168C160106070476851FF1F037C10B5B7
:103D3000002B49D10368002B48D04368002B45D0A5
:103D4000427A5B7A9A4243D272B6234B1A68DAB946
:103D5000224B1A68002A3DD0824226D10268D168DF
:103D600061BBD060C16819600023C360917A0131E2
:103D70009172012111724268947A11720C4494720A
:103D80000174184662B60DE0D3680BB95269DEE7DC
:103D90005C6841688C4206D15C7A417A8C4202D1DF
:103DA00062B6042010BDDB68EFE702F10C03D268B5
:103DB000D0E7844202D162B60620F3E70C46C96818
:103DC0000029F6D1E060CDE70120DBE70320D9E749
:103DD0000220D7E70520D5E7E850FF1F6851FF1FF5
:103DE00070B4067C9DF80C5036B90272457270BCF6
:103DF000C0E90013FFF79ABF012070BC7047FFFFB6
:103E0000037C10B50446002B3DD04368427A5B7AB0
:103E10009A423AD272B60268D36813B962B60320E6
:103E200010BD9842D96827D1D1606368627A1B6956
:103E300053F8220040B1FFF723FF72B66368627A3D
:103E40001B69002143F822102268937A013BDBB200
:103E5000937203B913726268937A013BDBB2937277
:103E600003B913720A4B00201A682074E2601C60C8
:103E700062B6D5E7002BD8D01A46DB689C42F9D150
:103E8000E368D360D1E70120CAE70220C8E700BF9A
:103E90006851FF1F10B50446FFF7B2FF064B1A68C2
:103EA0001AB1A24203D1E2681A60204610BD02F1A5
:103EB0000C03D268F4E700BF6851FF1F074B1A7864
:103EC00052B9074AD02182F840104FF0E022012079
:103ED000C2F808011870704700207047F050FF1FAB
:103EE00000E400E04FF0E022F8B5D2F8FC3D174DB9
:103EF00043F08073C2F8FC3D2B6843F001032B6054
:103F0000134B6E681C686CB9104B124A5B689B1BA4
:103F1000C3F30F111180104A1088B0EB131F38BF84
:103F20001180F8BD237A73B123686F681B6820463F
:103F300098476B68E188DB1BC3F30F12B1EB131FCB
:103F4000A28038BFE2806469DDE700BF001000E0B6
:103F5000E850FF1FEE50FF1FF250FF1F10B5044640
:103F600050F8083BDB689847204610BDF0B5B1F526
:103F7000607F28BF4FF460718DB005460E4672B663
:103F80002F4B002418602F4B2F481C802146702295
:103F900006F007F92C49234601249E423FD1002216
:103FA00002354FF48271934245D1284B1C78002C86
:103FB00032D1082000F001FC254E046080230371FB
:103FC0003368244CBFF35B8F13F0010F05460ED10D
:103FD0003046FEF7A4FA50B11F4B23601F4B6360BD
:103FE0001F4BA3601F4BE3603046FEF79DFA1E4B4C
:103FF000029302A96368009408A8069498471B4A94
:1040000006A9284600F006F906A8FFF7A7FF6846AC
:10401000FFF7A4FFFFF752FF62B60DB0F0BD5809DD
:1040200003F01F0251F8207004FA02F23A4341F8FB
:1040300020200133B1E701FB02F02A520132B2E73E
:10404000E050FF1FF450FF1FF850FF1FF050FF1FFC
:10405000CC50FF1FD050FF1FEB3B0000D53B0000B2
:10406000DB3B0000E13B0000C93B0000FFA7020072
:10407000074B1A68D2070AD401221A60054B064A78
:104080001A60064A5A60064A9A60064ADA60704721
:10409000B850FF1FBC50FF1FE33B0000E53B000092
:1040A000E73B0000E93B000030B572B6254C89B90A
:1040B000016879B103790F2B0CD822881A41D207F5
:1040C00008D503F1007303F59063B1EB431F01D1F1
:1040D00062B630BD2188002341FA03F212F00102DA
:1040E00027D101259D402943218062B61649DCB2C3
:1040F00004710D6C45F002050D64CD6B03F1007386
:1041000045F00205CD6303F59063A1F580215B01C5
:1041100040F282450D608C768C770C76CC7703600C
:10412000C3E90022C3E90222C3E90422C3E906224B
:10413000CFE70133102BCFD162B6002202600371AA
:10414000C7E700BF6C51FF1F0080044003790F2BAD
:104150000FD8084A937672B60749037901229A402C
:104160000B8823EA02030B8062B61023037100233D
:1041700003607047008000406C51FF1F70B50B4D0D
:104180000B4E0024EFF3108272B6286858B14369D1
:104190002B6033B19C6102B962B68368447798475B
:1041A000F0E73360F7E702B962B670BD7851FF1FE0
:1041B0007451FF1FFFF7E2BF024A13680133136017
:1041C000704700BF644CFF1F7047FFFF70B5054686
:1041D0000C4655F8083B0646DB6828469847236896
:1041E000044A2146284641F8082B3360BDE8704058
:1041F0009B681847BC50FF1F70B5054D0324182657
:1042000006FB0450FFF7AAFE013CF9D270BD00BFC7
:10421000A051FF1F70B5036886B0054616465BB314
:1042200000229A600122DA602B68204C1C4451F86D
:10423000083B009302A85B6898471D4B2411182087
:1042400000FB04306946FFF7C1FF6846FFF786FEB2
:104250002B6803221E609A60164B2A79E254303490
:10426000631103F1382340339B0004F01F04012045
:1042700000FA04F41C6016E00F4AD36B43F4000309
:10428000D36300BF0D4B01221A6003F580730C4A03
:1042900003602B6898680028C6D0103393422B60C7
:1042A000F7D90020286006B070BD00BF008FFCBFAA
:1042B000A051FF1F30E400E0008004400070034084
:1042C0003F710340F8B50E4F0E4D3B68BFF35B8F57
:1042D00013F0010F04460E460ED13846FEF71FF9C3
:1042E00050B1094B2B60094B6B60094BAB603846F2
:1042F000084BEB60FEF718F92560A6602046F8BD74
:10430000CC50FF1FD050FF1FEB3B0000D53B0000FF
:10431000DB3B0000E13B00002DE9F041026886B084
:10432000074632B3144E15491644361106F13004CF
:10433000631103F1382360339D004FF0010804F04E
:104340001F0408FA04F42C606846FFF7BBFF0C4B0F
:10435000182000FB06306946FFF738FF6846FFF774
:10436000FDFD3A6800239360C2F80C80C5F8004157
:104370003B6006B0BDE8F081008FFCBFC941000082
:10438000A051FF1F50F8083B1B68184708B5044BA5
:1043900004480122C3F80C21FFF7F4FF08BD00BF59
:1043A00000700340A051FF1F08B5044B04480122D0
:1043B000C3F81C21FFF7E6FF08BD00BF00700340F3
:1043C000B851FF1F08B5044B04480122C3F82C2143
:1043D000FFF7D8FF08BD00BF00700340D051FF1F9A
:1043E00008B5044B04480122C3F83C21FFF7CAFF7B
:1043F00008BD00BF00700340E851FF1F08B5124917
:104400001248FFF75FFF10491148FFF75BFF0E49A5
:104410001048FFF757FF0C490F48FFF753FF0F4AAB
:104420000F49002005F018FF0E4B1A68D2070AD476
:1044300001221A600C4B0D4A1A600D4A5A600D4A4F
:104440009A600D4ADA6008BDC9410000A051FF1F03
:10445000B851FF1FD051FF1FE851FF1F3013FF1F3E
:10446000F9410000B850FF1FBC50FF1FE33B0000A4
:10447000E53B0000E73B0000E93B000000207047FF
:104480007047F8B507460C4669B18D180026AC4256
:1044900001D13046F8BD3B6814F8011B1B68384653
:1044A00098470644F3E70E46F3E7F0B5012A8BB0D0
:1044B00008BF0A22A9B930228DF8252021243BB15A
:1044C000631E0AAADCB252FA83F32D2203F8242CCD
:1044D000036801A95B68C4F12202214498470BB02C
:1044E000F0BD2124B1FBF2F602FB1617FDB2092F35
:1044F00004F1280794BF303537356F44EDB28A4256
:1045000007F8245CDBD8013CE4B23146EAE7002935
:10451000BABF49422D2300230A22FFF7C6BF07B5C1
:1045200040F60D23ADF80430036802225B6801A950
:10453000984703B05DF804FB30B422B9036830BC7F
:104540001B68C9B2184730BCFFF7AFBFFFFFFFFFC2
:104550002DE9F04F55EC104B85B007460E4610EE96
:10456000102A10EE100A2B46294605F08DFC40B1AA
:1045700051493846FCF798F98046404605B0BDE8F9
:10458000F08F25F000494D4B4FF0FF322046494651
:1045900005F07AFC48B9494B4FF0FF3220464946B6
:1045A00005F054FC08B94649E3E7464B4FF060423A
:1045B0002046294605F05EFC08B14349D9E7434B44
:1045C0004FF060422046294605F036FC0028F4D121
:1045D000002200232046294605F02EFC002846D064
:1045E00005F100431D464FF0010A0FF2C409D9E955
:1045F000008937494FF0000B00205FFA8BF39E4291
:1046000037D802460B462046294604F0EDFF0D46FA
:10461000044605F077FC5346014681460A22384697
:10462000FFF743FF8046002EA7D0484605F018F953
:104630000B4602462946204604F0D4FF0F2E4FF0C9
:104640002E0328BF0F26EA468DF80030B146D34628
:1046500009F1FF395FFA89F9B9F1FF0F10D13B6811
:1046600001365B68F2B259463846984785E782467C
:10467000BBE742464B4605F06DF90BF1010BBCE779
:104680000022144B05F066F90D46044605F03AFC8D
:10469000C0B200F130030AF8013F05F0F1F802461C
:1046A0000B462046294604F09DFFD1E7AFF300807A
:1046B0009A9999999999B93FEDA70000FFFFEF7F6B
:1046C000F1A70000FFFFEF41F5A70000FFFFEFC1DA
:1046D0000000E03F0000244010B50446FFF71CFE38
:1046E000204610BD0C480D4A0D4908B50023036053
:1046F0008023037105F0B0FD0A4B1A68D2070AD473
:1047000001221A60084B094A1A60094A5A60094A8C
:104710009A60094ADA6008BD0052FF1F3013FF1F7C
:10472000D9460000B850FF1FBC50FF1FE33B0000FC
:10473000E53B0000E73B0000E93B00000C4A0D4967
:104740001368002B08BF0B460B4993FBF1F001FBEC
:1047500010330A49484344F2A71101FB0300002823
:10476000BCBF00F1004000F1FF301060704700BF97
:104770000852FF1F24D95B071DF30100ECF4FFFF73
:1047800010B5044628B1FFF7D9FFB0FBF4F303FBE3
:104790001404204610BD884210B5044603DA081AF6
:1047A000FFF7EEFF0444204610BD08B5FCF778FC87
:1047B000FCF7BEFB00F044F8FAE705F013BC05F087
:1047C00019BC7047FFF7F8B8FFF7C6B8FFF79EB8F7
:1047D000FFF7DEB8FFF7A4B9FFF77EB90846114628
:1047E000FFF702B90846FFF76BB9FFFF114938B56B
:1047F0000B684BB1EFF3058333B9EFF3108272B658
:10480000086810B902B962B638BD0B4C2578002D86
:10481000F8D10123237043690B6043B19D6102B954
:1048200062B600258368457798472570ECE7034911
:104830000B60F4E77051FF1F7C51FF1F8051FF1F79
:104840002DE9F8431B4C2378E3B11B4D2A78CAB9F4
:104850000122D9072A700BD5FFF79AF808B1FFF7A4
:10486000B0FF164A2378127812B123F001032370A7
:1048700023789A0718D400232B7023785B0701D57F
:10488000FFF7B4FFBDE8F88359F823703B6838465A
:104890001B69984708B13B699847013698F8002092
:1048A000F3B29A42F0D8E6E7DFF81480DFF814900C
:1048B0000026F3E77839FF1F0C52FF1FECA700001A
:1048C0009C51FF1F8451FF1F37B50E4B00930446C8
:1048D0000D4B0E4A002100F061FA04F13C050C4B2F
:1048E00000930C4A0C4B0121284600F057FA022392
:1048F0002046C4E91F45C4E9214584F8783003B057
:1049000030BD00BF00B0034024A8000028A800006C
:1049100000B00B406CA8000026A8000072B6036B24
:104920005B0103F18443012200214276C3F89C1409
:10493000C3F89824C3F89C2462B6704790F82130DD
:104940008B4218D0012911D10B4B60221A70E12241
:104950005A700A4B83F84010036B80F821105B01FA
:1049600003F18443C3F80014FFF7D8BF0029FBD13B
:10497000014B5970EDE77047004007400000FA42D4
:1049800090F822308B4230B400F0B380092900F255
:10499000AB80DFE801F005052B3947566573979D1D
:1049A000036B5A0102F184425B01002403F184434A
:1049B000C2F888410122C3F81C216122036B5C010B
:1049C00004F184445B0103F184430025C4F88C5155
:1049D00002F00304C3F80041C2F340149209C3F883
:1049E0000451C3F81441C3F8182166E0036B5A015F
:1049F0005B0102F1844203F184430024C2F8884140
:104A0000C3F81C416022D9E7036B5A0102F18442CA
:104A10005B01012403F18443C2F888410022C3F8FA
:104A20001C21EFE7036B5A0102F184425B01012470
:104A300003F18443C2F888410022C3F81C214022BC
:104A4000BCE7036B5A0102F184425B01012403F1CC
:104A50008443C2F888410022C3F81C212022ADE71C
:104A6000036B5A0102F1844200245B01C2F88841C1
:104A700003F184430122C3F81C210BE0036B5A01AC
:104A800002F1844201245B0103F18443C2F88841AE
:104A9000C3F81C41036B5A0102F184425B0103F12C
:104AA00084430124C2F88C410022C3F80441C3F8B6
:104AB0000041C3F81821C3F8142130BC80F822103B
:104AC000FFF72CBF036B5A0102F184420024DAE79E
:104AD000036B5A0102F1844201245B01C2F8884150
:104AE00003F184430022C6E7C38A9BB243F001036B
:104AF000C38230BC704738B5437E05460C460BB1C7
:104B000000F029F82B6B5B0103F18443012C03F5C2
:104B1000906305D800229A60134685F8203038BD8E
:104B20000122042C9A6004D800225A601A600423DF
:104B3000F3E7082C04D81A6000225A600823ECE737
:104B4000102C9BBF002119605A605A608ABF1A60FE
:104B500010232023E1E7F8B50446236B5B0103F142
:104B6000844303F59063DA69002A3CD19B6923B141
:104B7000E38A9BB243F00203E38272B6637E03B31F
:104B8000226B936BD76B166C556C906CD16C3B445D
:104B900033442B4403440B44C3F34E0343F4004318
:104BA000D362936DD76D166E556E906ED16E3B4489
:104BB00033442B4403440B44C3F34E0343F40043F8
:104BC000136362B6A37E002565765BB120460221A1
:104BD000FFF7D6FE022100F009F804212046FFF776
:104BE0008AFFA576F8BDFFF72BFEB6E738B5437E02
:104BF00004460D460BB1FFF7AEFF042D13D8DFE8D6
:104C000005F0031525354400236B5A0102F1844257
:104C10005B0103F184430121C2F810110022C3F8A3
:104C20008421C3F8802184F8235038BD236B5A01B6
:104C300002F184425B01012103F18443C2F81011A7
:104C40000022C3F88011C3F88421ECE7236B5A01DA
:104C500002F184425B01012103F18443C2F8101187
:104C60000022C3F88021C3F88411DCE7236B5A01CA
:104C70005B0103F1844302F184420121C2F8101167
:104C8000C3F88411C3F88011CDE7236B5B0103F1F6
:104C900084430022C3F81021C5E738B5C37E8B4298
:104CA00004460D461CD0437E0BB1FFF754FF092D7F
:104CB00017D90B2D17D90E2D34BF0C221022236BC0
:104CC000A2F108015B01C9B203F18443012903F594
:104CD00080730AD80021D9609960FF23E361E276EE
:104CE00038BD0822EBE70A22E9E7A2F10A01C9B2BE
:104CF000012906D8002199600121D96040F2FF33D3
:104D0000ECE7A2F10C01C9B201294FF001019BBFF0
:104D100099600021D960D9608ABF996040F6FF731D
:104D20004FF6FF73DAE7FFFF38B5027E194B0446F2
:104D30005ABBDA6B42F00062DA63174B2362236BD3
:104D40005B0103F184430021012584F82810E176FA
:104D5000E1616176E18261752046C3F89051FFF709
:104D6000EDFD0A21FFF799FF2046A5762021FFF7E8
:104D7000C2FE20462946FFF703FE2946FFF736FF0D
:104D80002046BDE83840FFF7C9BD1A6B42F000620B
:104D90001A63D2E7008004400002040410B54262A6
:104DA000094AC3620029029B0363084B017608BFCE
:104DB0001346436314BF49232723044680F8383041
:104DC000FFF7B2FF204610BD10600340386003407B
:104DD0007047FFFF38B50C4605462022002104F13C
:104DE000080005F0DEF907490B22204605F0ACF972
:104DF0000123E360AB68236103236361024B2362F9
:104E000038BD00BFB0A800000AD7233C182205F027
:104E1000AEB9FFFF73B50193094B03600023C0E9EE
:104E20000131044610201646FFF7C7FC019A3146AF
:104E3000054600F0E7F92046656002B070BD00BF8E
:104E4000C0A800001FB50023CDE900338DF80C1079
:104E50008DF80D200123022203A9406800F003FA17
:104E600005B05DF804FB08B50A4601733D21FFF764
:104E7000E9FFBDE808401E20FDF704BD70B50D46F2
:104E800000210446067BFFF7EEFF1920FDF7FAFC30
:104E9000002207212046FFF7D5FF85B180223F2160
:104EA0002046FFF7CFFF0A20FDF7ECFC20463146F5
:104EB000FFF7D9FFBDE870401420FDF7E3BC2A4698
:104EC000EDE71FB501220023CDE9002303AB8DF8E8
:104ED0000C104068194600F037FA9DF80C0005B038
:104EE0005DF804FBF8B504460E464068002100F06A
:104EF000ABF955276068012100F0A6F9054648B9CD
:104F00000A20FDF7BFFC013FF4D100252846F8BD7B
:104F10000A2019E000212046FFF7D3FFA02809D07E
:104F20004FF47A70FDF7AEFC00212046FFF7C9FF71
:104F3000A028EAD100212046FFF795FF20223F213B
:104F40002046FFF77FFF1E20FDF79CFC0021204636
:104F5000FFF7B7FFA028DBD13220FDF793FC00223A
:104F60003E212046FFF76EFF0A20FDF78BFC002252
:104F700007212046FFF766FF00223F212046FFF76A
:104F800061FF0A20FDF77EFC20463146FFF76BFFEC
:104F90001420FDF777FCB9E7F8B50E463521069FDA
:104FA00015461C46FFF78DFF0EB18309337015B10E
:104FB000C0F301132B7014B1C0F38103237017B138
:104FC00000F003003870F8BD08B53421FFF779FF11
:104FD00040B208BD1FB58DF80C100021CDE900319D
:104FE000134603A90122406800F0AEF905B05DF850
:104FF00004FBFFFFF7B50E461546002118220446B4
:1050000005F0CFF800230093ADF8043030460623B6
:105010006A462946FFF7DEFF1A2DBDF90000BDF9EB
:105020000270BDF904600DD008D80E2D0AD0142DE1
:1050300008D0082D21D0204603B0F0BD282D1CD06B
:105040002E2DF7E704F01CFC184B002204F082FC24
:10505000C4E90001384604F013FC144B002204F0AC
:1050600079FCC4E90201304604F00AFC0F4B00222F
:1050700004F070FCC4E90401DDE704F001FC0C4B12
:10508000002204F091FDC4E90001384604F0F8FB69
:10509000074B002204F088FDC4E90201304604F009
:1050A000EFFB034B002204F07FFDE3E70000B03F7D
:1050B0000000594030B50C4689B005462022002139
:1050C000201D05F06EF824232360AB686360032382
:1050D000A3600E4B1B680193019B23611A22294692
:1050E00002A8FFF787FFDDE9020104F02BFF6061F2
:1050F000DDE9040104F026FFA061DDE9060104F00A
:1051000021FFE061012009B030BD00BF644CFF1FEA
:1051100070B50C468EB00646154600212022201D93
:1051200005F03FF824232360B3686360344B1B68A9
:105130000193019B23611822002102A805F031F898
:10514000282D17D10A23A3602A46314608A8FFF765
:1051500051FF08A902A8FFF759FEDDE9020104F09A
:10516000F1FE6061DDE9040104F0ECFEA061DDE91F
:10517000060139E0142D11D006D8082D0AD00E2DC5
:1051800036D001200EB070BD1A2D05D02E2DF8D1CD
:105190000923D8E70123D6E70323D4E70423A36038
:1051A0002A46314608A8FFF725FF08A902A8FFF7FD
:1051B0002DFE11A3D3E90023DDE9020104F0CAFBAF
:1051C00004F0C0FE0CA3D3E900236061DDE9040113
:1051D00004F0C0FB04F0B6FE07A3D3E90023A061EE
:1051E000DDE9060104F0B6FB04F0ACFEE061C8E7BF
:1051F0000223A8E7AFF30080000000A046DF913F44
:10520000644CFF1F42600022027220220170C260C3
:105210007047037A10B5044683B122786368012190
:10522000520083F8A32083F82E1183F82D116068B3
:1052300001F0D2FCB0FA80F0400910BD012100F06D
:1052400003F80028E9D1F8E738B5044640680D4670
:1052500001F090FB0120207225B12046BDE83840C6
:10526000FFF7D7BF38BD2DE9F0418846DDE90616C6
:105270001F46C368154632449A42044602D90020AC
:10528000BDE8F08102784368520083F8A320012230
:1052900083F82E2183F82D217EB9606803682A46A1
:1052A0005B68414698478542E9D16068394601F01C
:1052B00093FCB0FA80F04009E2E7406803685B685D
:1052C0000029EAD0324698478642D8D1E5E72DE951
:1052D000F041144605460F46D2B20178406801F00D
:1052E000EDFC84420ED10026B44206F1010802D83A
:1052F0000120BDE8F081686803685B699847B8558C
:105300004646F1E70020F4E72DE9F84307468846D2
:10531000164699460025B54202D30120BDE8F88320
:10532000FB68741B9C4228BF1C46331BAB4294BFD6
:105330004B460023224608EB05013846FFF7C7FF1E
:105340000028EBD02544E6E773B51D460023CDE9E0
:1053500000339DF81C30069E0446FFF784FF40B1E1
:10536000012332462946204602B0BDE87040FFF7CF
:10537000CBBF02B070BDFFFFF0B5002A134E144F33
:1053800014BF4FF060544FF06454002236F8025BB3
:10539000B7FBF5F5A94211D3190714D40D495B07E2
:1053A00051F8222007D522F47043120902F47062EA
:1053B00044F000741A4322430260F0BD0132172A00
:1053C000E4D11622E8E744F08064E7E7DCA90000B6
:1053D000008793030CAA000010B50446FFF7CCFF2A
:1053E000204610BDC37A30B573B372B6C37ADD07F9
:1053F00008D54FF0E024C568D4F880212A40C26166
:10540000C4F880219C0708D54FF0E0240569D4F842
:1054100084212A400262C4F884215A0708D54FF03B
:10542000E0244569D4F888212A404262C4F88821E2
:105430001B0708D54FF0E0228469D2F88C31234055
:105440008362C2F88C3162B60368DA688A4207D098
:10545000044A1A60D960044A41F0804119611A6017
:1054600030BD00BF01403F0000003F80C37ADBB188
:10547000DA0742BF4FF0E022C169C2F80011990774
:1054800042BF4FF0E022016AC2F804115A0742BF3E
:105490004FF0E022416AC2F808111B0742BF4FF0EB
:1054A000E023826AC3F80C217047FFFF014B024AD8
:1054B0001A6070471052FF1F03200038F0B5194BD7
:1054C00019491B78194F012202FA03F30B6018499E
:1054D0000E78184902FA06F60E6017490D7817493A
:1054E00002FA05F50D6016490C78164902FA04F423
:1054F0000C6015490878154902FA00F00860144953
:10550000097802FA01F13960124F33433F782B4397
:105510002343BA400343104F0B4313433A600F4AEF
:105520001360F0BD7F39FF1F3052FF1F1452FF1F61
:105530007B39FF1F2052FF1F7C39FF1F2452FF1FA2
:105540007D39FF1F2852FF1F7E39FF1F2C52FF1F7E
:105550007939FF1F7A39FF1F1C52FF1F1852FF1F96
:1055600070B500210446FEF7C7FBC0B1B4F91E2098
:10557000B4F92030011D00F5827631F9025BAA42B0
:10558000A8BF2A46AB42B8BF2B46B142F5D123840F
:105590000123E2832377BDE87040FEF771BB70BD45
:1055A00030B5154B1A681979144B1269D977144B19
:1055B0009A420AD2134A127822B14FF0E022012116
:1055C000C2F8081203F1800101E01946803B0E4A3F
:1055D000126882B10D4C2088402828BF402000F17D
:1055E000400502EB40022580023233F8020B22F81C
:1055F000020F9942F9D830BD3C52FF1F0080004095
:10560000600EFF1F3A52FF1F3452FF1F3852FF1F18
:105610002DE9F0410546FEF7EBFA72B61F4A1188F4
:105620007F290DD820B11E4C216821B9206011803E
:1056300062B6BDE8F08162B6BDE8F041FEF720BB7E
:10564000174900230C681380086062B6154F164E88
:105650003B683068DFF854C0211D04F5827E0A885B
:105660008046A3EB0803900303EB823282FB0C38E5
:105670004FEA880848EA937323F38F3212B221F875
:10568000022B7145EBD13060A4F80221284600229C
:1056900021463B60FEF71CFB2046CDE73852FF1F3A
:1056A0003452FF1F4852FF1F4452FF1F00B0FB3F00
:1056B00010B50446FEF74AFD204610BD10B504465D
:1056C0001020FCF739FE0220FCF712FE0420FCF744
:1056D0005FFE2046FCF78EFE384B03EA8030384BE5
:1056E0001860384B00221A60374BDB6B5B0212D517
:1056F000364B196848F6A2728A430CD1596840F2B9
:105700004F52914207D1DA68012A04D11A6940F256
:1057100001139A4212D02C4AD36B43F48003D36313
:105720002A4B0122DA6040F24F525A6048F6A372C7
:105730001A60274A1A6040F201121A61254A264C63
:10574000136A43F04403136201212046FEF7ACFCC8
:105750002368224A1A60224A224818610221C3E9BA
:10576000012199828021D9820022D9836FF0FF0024
:1057700006219983DA609861237903F1804303F568
:1057800004331A70A8221A70FEF798FB164B227980
:105790001870164B1648DA7602F11001154B43F8D3
:1057A0002100531103F1382340339B0002F01F0204
:1057B000012101FA02F21A6010BD00BF00C0FF3FD4
:1057C0004452FF1F4852FF1F008004400060034006
:1057D000A28F010000B003403C52FF1F10B00340F5
:1057E00000000101E00DFF1F3A52FF1F0080004042
:1057F000A1550000000CFF1F024A0349034804F0B2
:105800002BBD00BF3013FF1FB15600003C52FF1FDD
:1058100008B5064A0649074804F01EFDBDE80840E1
:10582000024A0349044804F017BD00BF3013FF1FAC
:10583000B15600004C52FF1F5452FF1F024A034949
:10584000034804F009BD00BF3013FF1FB15600002C
:105850005C52FF1F024A0349034804F0FDBC00BF2D
:105860003013FF1FB15600006452FF1F024A034964
:10587000034804F0F1BC00BF3013FF1FB156000015
:105880006C52FF1F024A0349034804F0E5BC00BF05
:105890003013FF1FB15600007452FF1F024A034924
:1058A000034804F0D9BC00BF3013FF1FB1560000FD
:1058B0007C52FF1F024A0349034804F0CDBC00BFDD
:1058C0003013FF1FB15600008452FF1F024A0349E4
:1058D000034804F0C1BC00BF3013FF1FB1560000E5
:1058E0008C52FF1F024A0349034804F0B5BC00BFB5
:1058F0003013FF1FB15600009452FF1F024A0349A4
:10590000034804F0A9BC00BF3013FF1FB1560000CC
:105910009C52FF1F024A0349034804F09DBC00BF8C
:105920003013FF1FB1560000A452FF1F024A034963
:10593000034804F091BC00BF3013FF1FB1560000B4
:10594000AC52FF1F024A0349034804F085BC00BF64
:105950003013FF1FB1560000B452FF1F024A034923
:10596000034804F079BC00BF3013FF1FB15600009C
:10597000BC52FF1F024A0349034804F06DBC00BF3C
:105980003013FF1FB1560000C452FF1F024A0349E3
:10599000034804F061BC00BF3013FF1FB156000084
:1059A000CC52FF1F454B84222DE9F0411A6045225D
:1059B0001A60434F434C4FF0E0239A693B78E2541E
:1059C0000133DBB21F2B3B7052D93F4E3F4D337832
:1059D0002A78DFF804C113443D4A03F0070313702B
:1059E00000213C4B8CF800102120013810F0FF0002
:1059F00040D111B120218CF800101178C9B253F8B0
:105A000021401178C9B253F8210000EBC40043F8DB
:105A100021001178C9B253F821401178C9B253F866
:105A2000210080EAD42043F821001178C9B253F84C
:105A300021401178C9B253F8210000EBC43043F87B
:105A4000210011781278C9B2D2B253F8211043F86C
:105A5000221000233B702B78082B0BBF33782B7858
:105A6000013301330BBF03F00703DBB233702B703C
:105A7000BDE8F081117814F801EBC9B253F8218028
:105A8000C64443F821E01178C9B253F82180117857
:105A9000C9B253F821E00EEB882E43F821E01178CB
:105AA000C9B253F821801178C9B253F821E08EEAC7
:105AB000981E43F821E0012197E700BF0000044051
:105AC000F452FF1FD452FF1F1B53FF1F1953FF1F18
:105AD0001A53FF1FF852FF1F1853FF1F0C480D4A9F
