:1000000000000320D1010000B91D0000851D000083
:10001000851D0000851D0000851D0000851D000058
:10002000851D0000851D0000851D0000B91D000014
:10003000B91D0000851D0000B13A0000B53A00006E
:10004000B91D0000B91D0000B91D0000B91D000058
:10005000B91D0000B91D0000B91D0000B91D000048
:10006000B91D0000B91D0000B91D0000B91D000038
:10007000B91D0000B91D0000B91D0000B91D000028
:10008000B91D0000B91D0000B91D0000B91D000018
:10009000B91D0000B91D0000B91D0000B91D000008
:1000A000616700006D670000B91D0000B91D000008
:1000B000B91D0000B91D0000B91D0000AD210000F0
:1000C000B91D00000D230000B91D00006D240000C3
:1000D000B91D00007D250000B91D0000B91D0000FC
:1000E000B91D0000B91D0000B91D000091540000A9
:1000F0004D6100000D550000B91D0000B91D000044
:10010000893C0000A53C0000C13C0000DD3C000033
:10011000C55F0000B92A0000B91D0000B91D00002C
:10012000B91D0000B91D0000A9520000B91D000052
:10013000B91D0000B91D0000B91D0000B91D000067
:10014000E1370000B91D00008D260000B91D000038
:10015000B91D0000B91D0000B91D0000B91D000047
:10016000B91D0000B91D000079670000B91D00002D
:10017000B91D0000B91D0000B91D0000B91D000027
:10018000B91D00006D6D0000B91D0000B91D000013
:10019000B91D0000B91D00009D270000B91D000019
:1001A000B91D0000B91D0000B91D000085670000E1
:1001B000B91D0000B91D0000B91D0000B91D0000E7
:1001C000B91D0000B91D0000B91D0000B91D0000D7
:1001D0005F4B4CF2205210B5DA814DF62812DA81CD
:1001E00000BF00BF01F0ECFD5A4B5B484FF030629E
:1001F0001A635A4A9A635A4ADA634FF0E0234FF47B
:100200007002C3F8882D03F5E823564A1A60564B4E
:100210009A78110742BF9A7842F008029A70534BBD
:10022000AA221A70524BDA1C121AC11E22F00302C3
:10023000994288BF00224F4907F0A8FF4E4B4F4814
:10024000DA1C121AC11E22F00302994288BF002252
:10025000002107F056FF4A494A484FF4E87207F078
:1002600095FF494B494A802103F8011B9342FBD17A
:100270004FF0E023434AC3F8082D454B8A221A70F9
:10028000A3F5805324225A70A0221A709A799207FB
:10029000FCD59A79D406FCD43E4A937903F00C033A
:1002A000082BFAD1314B60225A70DA78802AFCD1BF
:1002B000384B01221A715D225A719A799006FCD549
:1002C0009A795106FCD5234A33495164002191643F
:1002D000202119702F498B7903F00C030C2BFAD1D4
:1002E0002E4B53602E4A136913F4807302BF53617F
:1002F0004FF4A85313614FF0E0232A4A5A610022B9
:100300009A6107221A61284AC3F8202D62B601F0CB
:1003100007FE234B5B69DA0705D5244801F0F4FD9D
:10032000234B244ADA61244B1B785B0609D5204C09
:10033000204BE2699A4204D11C4801F0E5FD0023FC
:10034000E36101F043FD07F0FBFE03F0E4FDFEE78F
:1003500000200540008004404012FF1F823F04003F
:100360000100002B0300008500D0074000E007409B
:10037000481FFF1F088D0000283CFF1F481FFF1F5C
:1003800000000000000CFF1F00E400E064E400E057
:10039000005006400040064000000602C010070062
:1003A00000D003401FBF020000002020000000001A
:1003B00000E00340A5C3945A00F00740FFFFFFFF91
:1003C000FFFFFFFFFFFFFFFFFFFFFFFFFFFFFFFF3D
:1003D000FFFFFFFFFFFFFFFFFFFFFFFFFFFFFFFF2D
:1003E000FFFFFFFFFFFFFFFFFFFFFFFFFFFFFFFF1D
:1003F000FFFFFFFFFFFFFFFFFFFFFFFFFFFFFFFF0D
:10040000FFFFFFFFFFFFFFFFFFFFFFFFDEF9FFFF23
:100410000548064B1B1AD90F01EBA301491002D066
:10042000034B03B118477047481FFF1F481FFF1FAA
:100430000000000008B5054B1BB105490548AFF3A6
:100440000080BDE80840FFF7E3BF00BF00000000E8
:10045000481FFF1F088D000000207047704740694B
:10046000704713B500230A460168ADF800308DF8D7
:100470000230ADF804308DF806300C68019B6946F7
:10048000A04702B010BD002070477047024A002309
:100490001380024A137070474826FF1F3817FF1F4A
:1004A0007047FFFF054B06481A780132D2B21A7026
:1004B0004FF40071012306F03BBB00BFF01FFF1F8C
:1004C0006026FF1F10B5044B044640F8143B04F0AF
:1004D000C1FC204610BD00BF1483000008B503F026
:1004E00065FD0A4B1B7803F0FF006BB1084B1878D1
:1004F00010F0010008D0074B1868074B1B68C01AA2
:100500000E2894BF0020012008BD00BF6C31FF1FE2
:100510008C31FF1F442DFF1F9031FF1F13B5044680
:1005200061B10846019107F03FFE236801995B68BD
:100530000246204602B0BDE81040184702B010BD88
:10054000FFF7ECBF10B50446FFF7E8FF2046BDE813
:10055000104003F05FBC10B50446006818B1A168F4
:10056000091A03F0E2FC204610BDFFFF2DE9F0431D
:10057000284E294D3368294CBFF35B8F13F0010FD0
:1005800085B00AD1304601F03AFC30B12B680193B6
:10059000019B2360304601F037FC2B680293029BDD
:1005A00022689B1A132B31D92B681D4F0393039B91
:1005B00023603B781B4D02333B7000242E464FF0E6
:1005C000F0094FF096083B788DF8019004EB840217
:1005D00013442946684601348DF800308DF80280B6
:1005E00006F0C4FAB4F5007F05F10305EBD103244E
:1005F000FF254FF40071002003F083FC00EB400066
:100600003318013C35545D709D70F2D105B0BDE8E2
:10061000F08300BFE81FFF1F442DFF1FEC1FFF1FCB
:10062000E41FFF1F6026FF1F10B504460D4B23601B
:10063000002310466172226123728A00E36019462A
:1006400007F05FFD084A136833B914600023636143
:100650006360A372204610BD1A465B69002BFBD174
:100660005461F3E708830000C831FF1F034B82B0D9
:100670001B680193019B036002B07047442DFF1F6C
:1006800013B5084A016812680192019A4368521A28
:10069000934294BF0124002401D8FFF7E7FF2046CE
:1006A00002B010BD442DFF1F02484FF4C06200216C
:1006B00007F027BD6026FF1F10B5054C0D202178DF
:1006C00001F0A0FC2378013B18BF0123237010BD6B
:1006D0003413FF1F70B51B491B4D04461B48FFF721
:1006E0002FFF00230A222146184803F0A0FB1748D9
:1006F00003F090FB64B2164B2A781A70002C2C7011
:10070000144C05DAD4E900239B1A9B10013B2B7093
:10071000114A01231370114A00211180104A1370ED
:10072000104A1370FFF7C0FF0F48017806F0A0F9D8
:10073000236895F9002053F822000368BDE8704053
:100740001B681847788200004A26FF1FE019FF1F28
:10075000202DFF1F4C26FF1F3717FF1F4826FF1FA6
:100760003817FF1F3917FF1F8C38FF1F094B0A4A24
:100770001B781844D2E9002340B29B1A00284FEAA4
:10078000A30302DA013B58B27047984228BF002009
:10079000704700BF4A26FF1F4C26FF1F08B5FFF712
:1007A000E5FFBDE80840C0B2FFF794BFF0B50A48C6
:1007B0000A4D0B4C002335F8022B02EB420203EBEF
:1007C0004301A7184618A25A42520133BA78B270B0
:1007D000B3F5007FEFD1F0BD1C20FF1F3613FF1FC4
:1007E0006026FF1F10B502F051FD00281FDD02F04A
:1007F0000BFDC0B26E2804D10120BDE81040FFF708
:10080000CDBF622802D14FF0FF30F6E7084C09490E
:100810002368094801332360FFF792FE21680648E8
:1008200003F0F0FABDE81040034803F0F3BA10BD3E
:100830000020FF1F87820000E019FF1F10B5094C40
:1008400094F90000431C04D0C0B2FFF743FFFF231C
:100850002370054C94F9000018B1FFF79FFF0023A7
:10086000237010BD3617FF1F602CFF1F38B5064CD4
:10087000064D2188284603F0C5FA284603F0CAFA37
:100880000023238038BD00BF5826FF1FE019FF1F3B
:1008900038B5FFF7D3FF384B1B780BB1FFF704FFD8
:1008A000364B93F90020364B1B6853F8220003683F
:1008B0005B689847334B1B782BB1FFF777FF3248C3
:1008C000017806F0D5F8314A314C13880133138092
:1008D0002368BFF35B8FD9070DD4204601F08FFA50
:1008E00048B12C4D2846FFF7C1FE4FF47A736B6078
:1008F000204601F089FA2748FFF7C2FE08B1FFF74A
:10090000DBFE254C2368BFF35B8FDA070CD420464F
:1009100001F075FA40B1214D2846FFF7A7FE642388
:100920006B60204601F070FA1C48FFF7A9FE08B181
:10093000FFF758FF1A4C2368BFF35B8FDB070DD41A
:10094000204601F05CFA48B1164D2846FFF78EFEAE
:100950004FF47A736B60204601F056FA1148FFF7A6
:100960008FFE08B1FFF782FF0F4B188818B1BDE862
:10097000384001F005BC38BD3817FF1F4A26FF1F5D
:100980004C26FF1F3917FF1F8C38FF1F5826FF1FEB
:10099000F41FFF1F0420FF1FF81FFF1F0C20FF1F65
:1009A000FC1FFF1F1420FF1F4826FF1F0023C0E964
:1009B000013343614FF0FF33C3600382012383742B
:1009C000054B1A6802B91860044B1A6802B19060AE
:1009D0001860034B03607047A038FF1FA438FF1F47
:1009E0005C830000814210B51346A1EB000405D0E2
:1009F00001462246184607F06AFB0346181910BD47
:100A00002DE9F341042003F08EFA954B036000902A
:100A1000042003F088FA934C934B22680360A36888
:100A200001909B1A072B00F2D980082003F07BFA73
:100A300002A9024605466846FFF7D4FF206818B1B0
:100A4000A168091A03F071FA25600835C4E9015557
:100A5000864DFFF743FD28B92B680093009BB3F543
:100A6000FA6FF6D92E68824F40F2EE28FFF736FD76
:100A7000002800F0CC807F497F48804EFFF762FD60
:100A80007F497D48FFF75EFD3568BFF35B8F15F04A
:100A900001050DD1304601F0B2F948B1794F384621
:100AA000FFF784FF784B3B60BD61304601F0ACF945
:100AB000764E774973480023802205F08DFF356814
:100AC000BFF35B8F15F001050DD1304601F097F9AA
:100AD00048B1704F3846FFF769FF6F4B3B60BD610F
:100AE000304601F091F980236C4E694969481A46F5
:100AF00005F072FF3568BFF35B8F15F001050DD16E
:100B0000304601F07CF948B1654F3846FFF74EFF9B
:100B1000644B3B60BD61304601F076F9624E5C4942
:100B20005F487F234FF4807205F056FF3568BFF3AE
:100B30005B8F15F001050DD1304601F060F948B129
:100B40005A4F3846FFF732FF594B3B60BD61304684
:100B500001F05AF94E495548812340F27F1205F0C1
:100B60003BFF544B544ADA6046F2A8129A6053494C
:100B7000414896221A70FFF7E5FC0021182001F089
:100B80006FFA4F48182105F03FFE4E493A48FFF7EB
:100B9000D9FC4D493848FFF7D5FC4C480C2103F0EF
:100BA00053FD002840D14A493348FFF7C9FC494862
:100BB000082102F059FE01210D2001F051FA002117
:100BC000242001F04DFA0A2001F0DAFA23681868AF
:100BD00003681B6802B0BDE8F04118476568AD1AAC
:100BE000072D09D902A96846FFF7FCFE6368984201
:100BF0003FF42EAF60602BE76D4429466846FFF74F
:100C0000F1FE626802A92846FFF7ECFEF2E72B68C6
:100C10003A789B1B32B1B3F5FA6F3FF62CAF03F075
:100C2000C5F923E74345F8E72B491348FFF78AFC4A
:100C3000C82001F0A5FA254803F060FD27490546C4
:100C40000D48FFF77DFC29460B4803F0DBF82449EB
:100C50000948FFF777FC1D48012103F0C1FCA6E716
:100C60003C8300004C26FF1F4C830000442DFF1FD7
:100C70006C31FF1F8C820000E019FF1FC41FFF1F93
:100C800097820000C81FFF1F80830000A41FFF1F62
:100C90001C20FF1FA81FFF1FA4830000841FFF1F2D
:100CA000881FFF1FC8830000641FFF1F681FFF1FEE
:100CB000EC8300008C38FF1FE16C0000A58200006F
:100CC000242DFF1FB0820000BE8200003826FF1FC7
:100CD000CA8200000002FF1FDE820000EF820000D7
:100CE000FD82000010B51021044603F01EF92046D5
:100CF00010BD006810B103685B6818477047FFFFBC
:100D0000704B10F0800F4FF008014FF0100214BF2D
:100D1000C3F8C410C3F8C810C3F8C42000BF00BF94
:100D200000BF00BF00BF00BF00BF00BFC3F8C820A6
:100D300000BF00BF00BF00BF624B10F0400F4FF07C
:100D400008014FF0100214BFC3F8C410C3F8C81054
:100D5000C3F8C42000BF00BF00BF00BF00BF00BF7A
:100D600000BF00BFC3F8C82000BF00BF00BF00BF66
:100D7000544B10F0200F4FF008014FF0100214BF39
:100D8000C3F8C410C3F8C810C3F8C42000BF00BF24
:100D900000BF00BF00BF00BF00BF00BFC3F8C82036
:100DA00000BF00BF00BF00BF464B10F0100F4FF058
:100DB00008014FF0100214BFC3F8C410C3F8C810E4
:100DC000C3F8C42000BF00BF00BF00BF00BF00BF0A
:100DD00000BF00BFC3F8C82000BF00BF00BF00BFF6
:100DE000384B10F0080F4FF008014FF0100214BFFD
:100DF000C3F8C410C3F8C810C3F8C42000BF00BFB4
:100E000000BF00BF00BF00BF00BF00BFC3F8C820C5
:100E100000BF00BF00BF00BF2A4B10F0040F4FF00F
:100E200008014FF0100214BFC3F8C410C3F8C81073
:100E3000C3F8C42000BF00BF00BF00BF00BF00BF99
:100E400000BF00BFC3F8C82000BF00BF00BF00BF85
:100E50001C4B10F0020F4FF008014FF0100214BFAE
:100E6000C3F8C410C3F8C810C3F8C42000BF00BF43
:100E700000BF00BF00BF00BF00BF00BFC3F8C82055
:100E800000BF00BF00BF00BF0E4B10F0010F4FF0BE
:100E900008014FF0100214BFC3F8C410C3F8C81003
:100EA000C3F8C42000BF00BF00BF00BF00BF00BF29
:100EB00000BF00BFC3F8C82000BF00BF00BF00BF15
:100EC000704700BF00F00F402DE9F84F00F1180601
:100ED00080690C4610B103681B689847002094F89D
:100EE00012A094F8138094F81490FFF709FF0020E3
:100EF000FFF706FF0020FFF703FF0020FFF700FFCA
:100F000008F1010809F101090AF1010AA368002B9F
:100F100017DC6468002CB8BF1F346411FF20FFF792
:100F2000EFFE0020FFF7ECFE0020FFF7E9FE0020B7
:100F3000FFF7E6FE013CF1D23046FFF7DAFEBDE8EE
:100F4000F88F2268A369D118D75C4D7891F802B068
:100F500008FB05F52D120AFB07F709FB0BFB3F12F7
:100F60002D02FF204FEA2B2B67F0FF07ADB2FFF7F2
:100F7000C7FE45EA0B05F8B2FFF7C2FE280AFFF7E5
:100F8000BFFEE8B2FFF7BCFE227BE37B9B1A237314
:100F9000627B237C9B1A6373A27B637C9B1AA37383
:100FA00094F91520236813442360A368013BA360D0
:100FB000ACE7006810B103685B6818477047FFFF33
:100FC000704B10F0800F4FF004014FF0100214BF6F
:100FD000C3F8C410C3F8C810C3F8C42000BF00BFD2
:100FE00000BF00BF00BF00BF00BF00BFC3F8C820E4
:100FF00000BF00BF00BF00BF624B10F0400F4FF0BA
:1010000004014FF0100214BFC3F8C410C3F8C81095
:10101000C3F8C42000BF00BF00BF00BF00BF00BFB7
:1010200000BF00BFC3F8C82000BF00BF00BF00BFA3
:10103000544B10F0200F4FF004014FF0100214BF7A
:10104000C3F8C410C3F8C810C3F8C42000BF00BF61
:1010500000BF00BF00BF00BF00BF00BFC3F8C82073
:1010600000BF00BF00BF00BF464B10F0100F4FF095
:1010700004014FF0100214BFC3F8C410C3F8C81025
:10108000C3F8C42000BF00BF00BF00BF00BF00BF47
:1010900000BF00BFC3F8C82000BF00BF00BF00BF33
:1010A000384B10F0080F4FF004014FF0100214BF3E
:1010B000C3F8C410C3F8C810C3F8C42000BF00BFF1
:1010C00000BF00BF00BF00BF00BF00BFC3F8C82003
:1010D00000BF00BF00BF00BF2A4B10F0040F4FF04D
:1010E00004014FF0100214BFC3F8C410C3F8C810B5
:1010F000C3F8C42000BF00BF00BF00BF00BF00BFD7
:1011000000BF00BFC3F8C82000BF00BF00BF00BFC2
:101110001C4B10F0020F4FF004014FF0100214BFEF
:10112000C3F8C410C3F8C810C3F8C42000BF00BF80
:1011300000BF00BF00BF00BF00BF00BFC3F8C82092
:1011400000BF00BF00BF00BF0E4B10F0010F4FF0FB
:1011500004014FF0100214BFC3F8C410C3F8C81044
:10116000C3F8C42000BF00BF00BF00BF00BF00BF66
:1011700000BF00BFC3F8C82000BF00BF00BF00BF52
:10118000704700BF00F00F402DE9F84F00F118063E
:1011900080690C4610B103681B689847002094F8DA
:1011A00012A094F8138094F81490FFF709FF002020
:1011B000FFF706FF0020FFF703FF0020FFF700FF07
:1011C00008F1010809F101090AF1010AA368002BDD
:1011D00017DC6468002CB8BF1F346411FF20FFF7D0
:1011E000EFFE0020FFF7ECFE0020FFF7E9FE0020F5
:1011F000FFF7E6FE013CF1D23046FFF7DAFEBDE82C
:10120000F88F2268A369D118D75C4D7891F802B0A5
:1012100008FB05F52D120AFB07F709FB0BFB3F1234
:101220002D02FF204FEA2B2B67F0FF07ADB2FFF72F
:10123000C7FE45EA0B05F8B2FFF7C2FE280AFFF722
:10124000BFFEE8B2FFF7BCFE227BE37B9B1A237351
:10125000627B237C9B1A6373A27B637C9B1AA373C0
:1012600094F91520236813442360A368013BA3600D
:10127000ACE7006810B103685B6818477047FFFF70
:10128000704B10F0800F4FF002014FF0100214BFAE
:10129000C3F8C410C3F8C810C3F8C42000BF00BF0F
:1012A00000BF00BF00BF00BF00BF00BFC3F8C82021
:1012B00000BF00BF00BF00BF624B10F0400F4FF0F7
:1012C00002014FF0100214BFC3F8C410C3F8C810D5
:1012D000C3F8C42000BF00BF00BF00BF00BF00BFF5
:1012E00000BF00BFC3F8C82000BF00BF00BF00BFE1
:1012F000544B10F0200F4FF002014FF0100214BFBA
:10130000C3F8C410C3F8C810C3F8C42000BF00BF9E
:1013100000BF00BF00BF00BF00BF00BFC3F8C820B0
:1013200000BF00BF00BF00BF464B10F0100F4FF0D2
:1013300002014FF0100214BFC3F8C410C3F8C81064
:10134000C3F8C42000BF00BF00BF00BF00BF00BF84
:1013500000BF00BFC3F8C82000BF00BF00BF00BF70
:10136000384B10F0080F4FF002014FF0100214BF7D
:10137000C3F8C410C3F8C810C3F8C42000BF00BF2E
:1013800000BF00BF00BF00BF00BF00BFC3F8C82040
:1013900000BF00BF00BF00BF2A4B10F0040F4FF08A
:1013A00002014FF0100214BFC3F8C410C3F8C810F4
:1013B000C3F8C42000BF00BF00BF00BF00BF00BF14
:1013C00000BF00BFC3F8C82000BF00BF00BF00BF00
:1013D0001C4B10F0020F4FF002014FF0100214BF2F
:1013E000C3F8C410C3F8C810C3F8C42000BF00BFBE
:1013F00000BF00BF00BF00BF00BF00BFC3F8C820D0
:1014000000BF00BF00BF00BF0E4B10F0010F4FF038
:1014100002014FF0100214BFC3F8C410C3F8C81083
:10142000C3F8C42000BF00BF00BF00BF00BF00BFA3
:1014300000BF00BFC3F8C82000BF00BF00BF00BF8F
:10144000704700BF00F00F402DE9F84F00F118067B
:1014500080690C4610B103681B689847002094F817
:1014600012A094F8138094F81490FFF709FF00205D
:10147000FFF706FF0020FFF703FF0020FFF700FF44
:1014800008F1010809F101090AF1010AA368002B1A
:1014900017DC6468002CB8BF1F346411FF20FFF70D
:1014A000EFFE0020FFF7ECFE0020FFF7E9FE002032
:1014B000FFF7E6FE013CF1D23046FFF7DAFEBDE869
:1014C000F88F2268A369D118D75C4D7891F802B0E3
:1014D00008FB05F52D120AFB07F709FB0BFB3F1272
:1014E0002D02FF204FEA2B2B67F0FF07ADB2FFF76D
:1014F000C7FE45EA0B05F8B2FFF7C2FE280AFFF760
:10150000BFFEE8B2FFF7BCFE227BE37B9B1A23738E
:10151000627B237C9B1A6373A27B637C9B1AA373FD
:1015200094F91520236813442360A368013BA3604A
:10153000ACE7006810B103685B6818477047FFFFAD
:10154000704B10F0800F4FF001014FF0100214BFEC
:10155000C3F8C410C3F8C810C3F8C42000BF00BF4C
:1015600000BF00BF00BF00BF00BF00BFC3F8C8205E
:1015700000BF00BF00BF00BF624B10F0400F4FF034
:1015800001014FF0100214BFC3F8C410C3F8C81013
:10159000C3F8C42000BF00BF00BF00BF00BF00BF32
:1015A00000BF00BFC3F8C82000BF00BF00BF00BF1E
:1015B000544B10F0200F4FF001014FF0100214BFF8
:1015C000C3F8C410C3F8C810C3F8C42000BF00BFDC
:1015D00000BF00BF00BF00BF00BF00BFC3F8C820EE
:1015E00000BF00BF00BF00BF464B10F0100F4FF010
:1015F00001014FF0100214BFC3F8C410C3F8C810A3
:10160000C3F8C42000BF00BF00BF00BF00BF00BFC1
:1016100000BF00BFC3F8C82000BF00BF00BF00BFAD
:10162000384B10F0080F4FF001014FF0100214BFBB
:10163000C3F8C410C3F8C810C3F8C42000BF00BF6B
:1016400000BF00BF00BF00BF00BF00BFC3F8C8207D
:1016500000BF00BF00BF00BF2A4B10F0040F4FF0C7
:1016600001014FF0100214BFC3F8C410C3F8C81032
:10167000C3F8C42000BF00BF00BF00BF00BF00BF51
:1016800000BF00BFC3F8C82000BF00BF00BF00BF3D
:101690001C4B10F0020F4FF001014FF0100214BF6D
:1016A000C3F8C410C3F8C810C3F8C42000BF00BFFB
:1016B00000BF00BF00BF00BF00BF00BFC3F8C8200D
:1016C00000BF00BF00BF00BF0E4B10F0010F4FF076
:1016D00001014FF0100214BFC3F8C410C3F8C810C2
:1016E000C3F8C42000BF00BF00BF00BF00BF00BFE1
:1016F00000BF00BFC3F8C82000BF00BF00BF00BFCD
:10170000704700BF00F00F402DE9F84F00F11806B8
:1017100080690C4610B103681B689847002094F854
:1017200012A094F8138094F81490FFF709FF00209A
:10173000FFF706FF0020FFF703FF0020FFF700FF81
:1017400008F1010809F101090AF1010AA368002B57
:1017500017DC6468002CB8BF1F346411FF20FFF74A
:10176000EFFE0020FFF7ECFE0020FFF7E9FE00206F
:10177000FFF7E6FE013CF1D23046FFF7DAFEBDE8A6
:10178000F88F2268A369D118D75C4D7891F802B020
:1017900008FB05F52D120AFB07F709FB0BFB3F12AF
:1017A0002D02FF204FEA2B2B67F0FF07ADB2FFF7AA
:1017B000C7FE45EA0B05F8B2FFF7C2FE280AFFF79D
:1017C000BFFEE8B2FFF7BCFE227BE37B9B1A2373CC
:1017D000627B237C9B1A6373A27B637C9B1AA3733B
:1017E00094F91520236813442360A368013BA36088
:1017F000ACE70121062000F033BC10B501210446FE
:10180000082000F02DFCFFF7F4FF04F11800FFF7AB
:1018100070FA10BD10B501210446072000F020FC2D
:10182000FFF7E7FF04F11800FFF7C3FB10BD10B589
:10183000012104460E2000F013FCFFF7DAFF04F14B
:101840001800FFF716FD10BD10B501210446022057
:1018500000F006FCFFF7CDFF04F11800FFF769FE6A
:1018600010BDFFFF70B5174B1A78013202F0070266
:101870001A70D3019107DBB248BF43F0400352070F
:1018800048BF43F02003103300F10C01DAB20F30EF
:101890004FF480768B791BB1B6FBF3F30133DBB2E7
:1018A00003FB0224C4F30725241218BF05F1FF34FB
:1018B000CB700C700BB1013BCB7001318842E9D188
:1018C00070BD00BF601FFF1F10B58AB0CDE90312C5
:1018D0000193837CBDF804100592012B9DF806202E
:1018E000ADF81E1004468DF820200ED103A8FFF796
:1018F000B9FF03238DF8213000230993236803A93E
:101900009B69204698470AB010BD00230693ADF8A6
:101910001C30EEE730B58BB0CDE903120193837C28
:10192000BDF804100592012B9DF80620ADF81E109D
:1019300004468DF820204FF000050CD103A8FFF7D6
:1019400091FF23688DF821509B69099503A92046D2
:1019500098470BB030BD0695ADF81C50F1E7FFFF7E
:101960002DE9FF418C2002F0DEFA044602F062FB12
:101970002D4B2E481C602E4C2E4EDFF8F4802E4F3F
:1019800004F018FF2D4B29224FF0FF31204602F0C2
:10199000F3FD20462A4C2B49324606F00DFC2A4A1C
:1019A0002E21204603F0AAF832462849204606F0A8
:1019B00003FC0022264C11464046FEF735FE254B1F
:1019C000C8F80030102003F0FBFA04F118020121DE
:1019D0002046FEF729FE204B236047F6FF73E38382
:1019E0004FF4004300252384384601F011FE2346BE
:1019F0002A4641460095384601F070FE32461749A6
:101A0000384606F0D9FB164B16481B680393164B55
:101A1000039A16491A603246C0E90055856004B041
:101A2000BDE8F04106F0C8BB1C26FF1F242DFF1F98
:101A30003826FF1F3013FF1FE82CFF1F781CFF1FE5
:101A4000642CFF1FA10400003C1BFF1FC504000005
:101A5000FC2CFF1FF0870000E48700009137000096
:101A6000442DFF1F4C26FF1F5C26FF1F570500005B
:101A70002026FF1FF8B52D4D2D4C6B6A1B0651D447
:101A8000626A12F080024DD172B62A490B78002B9F
:101A900046D0AB6BD5F83CE0D5F840C06F6CAE6C6F
:101AA000E86C734463443B4433440344C3F34E0340
:101AB00043F40043EB62AB6DD5F85CE0D5F860C051
:101AC0006F6EAE6EE86E734463443B44334403442C
:101AD000C3F34E0343F400432B63A36BD4F83CC021
:101AE000276C666CA56CE06C63443B4433442B4428
:101AF0000344C3F34E0343F40043E362A36DD4F8FD
:101B00005CC0276E666EA56EE06E63443B44334452
:101B10002B440344C3F34E0343F4004323630A708E
:101B200062B6F8BD02F042FAA7E700BF00B003407A
:101B300000B00B40402DFF1F1E4B60221A70E122A7
:101B40005A701D4B1D4A19781D4B08291AD12120A6
:101B500090601321D1609860D9601A4B17491B78A7
:101B6000174A03B101230B621362174B134A19780A
:101B7000134B012911D8802151625962134B012264
:101B80001A7070470A2901D13920E1E70C290CBFEE
:101B900035205D2012219060DCE7042901D88421E2
:101BA000EAE7082901D88521E6E7102994BF8621B4
:101BB0008721E1E7004007403A17FF1F00B00340CC
:101BC00000B00B403E2DFF1F3B17FF1F402DFF1F96
:101BD0000E4A137860B1BBB9012111700C4A12781A
:101BE00022B10C4A536202F500225362FFF7A4BFF0
:101BF00053B1074B10701B78002BF7D0054B586280
:101C000003F500235862F1E7704700BF3E2DFF1F28
:101C1000402DFF1F00B003400C2817D9102828BF03
:101C2000102010230E4A181A10700E4A107898428D
:101C3000D9B214D00C4B11701B782BB10B4A002376
:101C4000536202F500225362FFF776BF0A2804D8D8
:101C500008288CBF0A230823E4E70C23E2E7704737
:101C60003F2DFF1F3A17FF1F402DFF1F00B00340FD
:101C700010B5144B1B7804460BB1FFF7FBFE012C8B
:101C8000114A04D800235362104A137010BD042C6B
:101C90000F4903D8042353624B62F5E7082C04D89C
:101CA000052353624B620823EEE7102C95BF0623F1
:101CB00007235362536295BF4B624B62102320236C
:101CC000E2E700BF402DFF1F00B003403B17FF1F9E
:101CD00000B00B404728F8B544D8234B1C5CFF2CC0
:101CE00040D0224B1B780BB1FFF7C4FE21061BD559
:101CF00072B61F4D04F0400704F03F04EB68002F5C
:101D00002DD023F010031B4EEB6001232C603370A9
:101D100062B672B62B681B0612D43378002BEDD056
:101D200062B602F043F9F4E772B6134D134E4FF06A
:101D300001072C60377062B672B62B681A0607D599
:101D400000232869337062B60D4B1B781841F8BD2B
:101D50003378002BEDD062B602F028F9ECE743F0BF
:101D60001003D0E70020F2E708840000402DFF1F99
:101D700000B00B403D2DFF1F00B003403C2DFF1F66
:101D80003F2DFF1F08B50B4C636B580301D500F0C6
:101D900093FE636B590501D500F008FA636B1A05D1
:101DA00001D500F0B3FA636BDB04EDD500F05EFB08
:101DB000EAE700BF0080044008B5FFF7E3FFFFFF3C
:101DC000014B10221A807047002005407047FFFF2A
:101DD000094908B5034608685BB16A460344A2F5A1
:101DE0000052934206D306F0A5F90C2303604FF08E
:101DF000FF3008BD0B60FCE73C17FF1FFEE70078D3
:101E0000B0FA80F040097047012303707047FFFF6C
:101E1000074BDA78802A4FF0000007D1054A0649BF
:101E200051645870DA78802AFCD00120704700BFD6
:101E300000E007400080044000002822074BDA78C9
:101E4000012A09D160225A70DA78802AFCD1044B29
:101E5000044A5A64012070470020704700E00740A0
:101E6000008004400000060270B50024B0FBF2F5CB
:101E700002FB1506F3B2092E94BF30333733DBB2C1
:101E800082420B5502D801342846EFE70B19002295
:101E90005A70481EA51AAA4201DB084670BD10F808
:101EA000015F1E780670013203F80159F2E77047AE
:101EB00000F14040A0F592237C2B12D9A0F5942389
:101EC0007C2B10D9A0F596237C2B0ED9A0F5982356
:101ED0007C2B0CD9A0F59A207C28064888BF0020CE
:101EE00070470548704705487047054870470548E2
:101EF000704700BF8818FF1F4017FF1FB817FF1F4C
:101F00001818FF1F4818FF1F034B00225A615A6020
:101F1000102218605A61704700D003407047FFFFDD
:101F20004FF0E02337B54FF00062C3F804214FF0C3
:101F30008052C3F804214FF00052C3F804214FF03F
:101F40008042C3F804214FF00042C3F804212A491B
:101F50002A4A2823002009244EF6FF7548608D6028
:101F6000CB604B61CB614B62CB624B63CB634B6409
:101F7000D3605361D3615362D3625363D3635364B9
:101F80000C6001F5805148608D60CB604B610C6046
:101F900001F5FE2148608D60CB604B610C605060A4
:101FA0009560D36053611460A2F5E222144CD16AAB
:101FB00041F40071D162516841F00071516002F545
:101FC000012247F6FF7150609160D360536108238E
:101FD0001360FFF7B1FDFFF7A1FF23680093009B9B
:101FE000132BFAD901F07CF823680193019BB3F518
:101FF000967FF9D303B030BD0080034000900B40C2
:10200000442DFF1F3F2810B509D80D4B53F8302041
:1020100092F880423CB1012311B182F8803010BDAA
:1020200082F80031FBE703EBC0035B681A6819B163
:1020300042F003021A60F2E722F00202FAE700BF60
:10204000588400003F289FBF044B53F8303093F86A
:102050000002C0B288BF0020704700BF5884000053
:102060003F2817D8144A02EBC00301295B6852F8D5
:10207000300001D004290ED1012280F880224FF4D3
:10208000A2721A601A6804290CBF42F0200222F0E2
:1020900020021A607047002280F8802211B94FF4A4
:1020A0008072F6E7022902D140F20312F1E7032918
:1020B00008BF4FF48172ECE7588400003F2870B5E8
:1020C0000E4630D8042A2ED817498C5C174A02EBEA
:1020D000C00324045D68296811F4E06101D1FFF7B1
:1020E000BFFF134B134AC3F82C21134AC3F8302106
:1020F000124AC3F83421124AC3F83821114AC3F8EE
:102100003C212846FFF7D4FE68B172B62B6823F451
:1021100070232B601C43C5F3840344F0807440F8A3
:1021200023602C6062B670BD5084000058840000AB
:10213000000CFF1F0113FF1FD112FF1FA112FF1F71
:102140007112FF1F4112FF1F72B64FF0E0210B4AC0
:102150008B691268D1F8041D62B6490102D5322B91
:1021600088BF0132C3F52F334FF47A70B42103F2E4
:102170001F33B3FBF1F300FB02307047442DFF1F08
:1021800038B50446FFF7E0FF05466CB1FFF7DCFF0A
:10219000401BB0F57A7F02D201F008FFF6E7013C60
:1021A00002D005F57A75F1E738BDFFFFF0B5DFF82D
:1021B00020C19CF8043013F0300F0CD072B69CF89C
:1021C000163003F0FF07002B42D19CF80730402364
:1021D0008CF8113062B63E48C3781D06DEB227D5B2
:1021E00003791C0624D53B4A3B4B3C4D17683C4ABF
:1021F0001C782B78D2F800C0DFF808E1E4B2DBB23B
:10220000A3420DD0591C8F4257D8037900211EF8E4
:102210000120D2B2D2B2C271027D072A0B46EFD999
:10222000DBB22B702A4B1A79100644BF7C22DA707D
:1022300071060CD5264B1A79520608D5294A002179
:102240001170294A126802B111703C22DA70F0BD97
:1022500062B6264ADFF8B0E0254C9EF800301678CA
:10226000244A1568244A1068DBB2F6B29CF80710BD
:102270005A1C9542C9B227D9964203D03F2A19D891
:10228000A1541346791E11F0FF07EFD1DAB28EF890
:1022900000201A4A116800299DD0B3423CBFAA1BF6
:1022A0009B18174A126828BF9B1B934224BF012327
:1022B0000B7090E73F3BC154E3E73F290279A6D971
:1022C0003F3B1CF80320A4E7002EDBD00022D7E719
:1022D00000A00640FC18FF1FDD2DFF1FE42DFF1F8F
:1022E000E02DFF1F9C2DFF1F982DFF1F942DFF1F1A
:1022F0004C2DFF1FF818FF1F902DFF1F482DFF1FAB
:10230000F418FF1F9D2DFF1F8C2DFF1FF0B5DFF868
:1023100020C19CF8043013F0300F0CD072B69CF83A
:10232000163003F0FF07002B42D19CF80730402302
:102330008CF8113062B63E48C3781D06DEB227D550
:1023400003791C0624D53B4A3B4B3C4D17683C4A5D
:102350001C782B78D2F800C0DFF808E1E4B2DBB2D9
:10236000A3420DD0591C8F4257D8037900211EF883
:102370000120D2B2D2B2C271027D072A0B46EFD938
:10238000DBB22B702A4B1A79100644BF7C22DA701C
:1023900071060CD5264B1A79520608D5294A002118
:1023A0001170294A126802B111703C22DA70F0BD36
:1023B00062B6264ADFF8B0E0254C9EF80030167869
:1023C000244A1568244A1068DBB2F6B29CF807105C
:1023D0005A1C9542C9B227D9964203D03F2A19D830
:1023E000A1541346791E11F0FF07EFD1DAB28EF82F
:1023F00000201A4A116800299DD0B3423CBFAA1B95
:102400009B18174A126828BF9B1B934224BF0123C5
:102410000B7090E73F3BC154E3E727290279A6D927
:10242000273B1CF80320A4E7002EDBD00022D7E7CF
:1024300000B006400819FF1F652EFF1F6C2EFF1FFE
:10244000682EFF1F3C2EFF1F382EFF1F342EFF1F4C
:10245000EC2DFF1F0419FF1F302EFF1FE82DFF1F5B
:102460000019FF1F3D2EFF1F2C2EFF1F30B5344BD0
:102470001A7992062BD5334C334AD97933482378CD
:102480001268007801339A4298BF00239842C9B27B
:102490000BD03F2B8BBF2E4D2E482D68C15484BFCF
:1024A000A3F140002954D9B221702B49096871B1B8
:1024B0002A480478A342E0B23CBF121A9B18284A6B
:1024C000126828BF1B1A934224BF01230B701C4AB9
:1024D000D3781D06DCB20BD51379180608D5214B2D
:1024E0001E491D7808788542C3B211D16C23D37080
:1024F00061060CD5124B1A79520608D51A4A0021EA
:1025000011701A4A126802B111702C22DA7030BDB3
:10251000174800685A1C90420AD9272A0AD8154B36
:102520009B5C0748DBB2DBB2D2B2C3710A70DFE753
:102530000022F4E71048273B0068C35CF1E700BFC6
:1025400000C00640B42EFF1F1019FF1FBC2EFF1F36
:10255000B82EFF1F742EFF1F702EFF1FF42EFF1FBB
:102560000C19FF1FED2EFF1FC42EFF1FC02EFF1FD3
:102570001419FF1FC52EFF1FF02EFF1F30B5344B5F
:102580001A7992062BD5334C334AD97933482378BC
:102590001268007801339A4298BF00239842C9B26A
:1025A0000BD03F2B8BBF2E4D2E482D68C15484BFBE
:1025B000A3F140002954D9B221702B49096871B1A7
:1025C0002A480478A342E0B23CBF121A9B18284A5A
:1025D000126828BF1B1A934224BF01230B701C4AA8
:1025E000D3781D06DCB20BD51379180608D5214B1C
:1025F0001E491D7808788542C3B211D16C23D3706F
:1026000061060CD5124B1A79520608D51A4A0021D8
:1026100011701A4A126802B111702C22DA7030BDA2
:10262000174800685A1C90420AD9272A0AD8154B25
:102630009B5C0748DBB2DBB2D2B2C3710A70DFE742
:102640000022F4E71048273B0068C35CF1E700BFB5
:1026500000D006403C2FFF1F1C19FF1F442FFF1FF7
:10266000402FFF1FFC2EFF1FF82EFF1F7C2FFF1F88
:102670001819FF1F752FFF1F4C2FFF1F482FFF1F1B
:102680002019FF1F4D2FFF1F782FFF1F30B5344B30
:102690001A7992062BD5334C334AD97933482378AB
:1026A0001268007801339A4298BF00239842C9B259
:1026B0000BD03F2B8BBF2E4D2E482D68C15484BFAD
:1026C000A3F140002954D9B221702B49096871B196
:1026D0002A480478A342E0B23CBF121A9B18284A49
:1026E000126828BF1B1A934224BF01230B701C4A97
:1026F000D3781D06DCB20BD51379180608D5214B0B
:102700001E491D7808788542C3B211D16C23D3705D
:1027100061060CD5124B1A79520608D51A4A0021C7
:1027200011701A4A126802B111702C22DA7030BD91
:10273000174800685A1C90420AD9272A0AD8154B14
:102740009B5C0748DBB2DBB2D2B2C3710A70DFE731
:102750000022F4E71048273B0068C35CF1E700BFA4
:1027600000A00E40C42FFF1F2819FF1FCC2FFF1FF2
:10277000C82FFF1F842FFF1F802FFF1F0430FF1F54
:102780002419FF1FFD2FFF1FD42FFF1FD02FFF1F66
:102790002C19FF1FD52FFF1F0030FF1F354B5A6824
:1027A000920230B52BD5344C344AD968344823785A
:1027B0001268007801339A4298BF002398420CD0E7
:1027C0003F2B89BF2F4D30482D68A3F14000C9B27F
:1027D00094BFC1542954D9B221702C49096871B1F0
:1027E0002B480478A342E0B23CBF121A9B18294A36
:1027F000126828BF1B1A934224BF01230B701D4B84
:1028000099680D020ED55B681C020BD5224B20483F
:102810001C7803789C42DAB215D1204B01220020AB
:10282000C3E956204A020DD5124B5B685B0209D5FD
:102830001B4A002313701B4A126802B11370174A17
:10284000C2F8583130BD184C2468531C9C4209D939
:10285000272B09D8154AD25C064CD2B2DBB2E26013
:102860000370DFE70023F5E7114C273A2468A25CE8
:10287000F2E700BF00400C404C30FF1F3419FF1F2F
:102880005430FF1F5030FF1F0C30FF1F0830FF1F58
:102890008C30FF1F3019FF1F8530FF1F0000884359
:1028A0005C30FF1F5830FF1F3819FF1F5D30FF1FBE
:1028B0008830FF1F30B585B072B6FFF7A9FA154B07
:1028C00070221A70144A5A6080221A701A781206FE
:1028D000FCD5DC68FFF7B2FA62B6104B9C423CBFF5
:1028E0000A235C430A2201A92046FFF7BDFA0C48DF
:1028F00001AA0021054612F8014B0B46013124B113
:102900000A2920F8024FF6D10B4601335B002B70E9
:1029100005B030BD000002400000074180969800DD
:10292000C419FF1FF0B50C4C0C4E23780C4D43F02E
:10293000020706EBC70283F0010350602A78237078
:10294000002A14BFC820882040EA014182F0010219
:1029500046F837102A70F0BD1031FF1F0000FF1F2E
:102960001131FF1F431E032B10B510D872B6094A50
:1029700052F8230048B1416842F823100649048800
:1029800031F81320121B21F8132062B610BD00206D
:10299000FCE700BF2031FF1F6E31FF1F0138032805
:1029A0000AD872B6054B53F8203000200BB962B636
:1029B00070475B680130F9E7002070474831FF1F1E
:1029C00030B472B6174C184A042314F8011B0907D7
:1029D0001DD552F8331069B902EBC30108304860C5
:1029E000124942F83310124A1378013B137062B651
:1029F00030BC704743F0010152F831503DB902EB51
:102A0000C103083058600B4B42F83130EBE7043318
:102A1000142BDAD162B6064B00221A7030BC00F0DB
:102A2000CFBB00BFAC8600000000FF1F8800400045
:102A30007631FF1FC8004000421E032A30B52CD853
:102A4000194B400140F01000034472B6174CA05CD3
:102A5000032818D8DFE800F026110214052013F02F
:102A6000080FA05401F1080209885A6014BFC82257
:102A7000882242EA01421A600EE008330220EEE7A3
:102A800008330420EBE70A480A4B50F822402CB9DF
:102A900040F8221043F8221062B630BD53F82200ED
:102AA0004160F7E70320DAE70000FF1F6831FF1FEE
:102AB0004831FF1F5831FF1F2DE9F74FAA4EAB4B8E
:102AC00093F880305907DCB21BD5A94B1B78A3B112
:102AD000A84A117801F0FF0321B1013BDBB213706A
:102AE00003B900BEA44A117801F0FF0329B1013BEC
:102AF000DBB213700BB900F0C1FC9C4B042283F8CD
:102B0000802014F0080100F07782984B9B4C93F8DA
:102B100090703D09FBB24FEA970840F0F48154F8F9
:102B2000383004EBC802C3F38303092B526800F06A
:102B3000C5810CD8013B012B40F2A1818B4B0122B6
:102B400083F89420894B082283F88020B7E70D2B67
:102B5000F4D110688A4B8B49526844F8383001230D
:102B6000894F25613560A5610B7040F2816581B2A6
:102B7000A94238607A6021D8B1F5D06F80F05C81CD
:102B8000B1F5817F00F037810ED8802900F01C81DB
:102B9000822900F01F81754B0F2283F8C020734BF0
:102BA000012283F89420C9E740F20233994200F0F1
:102BB0003281B1F5A06FEED100233BE142F2210555
:102BC000A942ECD03ED8B1F5086F00F0A380B1F572
:102BD000106FE0D1664AC0F307431370042554F820
:102BE00035301A0605D504EBC5035868083800F0DF
:102BF000E7FA0135142DF2D1644B654DDFF8A8B129
:102C0000DFF8A881DFF8A8A1DFF8A891009355F8B4
:102C1000040B00BB49F8040B45F8040CD8F800007D
:102C200000BB009B9BF8001043F8040B023948F8E6
:102C3000040B2AF8020B009303291ED8DFE801F0E9
:102C40001957195742F22123994200F00B8142F2A1
:102C500021339942AFE74168019100F0B1FA01993F
:102C60000846D6E74168019100F0AAFA01990846A2
:102C7000D6E74FF000038BF80030464B9D420BF136
:102C8000010BC4D1DFF830B1DFF830A1DFF83081BB
:102C9000DFF8309100238BF8003018F8012B0AF888
:102CA000042B3D4D1307554415D500F06BFA08B3BE
:102CB00004EBC50208305060384A44F8352000F073
:102CC00061FA45F00102E8B104EBC2012C4B083077
:102CD000486044F8323045F0020145F00305002217
:102CE000CA4544F8312044F83520D6D164E74FF086
:102CF0000103C0E79BF8002044F8350001328BF84F
:102D00000020DCE744F832009BF8002001328BF809
:102D10000020E0E7164A224C12782270FD889D427E
:102D200028BF1D46402DA84628BF4FF04008414609
:102D30002046FFF7F7FDB5EB080702D13F2D7FF6E0
:102D40002EAF402F3D46444428BF4025294620460B
:102D5000FFF7E8FD2C447D1B02D13F2F7FF61FAF0C
:102D6000104B34601D801AE71431FF1F002007400C
:102D70006C31FF1F6D31FF1F9431FF1F0000FF1FDB
:102D8000C80040001131FF1F4031FF1F5831FF1FA5
:102D90002031FF1F3031FF1F3CDFF8BF88004000AB
:102DA0001831FF1F1231FF1F6831FF1F4831FF1F0D
:102DB0006E31FF1F3031FF1F7631FF1FC4200740E7
:102DC000AC860000D42007409F4C00232370637022
:102DD0000223A3E702F07F02042A3FF6DCAE9A4CFE
:102DE000002323706370994B13F822309D07EFD5B1
:102DF00001232370ECE702F07F02042A3FF6CBAEFA
:102E0000030C7FF4C8AE914911F8223023F002037D
:102E100001F82230D0E602F07F02042A3FF6BBAE72
:102E2000030C7FF4B8AE894810F8221041F002017B
:102E300000F822101C4671E78549C0F30F4392B297
:102E40004C68002C3FF4A7AE0888984208D14D8802
:102E5000954205D1000A03280CBF23780B895DE752
:102E60000C31EDE792B2002A7FF4A6AE794B1A68D6
:102E7000794B1A60794AC0F3074313709CE6784B8C
:102E8000188842F22101884214D19B8873B9754B8E
:102E9000D01D194612F8015B03F8015B8242F9D19B
:102EA0000B68862B02BF704B0F221A700021084658
:102EB000FFF738FD6D4B44F838303FE63568ADB16B
:102EC000DFF8DC81B8F80070402F3C4628BF402472
:102ED0002146284625443C1BA4B2FFF723FDA8F851
:102EE000004014B93F2F98BF002535605C4B1A880D
:102EF000B2F5A06F7FF422AE00225A709A785C4B34
:102F000083F898201AE6474604EBC808013DD8F834
:102F1000041013F00803A1F10800EDB239D000F05D
:102F20004FF9544B544953F8250000B3426843F815
:102F3000252000F10803C8F804304B5D032B05D8A9
:102F4000DFE803F0020F111303234B5518F0080FAD
:102F5000028814BFC823882343EA024344F8373069
:102F6000F0E50223F1E70523EFE70423EDE74B5DEE
:102F7000022B09D07FF6E6AD032B07D018F0080F1F
:102F800014BF0323022302E04855DBE501234B5520
:102F9000D8E554F837204FEA124C120C21F808CC2F
:102FA00018D021F8063C41F8043C3449344B51F820
:102FB0002520B2B941F82500324A43F8250032F8FD
:102FC0001530634422F8153000F0DCF868B10830A1
:102FD000C8F804002C4A254B18F0080F08BF134608
:102FE000BCE753F825205060E6E7284A44F837004C
:102FF000137801331370A5E5E00753D51C4B224825
:10300000234C022283F89420224A1170224A106035
:10301000546090602148D060116191610D2283F865
:10302000C020FF2283F8882083F8802083F898103E
:1030300083F88C209F2283F88420012283F8942037
:1030400003B0BDE8F08F00BF1831FF1FC02007405C
:1030500058860000442DFF1F9031FF1F8C31FF1F49
:103060004031FF1F8431FF1F6D31FF1FC80040003A
:10307000002007404831FF1F6831FF1F2031FF1F2C
:103080003031FF1F6E31FF1F880040007631FF1F77
:103090009030FF1F1031FF1F0000FF1FD030FF1FB7
:1030A0001231FF1F210606D50C4B0D2283F8C020DC
:1030B000802283F88020A20708D5084B93F8882047
:1030C000D2B283F88820022283F88020E30642BF30
:1030D000024B102283F88020B2E700BF0020074097
:1030E00010B5FFF7E7FB0023224A184642F83300E9
:1030F00002EBC3010133142B4860F7D11E494B6B1F
:1031000043F480234B63A1F56C31C2F30724D1F85B
:10311000003843F04073C1F8003801F5CA2101F5C9
:103120008071032381F84430A02381F84030134B91
:1031300083F89C40C2F30744120E83F8B04083F832
:10314000B420FF2283F8802083F888201A7401229B
:1031500083F89420087083F88420094B702283F848
:1031600035204FF0E0234FF40012C3F80421102360
:103170000B7210BD0000FF1F0080044000200740BC
:1031800000E400E072B60C480268B2FA82F30B2B3E
:1031900002DD62B6002070474FF00041D94022EABC
:1031A0000102026062B6054948225343C818002252
:1031B000CA504260704700BFDC19FF1FE00EFF1FBE
:1031C0000D4BC31AB3F5587F14D20C4A127822B1B2
:1031D0000B4A12780AB1FFF7F3BB72B609494822CD
:1031E000B3FBF2F34FF0004222FA03F30A681343F1
:1031F0000B6062B6704700BFE00EFF1F7631FF1F05
:103200006C31FF1FDC19FF1F38B5104C236863B108
:1032100020684388C2180133157A02889A4212D86E
:10322000FFF7CEFF0023236004E0094B1B781BB996
:103230004FF0FF35284638BD0320FFF793FB206091
:103240000028E5D1F4E74380F4E700BF7831FF1FA1
:103250006C31FF1F10B50B4C236823B123686BB989
:103260004FF0FF3010BD084B1B78002BF8D0032027
:10327000FFF778FB20600028F0D1F1E75A8813446B
:10328000187AEFE77831FF1F6C31FF1F074B10B53D
:103290009C88074B1A681AB1138852889B1A1C44E1
:1032A0000CB900F083FE204610BD00BF6E31FF1F39
:1032B0007831FF1F10B5094B1B786BB1084C2068A3
:1032C00018B1FFF77DFF002323600320FFF74AFBBF
:1032D00010B1FFF775FFF8E710BD00BF6C31FF1F9D
:1032E0007831FF1F2DE9F84F2E4D2F4FDFF8C480A6
:1032F000012381460C462B700E4616B92E702046CF
:103300000DE03B6833BBDFF8B0A0DFF8A0B098F861
:10331000003003F0FF0223B92A704FF0FF30BDE800
:10332000F88F0420FFF73AFB072806D801232B70FB
:10333000FFF728FF386068B92870BAF1010A02D097
:103340009BF800301BB101238BF80030E5E700F05B
:103350002DFEDCE73968154B00221A704B88C3F14B
:103360004002B24228BF324698180B444880B61A31
:10337000073309EB020AD1450ED14B883F2B06D902
:1033800040230B800420FFF757FB00233B60084BD2
:1033900005221A70D146B0E719F8012B03F8012F66
:1033A000E9E700BF7D31FF1F8031FF1F7C31FF1F28
:1033B0009431FF1F6C31FF1F2148010007B5012127
:1033C0008DF807000DF10700FFF78CFF03B05DF8E3
:1033D00004FBFFFF38B50E4C0E4D012323702B6804
:1033E0007BB90D4B1B7813B90020207038BD042029
:1033F000FFF7D4FA0728F7D8FFF7C4FE28600028A3
:10340000F2D02B6858880023C0F140002370EDE70C
:103410007D31FF1F8031FF1F6C31FF1F2DE9F0410F
:10342000124B1B78A3B1DFF85080114ED8F8004042
:10343000104D012737706CB1638800272F7021462B
:1034400023800420FFF7F8FAC8F8007000233370D7
:10345000BDE8F081FFF796FE014620B104202C70F4
:10346000FFF7EAFAF2E72F70F0E700BF6C31FF1FB9
:103470007D31FF1F9431FF1F8031FF1F38B50E4B88
:103480001B7803F0FF0543B90C4C216831B14B8820
:103490000B800420FFF7D0FA256038BDFFF772FEDD
:1034A000014620B1BDE838400420FFF7C5BA044BFF
:1034B00001221A70F1E700BF7D31FF1F8031FF1F2D
:1034C0009431FF1F4FF0E0230122C3F80822704718
:1034D0000B68036070470B68036070477047704764
:1034E00070477047704703681847FFFF70B572B6A2
:1034F0001C4D1D4C2A8804F1700604EB8200B0427A
:10350000034602D362B6002070BD50F8041B09B90F
:103510000132F4E7B1FA81F64FF00040F04021EAC1
:103520000001196001B901322A80104A1188013165
:103530008DB2158062B61B1B9A104FF4025041F6F3
:103540007C7300FB02330A4A02FB0633094A126805
:103550000124D454D018084B1A888A4238BF1D80E1
:10356000D2E700BFD431FF1FD831FF1FC431FF1F86
:10357000FCFEFFFFC031FF1FCC31FF1F438872B636
:103580000278012A03D9013A027062B670475909DC
:103590000B48DB434FF0004203F01F0322FA03F312
:1035A00050F82120134340F82130064B1A888A42F4
:1035B000054A88BF19801388013B1380E5E700BFE7
:1035C000D831FF1FD431FF1FC431FF1F30B5C3688E
:1035D00003B930BD187A90420AD158685C7A006904
:1035E00050F8245025B940F82410087801300870AC
:1035F000DB68EDE7437A8B4288BF02694FF0000336
:1036000086BF52F8210042F8213018467047FFFF6C
:103610000022C0E9002202810274024A1168C160DE
:10362000106070474832FF1F037C10B5002B49D152
:103630000368002B48D04368002B45D0427A5B7A60
:103640009A4243D272B6234B1A68DAB9224B1A68EF
:10365000002A3DD0824226D10268D16861BBD06089
:10366000C16819600023C360917A01319172012110
:1036700011724268947A11720C4494720174184663
:1036800062B60DE0D3680BB95269DEE75C68416849
:103690008C4206D15C7A417A8C4202D162B6042017
:1036A00010BDDB68EFE702F10C03D268D0E784427B
:1036B00002D162B60620F3E70C46C9680029F6D1AC
:1036C000E060CDE70120DBE70320D9E70220D7E760
:1036D0000520D5E7C831FF1F4832FF1F70B4067CB4
:1036E0009DF80C5036B90272457270BCC0E90013E7
:1036F000FFF79ABF012070BC7047FFFF037C10B535
:103700000446002B3DD04368427A5B7A9A423AD213
:1037100072B60268D36813B962B6032010BD98422E
:10372000D96827D1D1606368627A1B6953F8220097
:1037300040B1FFF723FF72B66368627A1B6900210C
:1037400043F822102268937A013BDBB2937203B9EB
:1037500013726268937A013BDBB2937203B91372FE
:103760000A4B00201A682074E2601C6062B6D5E73C
:10377000002BD8D01A46DB689C42F9D1E368D360AD
:10378000D1E70120CAE70220C8E700BF4832FF1F87
:1037900010B50446FFF7B2FF064B1A681AB1A242F1
:1037A00003D1E2681A60204610BD02F10C03D26812
:1037B000F4E700BF4832FF1F074B1A7852B9074A97
:1037C000D02182F840104FF0E0220120C2F8080119
:1037D0001870704700207047D031FF1F00E400E0F0
:1037E0004FF0E022F8B5D2F8FC3D174D43F080735E
:1037F000C2F8FC3D2B6843F001032B60134B6E684D
:103800001C686CB9104B124A5B689B1BC3F30F1109
:103810001180104A1088B0EB131F38BF1180F8BD1B
:10382000237A73B123686F681B68204698476B68DA
:10383000E188DB1BC3F30F12B1EB131FA28038BF6B
:10384000E2806469DDE700BF001000E0C831FF1FBF
:10385000CE31FF1FD231FF1F10B5044650F8083B90
:10386000DB689847204610BDF0B5B1F5607F28BFF2
:103870004FF460718DB005460E4672B62F4B002492
:1038800018602F4B2F481C802146702204F039FC11
:103890002C49234601249E423FD1002202354FF499
:1038A0008271934245D1284B1C78002C32D10820DC
:1038B00000F039FB254E0460802303713368244CEB
:1038C000BFF35B8F13F0010F05460ED13046FEF7B4
:1038D00096FA50B11F4B23601F4B63601F4BA360D0
:1038E0001F4BE3603046FEF78FFA1E4B029302A98E
:1038F0006368009408A8069498471B4A06A92846BE
:1039000000F006F906A8FFF7A7FF6846FFF7A4FF37
:10391000FFF752FF62B60DB0F0BD580903F01F0269
:1039200051F8207004FA02F23A4341F820200133A2
:10393000B1E701FB02F02A520132B2E7C031FF1FAA
:10394000D431FF1FD831FF1FD031FF1FAC31FF1F13
:10395000B031FF1FE7340000D1340000D73400003D
:10396000DD340000C5340000FFA70200074B1A68D1
:10397000D2070AD401221A60054B064A1A60064A89
:103980005A60064A9A60064ADA6070479831FF1F0B
:103990009C31FF1FDF340000E1340000E3340000FD
:1039A000E534000030B572B6254C89B9016879B1AB
:1039B00003790F2B0CD822881A41D20708D503F1BE
:1039C000007303F59063B1EB431F01D162B630BDC4
:1039D0002188002341FA03F212F0010227D10125C8
:1039E0009D402943218062B61649DCB204710D6CFA
:1039F00045F002050D64CD6B03F1007345F002053F
:103A0000CD6303F59063A1F580215B0140F282450F
:103A10000D608C768C770C76CC770360C3E900223E
:103A2000C3E90222C3E90422C3E90622CFE7013336
:103A3000102BCFD162B6002202600371C7E700BF2E
:103A40004C32FF1F0080044003790F2B0FD8084A27
:103A5000937672B60749037901229A400B8823EACC
:103A600002030B8062B610230371002303607047CA
:103A7000008000404C32FF1F70B50B4D0B4E0024F0
:103A8000EFF3108272B6286858B143692B6033B1E6
:103A90009C6102B962B6836844779847F0E7336067
:103AA000F7E702B962B670BD5832FF1F5432FF1FEC
:103AB000FFF7E2BF024A136801331360704700BF8B
:103AC000442DFF1F7047FFFF70B505460C4655F8A3
:103AD000083B0646DB68284698472368044A214687
:103AE000284641F8082B3360BDE870409B681847B2
:103AF0009C31FF1F70B5054D0324182606FB0450AA
:103B0000FFF7AAFE013CF9D270BD00BF8032FF1F53
:103B100070B5036886B0054616465BB300229A600E
:103B20000122DA602B68204C1C4451F8083B0093BA
:103B300002A85B6898471D4B2411182000FB043035
:103B40006946FFF7C1FF6846FFF786FE2B68032230
:103B50001E609A60164B2A79E2543034631103F1E7
:103B6000382340339B0004F01F04012000FA04F4C2
:103B70001C6016E00F4AD36B43F40003D36300BF0D
:103B80000D4B01221A6003F580730C4A03602B6809
:103B900098680028C6D0103393422B60F7D90020D4
:103BA000286006B070BD00BF008FFCBF8032FF1FD1
:103BB00030E400E000800440007003403F710340A7
:103BC000F8B50E4F0E4D3B68BFF35B8F13F0010F3E
:103BD00004460E460ED13846FEF711F950B1094B96
:103BE0002B60094B6B60094BAB603846084BEB60B0
:103BF000FEF70AF92560A6602046F8BDAC31FF1F2C
:103C0000B031FF1FE7340000D1340000D73400008A
:103C1000DD3400002DE9F041026886B0074632B37A
:103C2000144E15491644361106F13004631103F1A0
:103C3000382360339D004FF0010804F01F0408FA98
:103C400004F42C606846FFF7BBFF0C4B182000FB08
:103C500006306946FFF738FF6846FFF7FDFD3A6812
:103C600000239360C2F80C80C5F800413B6006B0A9
:103C7000BDE8F081008FFCBFC53A00008032FF1F15
:103C800050F8083B1B68184708B5044B044801224C
:103C9000C3F80C21FFF7F4FF08BD00BF007003401C
:103CA0008032FF1F08B5044B04480122C3F81C21D1
:103CB000FFF7E6FF08BD00BF007003409832FF1F0A
:103CC00008B5044B04480122C3F82C21FFF7D8FFA4
:103CD00008BD00BF00700340B032FF1F08B5044BA1
:103CE00004480122C3F83C21FFF7CAFF08BD00BF0A
:103CF00000700340C832FF1F08B512491248FFF791
:103D00005FFF10491148FFF75BFF0E491048FFF7AE
:103D100057FF0C490F48FFF753FF0F4A0F49002088
:103D200004F04AFA0E4B1A68D2070AD401221A602C
:103D30000C4B0D4A1A600D4A5A600D4A9A600D4AA2
:103D4000DA6008BDC53A00008032FF1F9832FF1FBD
:103D5000B032FF1FC832FF1F3013FF1FF53A0000BB
:103D60009831FF1F9C31FF1FDF340000E134000059
:103D7000E3340000E5340000F8B507460C4669B1AD
:103D80008D180026AC4201D13046F8BD3B6814F8CE
:103D9000011B1B68384698470644F3E70E46F3E7D5
:103DA000F0B5012A8BB008BF0A22A9B930228DF8DC
:103DB000252021243BB1631E0AAADCB252FA83F308
:103DC0002D2203F8242C036801A95B68C4F12202A8
:103DD000214498470BB0F0BD2124B1FBF2F602FB61
:103DE0001617FDB2092F04F1280794BF3035373577
:103DF0006F44EDB28A4207F8245CDBD8013CE4B2A0
:103E00003146EAE70029BABF49422D2300230A229E
:103E1000FFF7C6BF07B540F60D23ADF804300368C1
:103E200002225B6801A9984703B05DF804FB30B437
:103E300022B9036830BC1B68C9B2184730BCFFF711
:103E4000AFBF10B50446FFF7E5FE204610BDFFFFEB
:103E50000C480D4A0D4908B5002303608023037107
:103E600004F0AAF90A4B1A68D2070AD401221A6090
:103E7000084B094A1A60094A5A60094A9A60094A75
:103E8000DA6008BDE032FF1F3013FF1F433E000021
:103E90009831FF1F9C31FF1FDF340000E134000028
:103EA000E3340000E53400000C4A0D491368002B90
:103EB00008BF0B460B4993FBF1F001FB10330A4995
:103EC000484344F2A71101FB03000028BCBF00F1E6
:103ED000004000F1FF301060704700BFE832FF1F64
:103EE00024D95B071DF30100ECF4FFFF10B5044675
:103EF00028B1FFF7D9FFB0FBF4F303FB140420460D
:103F000010BD884210B5044603DA081AFFF7EEFF29
:103F10000444204610BD08B5FCF772FDFCF7B8FC60
:103F200000F044F8FAE704F00DB804F013B8704755
:103F3000FFF7C0B9FFF78EB9FFF766B9FFF7A6B96B
:103F4000FFF76CBAFFF746BA08461146FFF7CAB941
:103F50000846FFF733BAFFFF114938B50B684BB17C
:103F6000EFF3058333B9EFF3108272B6086810B926
:103F700002B962B638BD0B4C2578002DF8D101236B
:103F8000237043690B6043B19D6102B962B600259D
:103F90008368457798472570ECE703490B60F4E7A1
:103FA0005032FF1F5C32FF1F6032FF1F2DE9F843C4
:103FB0001B4C2378E3B11B4D2A78CAB90122D907DB
:103FC0002A700BD5FFF762F908B1FFF7B0FF164A68
:103FD0002378127812B123F00103237023789A0713
:103FE00018D400232B7023785B0701D5FFF7B4FFAB
:103FF000BDE8F88359F823703B6838461B69984739
:1040000008B13B699847013698F80020F3B29A420C
:10401000F0D8E6E7DFF81480DFF814900026F3E725
:10402000F019FF1FEC32FF1FB08600007C32FF1F2B
:104030006432FF1F37B50E4B009304460D4B0E4AFA
:10404000002100F061FA04F13C050C4B00930C4A8E
:104050000C4B0121284600F057FA02232046C4E900
:104060001F45C4E9214584F8783003B030BD00BF56
:1040700000B00340DC860000E086000000B00B408A
:1040800024870000DE86000072B6036B5B0103F13B
:104090008443012200214276C3F89C14C3F898247B
:1040A000C3F89C2462B6704790F821308B4218D038
:1040B000012911D10B4B60221A70E1225A700A4B70
:1040C00083F84010036B80F821105B0103F18443F7
:1040D000C3F80014FFF7D8BF0029FBD1014B59707A
:1040E000EDE77047004007400000FA4290F82230A8
:1040F0008B4230B400F0B380092900F2AB80DFE8D6
:1041000001F005052B3947566573979D036B5A01DE
:1041100002F184425B01002403F18443C2F8884128
:104120000122C3F81C216122036B5C0104F1844469
:104130005B0103F184430025C4F88C5102F00304B1
:10414000C3F80041C2F340149209C3F80451C3F804
:104150001441C3F8182166E0036B5A015B0102F1B8
:10416000844203F184430024C2F88841C3F81C410F
:104170006022D9E7036B5A0102F184425B010124FA
:1041800003F18443C2F888410022C3F81C21EFE701
:10419000036B5A0102F184425B01012403F1844361
:1041A000C2F888410022C3F81C214022BCE7036BFF
:1041B0005A0102F184425B01012403F18443C2F8F5
:1041C00088410022C3F81C212022ADE7036B5A016D
:1041D00002F1844200245B01C2F8884103F1844368
:1041E0000122C3F81C210BE0036B5A0102F1844247
:1041F00001245B0103F18443C2F88841C3F81C41E8
:10420000036B5A0102F184425B0103F184430124F0
:10421000C2F88C410022C3F80441C3F80041C3F83E
:104220001821C3F8142130BC80F82210FFF72CBFEE
:10423000036B5A0102F184420024DAE7036B5A014E
:1042400002F1844201245B01C2F8884103F18443F6
:104250000022C6E7C38A9BB243F00103C38230BC8D
:10426000704738B5437E05460C460BB100F029F87F
:104270002B6B5B0103F18443012C03F5906305D89C
:1042800000229A60134685F8203038BD0122042CA4
:104290009A6004D800225A601A600423F3E7082CBD
:1042A00004D81A6000225A600823ECE7102C9BBF48
:1042B000002119605A605A608ABF1A6010232023B7
:1042C000E1E7F8B50446236B5B0103F1844303F592
:1042D0009063DA69002A3CD19B6923B1E38A9BB2DF
:1042E00043F00203E38272B6637E03B3226B936BE7
:1042F000D76B166C556C906CD16C3B4433442B449B
:1043000003440B44C3F34E0343F40043D362936D61
:10431000D76D166E556E906ED16E3B4433442B4470
:1043200003440B44C3F34E0343F40043136362B6E8
:10433000A37E002565765BB120460221FFF7D6FEFD
:10434000022100F009F804212046FFF78AFFA57634
:10435000F8BDFFF72BFEB6E738B5437E04460D46A1
:104360000BB1FFF7AEFF042D13D8DFE805F00315FE
:1043700025354400236B5A0102F184425B0103F1AD
:1043800084430121C2F810110022C3F88421C3F82C
:10439000802184F8235038BD236B5A0102F18442F6
:1043A0005B01012103F18443C2F810110022C3F81C
:1043B0008011C3F88421ECE7236B5A0102F1844297
:1043C0005B01012103F18443C2F810110022C3F8FC
:1043D0008021C3F88411DCE7236B5A015B0103F1F0
:1043E000844302F184420121C2F81011C3F8841100
:1043F000C3F88011CDE7236B5B0103F184430022F6
:10440000C3F81021C5E738B5C37E8B4204460D467C
:104410001CD0437E0BB1FFF754FF092D17D90B2D8C
:1044200017D90E2D34BF0C221022236BA2F10801E4
:104430005B01C9B203F18443012903F580730AD8F3
:104440000021D9609960FF23E361E27638BD08223C
:10445000EBE70A22E9E7A2F10A01C9B2012906D86D
:10446000002199600121D96040F2FF33ECE7A2F10D
:104470000C01C9B201294FF001019BBF99600021D5
:10448000D960D9608ABF996040F6FF734FF6FF7319
:10449000DAE7FFFF38B5027E194B04465ABBDA6BE8
:1044A00042F00062DA63174B2362236B5B0103F176
:1044B00084430021012584F82810E176E1616176CA
:1044C000E18261752046C3F89051FFF7EDFD0A21A6
:1044D000FFF799FF2046A5762021FFF7C2FE204670
:1044E0002946FFF703FE2946FFF736FF2046BDE8C1
:1044F0003840FFF7C9BD1A6B42F000621A63D2E779
:10450000008004400002040410B54262094AC362FC
:104510000029029B0363084B017608BF13464363DF
:1045200014BF49232723044680F83830FFF7B2FF31
:10453000204610BD10600340386003407047FFFF05
:1045400038B50C4605462022002104F1080003F08E
:10455000D8FD07490B22204603F0A6FD0123E360A6
:10456000AB68236103236361024B236238BD00BF44
:10457000688700000AD7233C73B50193094B036099
:104580000023C0E90131044610201646FFF7CBFC9A
:10459000019A3146054600F055F92046656002B0A3
:1045A00070BD00BF788700001FB50023CDE9003340
:1045B0008DF80C108DF80D200123022203A940680C
:1045C00000F071F905B05DF804FB08B50A46017307
:1045D0003D21FFF7E9FFBDE808401E20FDF7D0BDF3
:1045E00070B50D4600210446067BFFF7EEFF19204B
:1045F000FDF7C6FD002207212046FFF7D5FF85B154
:1046000080223F212046FFF7CFFF0A20FDF7B8FDAB
:1046100020463146FFF7D9FFBDE870401420FDF772
:10462000AFBD2A46EDE71FB501220023CDE90023E7
:1046300003AB8DF80C104068194600F0A5F99DF801
:104640000C0005B05DF804FBF8B504460E46406862
:10465000002100F019F955276068012100F014F9D4
:10466000054648B90A20FDF78BFD013FF4D100252E
:104670002846F8BD0A2019E000212046FFF7D3FFA5
:10468000A02809D04FF47A70FDF77AFD002120466A
:10469000FFF7C9FFA028EAD100212046FFF795FFC8
:1046A00020223F212046FFF77FFF1E20FDF768FDF7
:1046B00000212046FFF7B7FFA028DBD13220FDF70D
:1046C0005FFD00223E212046FFF76EFF0A20FDF726
:1046D00057FD002207212046FFF766FF00223F21F9
:1046E0002046FFF761FF0A20FDF74AFD20463146CC
:1046F000FFF76BFF1420FDF743FDB9E708B5342140
:10470000FFF791FF40B208BD1FB58DF80C100021D6
:10471000CDE90031134603A90122406800F034F9C5
:1047200005B05DF804FBFFFFF7B50E461546002106
:104730001822044603F0E5FC00230093ADF8043092
:10474000304606236A462946FFF7DEFF1A2DBDF9DB
:104750000000BDF90270BDF904600DD008D80E2D1F
:104760000AD0142D08D0082D21D0204603B0F0BD6A
:10477000282D1CD02E2DF7E703F018F9184B002236
:1047800003F07EF9C4E90001384603F00FF9144B39
:10479000002203F075F9C4E90201304603F006F97E
:1047A0000F4B002203F06CF9C4E90401DDE703F0CC
:1047B000FDF80C4B002203F08DFAC4E900013846E5
:1047C00003F0F4F8074B002203F084FAC4E9020175
:1047D000304603F0EBF8034B002203F07BFAE3E7EB
:1047E0000000B03F0000594030B50C4689B0054686
:1047F00020220021201D03F084FC24232360AB68C9
:1048000063600323A3600E4B1B680193019B23612C
:104810001A22294602A8FFF787FFDDE9020103F00B
:1048200041FB6061DDE9040103F03CFBA061DDE9CF
:10483000060103F037FBE061012009B030BD00BF85
:10484000442DFF1F42600022027220220170C260CC
:104850007047037A10B5044683B12278636801215A
:10486000520083F8A32083F82E1183F82D1160687D
:1048700001F034FEB0FA80F0400910BD012100F0D3
:1048800003F80028E9D1F8E738B5044640680D463A
:1048900001F0F2FC0120207225B12046BDE838402D
:1048A000FFF7D7BF38BD2DE9F0418846DDE9061690
:1048B0001F46C368154632449A42044602D9002076
:1048C000BDE8F08102784368520083F8A3200122FA
:1048D00083F82E2183F82D217EB9606803682A466B
:1048E0005B68414698478542E9D16068394601F0E6
:1048F000F5FDB0FA80F04009E2E7406803685B68C4
:104900000029EAD0324698478642D8D1E5E72DE91A
:10491000F041144605460F46D2B20178406801F0D6
:104920004FFE84420ED10026B44206F1010802D89F
:104930000120BDE8F081686803685B699847B85555
:104940004646F1E70020F4E72DE9F843074688469C
:10495000164699460025B54202D30120BDE8F883EA
:10496000FB68741B9C4228BF1C46331BAB4294BFA0
:104970004B460023224608EB05013846FFF7C7FFE8
:104980000028EBD02544E6E773B51D460023CDE9AA
:1049900000339DF81C30069E0446FFF784FF40B1AB
:1049A000012332462946204602B0BDE87040FFF799
:1049B000CBBF02B070BDFFFFF0B5002A134E144FFD
:1049C00014BF4FF060544FF06454002236F8025B7D
:1049D000B7FBF5F5A94211D3190714D40D495B07AC
:1049E00051F8222007D522F47043120902F47062B4
:1049F00044F000741A4322430260F0BD0132172ACA
:104A0000E4D11622E8E744F08064E7E7E488000098
:104A1000008793031489000010B50446FFF7CCFF0C
:104A2000204610BDC37A30B573B372B6C37ADD07C2
:104A300008D54FF0E024C568D4F880212A40C2612F
:104A4000C4F880219C0708D54FF0E0240569D4F80C
:104A500084212A400262C4F884215A0708D54FF005
:104A6000E0244569D4F888212A404262C4F88821AC
:104A70001B0708D54FF0E0228469D2F88C3123401F
:104A80008362C2F88C3162B60368DA688A4207D062
:104A9000044A1A60D960044A41F0804119611A60E1
:104AA00030BD00BF01403F0000003F80C37ADBB152
:104AB000DA0742BF4FF0E022C169C2F8001199073E
:104AC00042BF4FF0E022016AC2F804115A0742BF08
:104AD0004FF0E022416AC2F808111B0742BF4FF0B5
:104AE000E023826AC3F80C217047FFFF014B024AA2
:104AF0001A607047F032FF1F0320003873B5044678
:104B00000E461146154600F069F82046094B40F85C
:104B1000143B032252230095102100F085F9402216
:104B2000002104F1440003F0ECFA204684F84060D0
:104B300002B070BD14830000F0B5194B19491B7801
:104B4000194F012202FA03F30B6018490E78184935
:104B500002FA06F60E6017490D78174902FA05F5B4
:104B60000D6016490C78164902FA04F40C601549D8
:104B70000878154902FA00F008601449097802FA29
:104B800001F13960124F33433F782B432343BA403E
:104B90000343104F0B4313433A600F4A1360F0BDB9
:104BA000F719FF1F1033FF1FF432FF1FF319FF1F08
:104BB0000033FF1FF419FF1F0433FF1FF519FF1FF8
:104BC0000833FF1FF619FF1F0C33FF1FF119FF1FDA
:104BD000F219FF1FFC32FF1FF832FF1F10B5002231
:104BE0004260C2604274044A044C0460002918BF49
:104BF0000A46826010BD00BF001AFF1F94870000A4
:104C00002DE9FF47BDF834609DF830808DF80C1019
:104C10001F464FF0000A3C2304468DF80D205E43EA
:104C2000D146C24501D3012013E0A8EB0A0294F952
:104C30001030202AA8BF20220133D5B20ED1CDE9F1
:104C40000099E0680123022203A9FFF72CFE58B95E
:104C5000002004B0BDE8F087FFF7A8F9207CFDF73D
:104C6000F1F90028F8D0EAE716B13346013BFDD14F
:104C700094F9103001330FD1E06801232A4607EB85
:104C80000A01FFF761FE0028E2D00AEB05025FFA95
:104C900082FAC6E7FFF78AF9207CFDF7D3F90028EE
:104CA000F8D0E9E71FB5437C552B18D10239C9B2BA
:104CB000032918D8073102234FF4FA72CDE90032E4
:104CC000CAB203AB0921FFF79BFFBDF80C400120DE
:104CD00064BAA4B2FDF754FA204604B010BD7C3388
:104CE000DBB2052BE5E70024F6E730B51D4690F969
:104CF000103085B0013304468DF80C108DF80D206E
:104D00000ED10223019303AB00939DF82020E068AD
:104D100001232946FFF7C7FD05B030BDFFF746F96F
:104D2000207CFDF78FF90028F8D0EAE71FB5437C17
:104D3000552B13D10439C9B2032916D849B2130A25
:104D40008DF80D3003238DF80C108DF80E20009394
:104D5000022203AB0821FFF7C8FF06E07C33DBB279
:104D6000052B02D849B20029E9DA05B05DF804FB49
:104D70001FB58DF80F30012300930DF10F03FFF7DE
:104D8000B4FF05B05DF804FB08B505220B4602210F
:104D9000FFF7EEFF0120FDF7F3F9012008BD10B584
:104DA00000238AB00139DCB20133CA5C42B90094F5
:104DB00002AB05220221FFF798FF20460AB010BD82
:104DC00028346C4404F8202CEDE71FB5447C552CA6
:104DD00025D10439C9B203291FD8102B1DBFC2EB3E
:104DE00002427F32FF23130A18BFB2FBF3F249B22B
:104DF00018BFC2F30723C9B28DF80D304FF003037B
:104E00000CBF8DF80C108DF80C108DF80E2000934F
:104E1000012203AB0821FFF768FF04B010BD7C340A
:104E2000E4B2052CD8E7FFFFF8B504460F46069913
:104E30001D461646FFF7D2FE0020054B2075E07692
:104E4000E06160622360E782A67625852046F8BD92
:104E5000BC87000010B50446C06908B103F07AF8B9
:104E6000204610BD70B500210446FEF7C3FBC0B15B
:104E7000B4F91E20B4F92030011D00F5827631F915
:104E8000025BAA42A8BF2A46AB42B8BF2B46B1423A
:104E9000F5D123840123E2832377BDE87040FEF738
:104EA0006DBB70BD30B5154B1A681979144B12697A
:104EB000D977144B9A420AD2134A127822B14FF092
:104EC000E0220121C2F8081203F1800101E0194635
:104ED000803B0E4A126882B10D4C2088402828BFC2
:104EE000402000F1400502EB40022580023233F8F9
:104EF000020B22F8020F9942F9D830BD1C33FF1F74
:104F000000800040600EFF1F1A33FF1F1433FF1F85
:104F10001833FF1F2DE9F0410546FEF7E7FA72B698
:104F20001F4A11887F290DD820B11E4C216821B954
:104F30002060118062B6BDE8F08162B6BDE8F04144
:104F4000FEF71CBB174900230C681380086062B68B
:104F5000154F164E3B683068DFF854C0211D04F52C
:104F6000827E0A888046A3EB0803900303EB82321B
:104F700082FB0C384FEA880848EA937323F38F3298
:104F800012B221F8022B7145EBD13060A4F8022156
:104F90002846002221463B60FEF718FB2046CDE75D
:104FA0001833FF1F1433FF1F2833FF1F2433FF1F45
:104FB00000B0FB3F10B50446FEF746FD204610BD8D
:104FC00010B504461020FCF727FE0220FCF700FE77
:104FD0000420FCF74DFE2046FCF77CFE384B03EA2C
:104FE0008030384B1860384B00221A60374BDB6B2F
:104FF0005B0212D5364B196848F6A2728A430CD16F
:10500000596840F24F52914207D1DA68012A04D11F
:105010001A6940F201139A4212D02C4AD36B43F41E
:105020008003D3632A4B0122DA6040F24F525A6068
:1050300048F6A3721A60274A1A6040F201121A61F8
:10504000254A264C136A43F044031362012120468B
:10505000FEF7A8FC2368224A1A60224A22481861F7
:105060000221C3E9012199828021D9820022D983BA
:105070006FF0FF0006219983DA609861237903F1CC
:10508000804303F504331A70A8221A70FEF794FBCC
:10509000164B22791870164B1648DA7602F1100179
:1050A000154B43F82100531103F1382340339B0083
:1050B00002F01F02012101FA02F21A6010BD00BFC6
:1050C00000C0FF3F2433FF1F2833FF1F0080044030
:1050D00000600340A28F010000B003401C33FF1F9B
:1050E00010B0034000000101E00DFF1F1A33FF1F45
:1050F00000800040A54E0000000CFF1F024A03493B
:10510000034803F059B800BF3013FF1FB54F00002C
:105110001C33FF1F08B5064A0649074803F04CF840
:10512000BDE80840024A0349044803F045B800BFFF
:105130003013FF1FB54F00002C33FF1F3433FF1F08
:10514000024A0349034803F037B800BF3013FF1F7A
:10515000B54F00003C33FF1F024A0349034803F0E8
:105160002BB800BF3013FF1FB54F00004433FF1FA3
:10517000024A0349034803F01FB800BF3013FF1F62
:10518000B54F00004C33FF1F024A0349034803F0A8
:1051900013B800BF3013FF1FB54F00005433FF1F7B
:1051A000024A0349034803F007B800BF3013FF1F4A
:1051B000B54F00005C33FF1F024A0349034802F069
:1051C000FBBF00BF3013FF1FB54F00006433FF1F4C
:1051D000024A0349034802F0EFBF00BF3013FF1F2C
:1051E000B54F00006C33FF1F024A0349034802F029
:1051F000E3BF00BF3013FF1FB54F00007433FF1F24
:10520000024A0349034802F0D7BF00BF3013FF1F13
:10521000B54F00007C33FF1F024A0349034802F0E8
:10522000CBBF00BF3013FF1FB54F00008433FF1FFB
:10523000024A0349034802F0BFBF00BF3013FF1FFB
:10524000B54F00008C33FF1F024A0349034802F0A8
:10525000B3BF00BF3013FF1FB54F00009433FF1FD3
:10526000024A0349034802F0A7BF00BF3013FF1FE3
:10527000B54F00009C33FF1F024A0349034802F068
:105280009BBF00BF3013FF1FB54F0000A433FF1FAB
:10529000024A0349034802F08FBF00BF3013FF1FCB
:1052A000B54F0000AC33FF1F454B84222DE9F04180
:1052B0001A6045221A60434F434C4FF0E0239A692D
:1052C0003B78E2540133DBB21F2B3B7052D93F4E87
:1052D0003F4D33782A78DFF804C113443D4A03F088
:1052E0000703137000213C4B8CF80010212001387B
:1052F00010F0FF0040D111B120218CF8001011787E
:10530000C9B253F821401178C9B253F8210000EB1B
:10531000C40043F821001178C9B253F82140117834
:10532000C9B253F8210080EAD42043F82100117853
:10533000C9B253F821401178C9B253F8210000EBEB
:10534000C43043F8210011781278C9B2D2B253F8B0
:10535000211043F8221000233B702B78082B0BBF41
:1053600033782B78013301330BBF03F00703DBB233
:1053700033702B70BDE8F081117814F801EBC9B2DD
:1053800053F82180C64443F821E01178C9B253F89C
:1053900021801178C9B253F821E00EEB882E43F832
:1053A00021E01178C9B253F821801178C9B253F8BD
:1053B00021E08EEA981E43F821E0012197E700BF23
:1053C00000000440D433FF1FB433FF1FFB33FF1F23
:1053D000F933FF1FFA33FF1FD833FF1FF833FF1FC6
:1053E0000C480D4A0D4908B5002303608023037162
:1053F00002F0E2FE0A4B1A68D2070AD401221A60B0
:10540000084B094A1A60094A5A60094A9A60094ACF
:10541000DA6008BDFC33FF1F3013FF1F433E00005E
:105420009831FF1F9C31FF1FDF340000E134000082
:10543000E3340000E53400000C480D4A0D4908B57E
:10544000002303608023037102F0B6FE0A4B1A6842
:10545000D2070AD401221A60084B094A1A60094A85
:105460005A60094A9A60094ADA6008BD0434FF1F8D
:105470003013FF1F433E00009831FF1F9C31FF1F78
:10548000DF340000E1340000E3340000E5340000C4
:1054900018490B6813F0800310B506D0164A48234C
:1054A0000B601388013313800123CA6812061DD5CF
:1054B0000A694420C8601049B2F5604F098800D9D4
:1054C000ABB90E4B0E4C186842EA01420D491A6006
:1054D0000B78247801330C2BA8BF00239C4205D005
:1054E000121A094840F82320DBB20B7010BD0139B5
:1054F000E7E700BF009003400E34FF1F4034FF1F5A
:105500000D34FF1F0C34FF1F1034FF1F38B5074C3C
:10551000074B25785A79DB7935B9064B1B681BB1E7
:10552000012222709847257038BD00BF4834FF1F04
:10553000002006404434FF1F0C480D4A0D4908B5B1
:10554000002303608023037102F036FE0A4B1A68C1
:10555000D2070AD401221A60084B094A1A60094A84
:105560005A60094A9A60094ADA6008BD4C34FF1F44
:105570003013FF1F433E00009831FF1F9C31FF1F77
:10558000DF340000E1340000E3340000E5340000C3
:1055900010B50F4C0F480021FEF704FA0E4A0D48D3
:1055A000214602F009FE0D480021FEF7FBF90A4AE8
:1055B0000A48214602F000FE09480021FEF7F2F9F0
:1055C0002146054A0648BDE8104002F0F5BD00BF7F
:1055D000B54F00005434FF1F3013FF1F5C34FF1F12
:1055E0006434FF1F704770477047704741717047C0
:1055F000817170470171704730B5034D05600171CD
:105600004271837130BD00BFFC870000054B1B68F1
:105610004FF00042DA625963DA6A002AFCDA986BCA
:10562000C0B270476835FF1F7047FFFF30B5204B91
:105630008268D97A71B372B6D97ACD0708D54FF09E
:10564000E024DD68D4F880012840D861C4F88001E6
:105650008C0708D54FF0E0241D69D4F88401284058
:105660001862C4F88401480708D54FF0E0245D694A
:10567000D4F8880128405862C4F88801090708D581
:105680004FF0E0209C69D0F88C1121409962C0F85D
:105690008C1162B61B68D9688A4207D00549196027
:1056A000DA6042F080421A61034A1A6030BD00BFDE
:1056B0006835FF1F01403F0000003F800F4BDA7A42
:1056C000DAB1D10742BF4FF0E021D869C1F800013B
:1056D000900742BF4FF0E021186AC1F8040151075A
:1056E00042BF4FF0E021586AC1F80801120742BFDB
:1056F0009A6A4FF0E023C3F80C2170476835FF1F0A
:10570000014800F05BBB00BF6835FF1F13B50446BE
:10571000062924D8DFE801F00B171F2304131B0010
:105720001149204602B0BDE8104000F094BB0F497B
:105730000023012201A8FFF76FF90199F1E70C4955
:1057400000230122F6E70B4900230122F2E70A4970
:1057500000230122EEE7094900230122EAE7084974
:1057600000230122E6E700BF000002B800093D0067
:1057700080841E0040420F0020A1070090D003004B
:1057800048E8010083792F495A1E022ACA6B42F465
:10579000805230B5CA63A1F5E03198BF9B00CA685A
:1057A000044694BFDBB20023900141BF22F0C062E7
:1057B00022F47F42100380B248BF0243C86858BF3A
:1057C00022F08062824285B00BD0086845045DBF3C
:1057D00040F4804545F001050D60CA605CBFCA60B9
:1057E00008602279042A29D0013AD2B2022A27D8A5
:1057F000154951F822106579013D18BF01252A4647
:1058000003A8FFF709F9039BA36029460F4800F09E
:105810000FFB23790D48013BDBB2032B96BF0C4AEB
:105820000121D15C0191FFF771FF084800F08AFA6D
:1058300001990648FFF76AFF05B030BD0549DAE770
:105840000549D8E700800440248800006835FF1F20
:10585000308800000024F40040420F0010B50446D8
:10586000FFF7CAFE024B2360024BA360204610BD27
:105870003C88000003200038002302481A461946DD
:10588000FFF7ECBF6C34FF1F054B1B684FF0004265
:10589000DA625963DA6A002AFCDA986BC0B27047A0
:1058A0002835FF1F7047FFFF30B5204B8268D97A3B
:1058B00071B372B6D97ACD0708D54FF0E024DD6810
:1058C000D4F880012840D861C4F880018C0708D53D
:1058D0004FF0E0241D69D4F8840128401862C4F810
:1058E0008401480708D54FF0E0245D69D4F88801A9
:1058F00028405862C4F88801090708D54FF0E02015
:105900009C69D0F88C1121409962C0F88C1162B664
:105910001B68D9688A4207D005491960DA6042F0ED
:1059200080421A61034A1A6030BD00BF2835FF1F4C
:1059300001403F0000003F800F4BDA7ADAB1D10717
:1059400042BF4FF0E021D869C1F80001900742BF83
:105950004FF0E021186AC1F80401510742BF4FF02F
:10596000E021586AC1F80801120742BF9A6A4FF055
:10597000E023C3F80C2170472835FF1F014800F0D1
:105980001DBA00BF2835FF1F83792F495A1E022AEE
:10599000CA6B42F4805230B5CA63A1F5E03198BFBA
:1059A0009B00CA68044694BFDBB20023900141BF4C
:1059B00022F0C06222F47F42100380B248BF02434B
:1059C000C86858BF22F08062824285B00BD0086858
:1059D00045045DBF40F4804545F001050D60CA6097
:1059E0005CBFCA6008602279042A29D0013AD2B289
:1059F000022A27D8154951F822106579013D18BFB0
:105A000001252A4603A8FFF707F8039BA360294650
:105A10000F4800F00DFA23790D48013BDBB2032B50
:105A200096BF0C4A0121D15C0191FFF76FFE084837
:105A300000F088F901990648FFF768FE05B030BD0F
:105A40000549DAE70549D8E700800440648800008A
:105A50002835FF1F708800000024F40040420F002A
:105A600010B50446FFF7C8FD024B2360024BA3604C
:105A7000204610BD7C880000032000380023024827
:105A80001A461946FFF7ECBF7834FF1F054B1B6819
:105A90004FF00042DA625963DA6A002AFCDA986B46
:105AA000C0B27047E834FF1F7047FFFF30B5204B8E
:105AB0008268D97A71B372B6D97ACD0708D54FF01A
:105AC000E024DD68D4F880012840D861C4F8800162
:105AD0008C0708D54FF0E0241D69D4F884012840D4
